{"Contracts/ERC20OFTAdapter.sol":{"ERC20OFTAdapter":{"abi":[{"inputs":[{"internalType":"address","name":"_token","type":"address"},{"internalType":"address","name":"_lzEndpoint","type":"address"},{"internalType":"address","name":"_delegate","type":"address"}],"stateMutability":"nonpayable","type":"constructor"},{"inputs":[{"internalType":"uint256","name":"amountSD","type":"uint256"}],"name":"AmountSDOverflowed","type":"error"},{"inputs":[],"name":"InvalidDelegate","type":"error"},{"inputs":[],"name":"InvalidEndpointCall","type":"error"},{"inputs":[],"name":"InvalidLocalDecimals","type":"error"},{"inputs":[{"internalType":"bytes","name":"options","type":"bytes"}],"name":"InvalidOptions","type":"error"},{"inputs":[],"name":"LzTokenUnavailable","type":"error"},{"inputs":[{"internalType":"uint32","name":"eid","type":"uint32"}],"name":"NoPeer","type":"error"},{"inputs":[{"internalType":"uint256","name":"msgValue","type":"uint256"}],"name":"NotEnoughNative","type":"error"},{"inputs":[{"internalType":"address","name":"addr","type":"address"}],"name":"OnlyEndpoint","type":"error"},{"inputs":[{"internalType":"uint32","name":"eid","type":"uint32"},{"internalType":"bytes32","name":"sender","type":"bytes32"}],"name":"OnlyPeer","type":"error"},{"inputs":[],"name":"OnlySelf","type":"error"},{"inputs":[{"internalType":"address","name":"owner","type":"address"}],"name":"OwnableInvalidOwner","type":"error"},{"inputs":[{"internalType":"address","name":"account","type":"address"}],"name":"OwnableUnauthorizedAccount","type":"error"},{"inputs":[{"internalType":"address","name":"token","type":"address"}],"name":"SafeERC20FailedOperation","type":"error"},{"inputs":[{"internalType":"bytes","name":"result","type":"bytes"}],"name":"SimulationResult","type":"error"},{"inputs":[{"internalType":"uint256","name":"amountLD","type":"uint256"},{"internalType":"uint256","name":"minAmountLD","type":"uint256"}],"name":"SlippageExceeded","type":"error"},{"anonymous":false,"inputs":[{"components":[{"internalType":"uint32","name":"eid","type":"uint32"},{"internalType":"uint16","name":"msgType","type":"uint16"},{"internalType":"bytes","name":"options","type":"bytes"}],"indexed":false,"internalType":"struct EnforcedOptionParam[]","name":"_enforcedOptions","type":"tuple[]"}],"name":"EnforcedOptionSet","type":"event"},{"anonymous":false,"inputs":[{"indexed":false,"internalType":"address","name":"inspector","type":"address"}],"name":"MsgInspectorSet","type":"event"},{"anonymous":false,"inputs":[{"indexed":true,"internalType":"bytes32","name":"guid","type":"bytes32"},{"indexed":false,"internalType":"uint32","name":"srcEid","type":"uint32"},{"indexed":true,"internalType":"address","name":"toAddress","type":"address"},{"indexed":false,"internalType":"uint256","name":"amountReceivedLD","type":"uint256"}],"name":"OFTReceived","type":"event"},{"anonymous":false,"inputs":[{"indexed":true,"internalType":"bytes32","name":"guid","type":"bytes32"},{"indexed":false,"internalType":"uint32","name":"dstEid","type":"uint32"},{"indexed":true,"internalType":"address","name":"fromAddress","type":"address"},{"indexed":false,"internalType":"uint256","name":"amountSentLD","type":"uint256"},{"indexed":false,"internalType":"uint256","name":"amountReceivedLD","type":"uint256"}],"name":"OFTSent","type":"event"},{"anonymous":false,"inputs":[{"indexed":true,"internalType":"address","name":"previousOwner","type":"address"},{"indexed":true,"internalType":"address","name":"newOwner","type":"address"}],"name":"OwnershipTransferred","type":"event"},{"anonymous":false,"inputs":[{"indexed":false,"internalType":"uint32","name":"eid","type":"uint32"},{"indexed":false,"internalType":"bytes32","name":"peer","type":"bytes32"}],"name":"PeerSet","type":"event"},{"anonymous":false,"inputs":[{"indexed":false,"internalType":"address","name":"preCrimeAddress","type":"address"}],"name":"PreCrimeSet","type":"event"},{"inputs":[],"name":"SEND","outputs":[{"internalType":"uint16","name":"","type":"uint16"}],"stateMutability":"view","type":"function"},{"inputs":[],"name":"SEND_AND_CALL","outputs":[{"internalType":"uint16","name":"","type":"uint16"}],"stateMutability":"view","type":"function"},{"inputs":[{"components":[{"internalType":"uint32","name":"srcEid","type":"uint32"},{"internalType":"bytes32","name":"sender","type":"bytes32"},{"internalType":"uint64","name":"nonce","type":"uint64"}],"internalType":"struct Origin","name":"origin","type":"tuple"}],"name":"allowInitializePath","outputs":[{"internalType":"bool","name":"","type":"bool"}],"stateMutability":"view","type":"function"},{"inputs":[],"name":"approvalRequired","outputs":[{"internalType":"bool","name":"","type":"bool"}],"stateMutability":"pure","type":"function"},{"inputs":[{"internalType":"uint32","name":"_eid","type":"uint32"},{"internalType":"uint16","name":"_msgType","type":"uint16"},{"internalType":"bytes","name":"_extraOptions","type":"bytes"}],"name":"combineOptions","outputs":[{"internalType":"bytes","name":"","type":"bytes"}],"stateMutability":"view","type":"function"},{"inputs":[],"name":"decimalConversionRate","outputs":[{"internalType":"uint256","name":"","type":"uint256"}],"stateMutability":"view","type":"function"},{"inputs":[],"name":"endpoint","outputs":[{"internalType":"contract ILayerZeroEndpointV2","name":"","type":"address"}],"stateMutability":"view","type":"function"},{"inputs":[{"internalType":"uint32","name":"eid","type":"uint32"},{"internalType":"uint16","name":"msgType","type":"uint16"}],"name":"enforcedOptions","outputs":[{"internalType":"bytes","name":"enforcedOption","type":"bytes"}],"stateMutability":"view","type":"function"},{"inputs":[{"components":[{"internalType":"uint32","name":"srcEid","type":"uint32"},{"internalType":"bytes32","name":"sender","type":"bytes32"},{"internalType":"uint64","name":"nonce","type":"uint64"}],"internalType":"struct Origin","name":"","type":"tuple"},{"internalType":"bytes","name":"","type":"bytes"},{"internalType":"address","name":"_sender","type":"address"}],"name":"isComposeMsgSender","outputs":[{"internalType":"bool","name":"","type":"bool"}],"stateMutability":"view","type":"function"},{"inputs":[{"internalType":"uint32","name":"_eid","type":"uint32"},{"internalType":"bytes32","name":"_peer","type":"bytes32"}],"name":"isPeer","outputs":[{"internalType":"bool","name":"","type":"bool"}],"stateMutability":"view","type":"function"},{"inputs":[{"components":[{"internalType":"uint32","name":"srcEid","type":"uint32"},{"internalType":"bytes32","name":"sender","type":"bytes32"},{"internalType":"uint64","name":"nonce","type":"uint64"}],"internalType":"struct Origin","name":"_origin","type":"tuple"},{"internalType":"bytes32","name":"_guid","type":"bytes32"},{"internalType":"bytes","name":"_message","type":"bytes"},{"internalType":"address","name":"_executor","type":"address"},{"internalType":"bytes","name":"_extraData","type":"bytes"}],"name":"lzReceive","outputs":[],"stateMutability":"payable","type":"function"},{"inputs":[{"components":[{"components":[{"internalType":"uint32","name":"srcEid","type":"uint32"},{"internalType":"bytes32","name":"sender","type":"bytes32"},{"internalType":"uint64","name":"nonce","type":"uint64"}],"internalType":"struct Origin","name":"origin","type":"tuple"},{"internalType":"uint32","name":"dstEid","type":"uint32"},{"internalType":"address","name":"receiver","type":"address"},{"internalType":"bytes32","name":"guid","type":"bytes32"},{"internalType":"uint256","name":"value","type":"uint256"},{"internalType":"address","name":"executor","type":"address"},{"internalType":"bytes","name":"message","type":"bytes"},{"internalType":"bytes","name":"extraData","type":"bytes"}],"internalType":"struct InboundPacket[]","name":"_packets","type":"tuple[]"}],"name":"lzReceiveAndRevert","outputs":[],"stateMutability":"payable","type":"function"},{"inputs":[{"components":[{"internalType":"uint32","name":"srcEid","type":"uint32"},{"internalType":"bytes32","name":"sender","type":"bytes32"},{"internalType":"uint64","name":"nonce","type":"uint64"}],"internalType":"struct Origin","name":"_origin","type":"tuple"},{"internalType":"bytes32","name":"_guid","type":"bytes32"},{"internalType":"bytes","name":"_message","type":"bytes"},{"internalType":"address","name":"_executor","type":"address"},{"internalType":"bytes","name":"_extraData","type":"bytes"}],"name":"lzReceiveSimulate","outputs":[],"stateMutability":"payable","type":"function"},{"inputs":[],"name":"msgInspector","outputs":[{"internalType":"address","name":"","type":"address"}],"stateMutability":"view","type":"function"},{"inputs":[{"internalType":"uint32","name":"","type":"uint32"},{"internalType":"bytes32","name":"","type":"bytes32"}],"name":"nextNonce","outputs":[{"internalType":"uint64","name":"nonce","type":"uint64"}],"stateMutability":"view","type":"function"},{"inputs":[],"name":"oApp","outputs":[{"internalType":"address","name":"","type":"address"}],"stateMutability":"view","type":"function"},{"inputs":[],"name":"oAppVersion","outputs":[{"internalType":"uint64","name":"senderVersion","type":"uint64"},{"internalType":"uint64","name":"receiverVersion","type":"uint64"}],"stateMutability":"pure","type":"function"},{"inputs":[],"name":"oftVersion","outputs":[{"internalType":"bytes4","name":"interfaceId","type":"bytes4"},{"internalType":"uint64","name":"version","type":"uint64"}],"stateMutability":"pure","type":"function"},{"inputs":[],"name":"owner","outputs":[{"internalType":"address","name":"","type":"address"}],"stateMutability":"view","type":"function"},{"inputs":[{"internalType":"uint32","name":"eid","type":"uint32"}],"name":"peers","outputs":[{"internalType":"bytes32","name":"peer","type":"bytes32"}],"stateMutability":"view","type":"function"},{"inputs":[],"name":"preCrime","outputs":[{"internalType":"address","name":"","type":"address"}],"stateMutability":"view","type":"function"},{"inputs":[{"components":[{"internalType":"uint32","name":"dstEid","type":"uint32"},{"internalType":"bytes32","name":"to","type":"bytes32"},{"internalType":"uint256","name":"amountLD","type":"uint256"},{"internalType":"uint256","name":"minAmountLD","type":"uint256"},{"internalType":"bytes","name":"extraOptions","type":"bytes"},{"internalType":"bytes","name":"composeMsg","type":"bytes"},{"internalType":"bytes","name":"oftCmd","type":"bytes"}],"internalType":"struct SendParam","name":"_sendParam","type":"tuple"}],"name":"quoteOFT","outputs":[{"components":[{"internalType":"uint256","name":"minAmountLD","type":"uint256"},{"internalType":"uint256","name":"maxAmountLD","type":"uint256"}],"internalType":"struct OFTLimit","name":"oftLimit","type":"tuple"},{"components":[{"internalType":"int256","name":"feeAmountLD","type":"int256"},{"internalType":"string","name":"description","type":"string"}],"internalType":"struct OFTFeeDetail[]","name":"oftFeeDetails","type":"tuple[]"},{"components":[{"internalType":"uint256","name":"amountSentLD","type":"uint256"},{"internalType":"uint256","name":"amountReceivedLD","type":"uint256"}],"internalType":"struct OFTReceipt","name":"oftReceipt","type":"tuple"}],"stateMutability":"view","type":"function"},{"inputs":[{"components":[{"internalType":"uint32","name":"dstEid","type":"uint32"},{"internalType":"bytes32","name":"to","type":"bytes32"},{"internalType":"uint256","name":"amountLD","type":"uint256"},{"internalType":"uint256","name":"minAmountLD","type":"uint256"},{"internalType":"bytes","name":"extraOptions","type":"bytes"},{"internalType":"bytes","name":"composeMsg","type":"bytes"},{"internalType":"bytes","name":"oftCmd","type":"bytes"}],"internalType":"struct SendParam","name":"_sendParam","type":"tuple"},{"internalType":"bool","name":"_payInLzToken","type":"bool"}],"name":"quoteSend","outputs":[{"components":[{"internalType":"uint256","name":"nativeFee","type":"uint256"},{"internalType":"uint256","name":"lzTokenFee","type":"uint256"}],"internalType":"struct MessagingFee","name":"msgFee","type":"tuple"}],"stateMutability":"view","type":"function"},{"inputs":[],"name":"renounceOwnership","outputs":[],"stateMutability":"nonpayable","type":"function"},{"inputs":[{"components":[{"internalType":"uint32","name":"dstEid","type":"uint32"},{"internalType":"bytes32","name":"to","type":"bytes32"},{"internalType":"uint256","name":"amountLD","type":"uint256"},{"internalType":"uint256","name":"minAmountLD","type":"uint256"},{"internalType":"bytes","name":"extraOptions","type":"bytes"},{"internalType":"bytes","name":"composeMsg","type":"bytes"},{"internalType":"bytes","name":"oftCmd","type":"bytes"}],"internalType":"struct SendParam","name":"_sendParam","type":"tuple"},{"components":[{"internalType":"uint256","name":"nativeFee","type":"uint256"},{"internalType":"uint256","name":"lzTokenFee","type":"uint256"}],"internalType":"struct MessagingFee","name":"_fee","type":"tuple"},{"internalType":"address","name":"_refundAddress","type":"address"}],"name":"send","outputs":[{"components":[{"internalType":"bytes32","name":"guid","type":"bytes32"},{"internalType":"uint64","name":"nonce","type":"uint64"},{"components":[{"internalType":"uint256","name":"nativeFee","type":"uint256"},{"internalType":"uint256","name":"lzTokenFee","type":"uint256"}],"internalType":"struct MessagingFee","name":"fee","type":"tuple"}],"internalType":"struct MessagingReceipt","name":"msgReceipt","type":"tuple"},{"components":[{"internalType":"uint256","name":"amountSentLD","type":"uint256"},{"internalType":"uint256","name":"amountReceivedLD","type":"uint256"}],"internalType":"struct OFTReceipt","name":"oftReceipt","type":"tuple"}],"stateMutability":"payable","type":"function"},{"inputs":[{"internalType":"address","name":"_delegate","type":"address"}],"name":"setDelegate","outputs":[],"stateMutability":"nonpayable","type":"function"},{"inputs":[{"components":[{"internalType":"uint32","name":"eid","type":"uint32"},{"internalType":"uint16","name":"msgType","type":"uint16"},{"internalType":"bytes","name":"options","type":"bytes"}],"internalType":"struct EnforcedOptionParam[]","name":"_enforcedOptions","type":"tuple[]"}],"name":"setEnforcedOptions","outputs":[],"stateMutability":"nonpayable","type":"function"},{"inputs":[{"internalType":"address","name":"_msgInspector","type":"address"}],"name":"setMsgInspector","outputs":[],"stateMutability":"nonpayable","type":"function"},{"inputs":[{"internalType":"uint32","name":"_eid","type":"uint32"},{"internalType":"bytes32","name":"_peer","type":"bytes32"}],"name":"setPeer","outputs":[],"stateMutability":"nonpayable","type":"function"},{"inputs":[{"internalType":"address","name":"_preCrime","type":"address"}],"name":"setPreCrime","outputs":[],"stateMutability":"nonpayable","type":"function"},{"inputs":[],"name":"sharedDecimals","outputs":[{"internalType":"uint8","name":"","type":"uint8"}],"stateMutability":"view","type":"function"},{"inputs":[],"name":"token","outputs":[{"internalType":"address","name":"","type":"address"}],"stateMutability":"view","type":"function"},{"inputs":[{"internalType":"address","name":"newOwner","type":"address"}],"name":"transferOwnership","outputs":[],"stateMutability":"nonpayable","type":"function"}],"devdoc":{"details":"Adapter to make any existing ERC20 token compatible with LayerZero OFT standard This allows bridging of existing tokens without minting new ones","errors":{"OwnableInvalidOwner(address)":[{"details":"The owner is not a valid owner account. (eg. `address(0)`)"}],"OwnableUnauthorizedAccount(address)":[{"details":"The caller account is not authorized to perform an operation."}],"SafeERC20FailedOperation(address)":[{"details":"An operation with an ERC-20 token failed."}]},"events":{"PreCrimeSet(address)":{"details":"Emitted when the preCrime contract address is set.","params":{"preCrimeAddress":"The address of the preCrime contract."}}},"kind":"dev","methods":{"allowInitializePath((uint32,bytes32,uint64))":{"details":"This indicates to the endpoint that the OApp has enabled msgs for this particular path to be received.This defaults to assuming if a peer has been set, its initialized. Can be overridden by the OApp if there is other logic to determine this.","params":{"origin":"The origin information containing the source endpoint and sender address."},"returns":{"_0":"Whether the path has been initialized."}},"approvalRequired()":{"details":"In the case of default OFTAdapter, approval is required.In non-default OFTAdapter contracts with something like mint and burn privileges, it would NOT need approval.","returns":{"_0":"requiresApproval Needs approval of the underlying token implementation."}},"combineOptions(uint32,uint16,bytes)":{"details":"If there is an enforced lzReceive option: - {gasLimit: 200k, msg.value: 1 ether} AND a caller supplies a lzReceive option: {gasLimit: 100k, msg.value: 0.5 ether} - The resulting options will be {gasLimit: 300k, msg.value: 1.5 ether} when the message is executed on the remote lzReceive() function.This presence of duplicated options is handled off-chain in the verifier/executor.","params":{"_eid":"The endpoint ID.","_extraOptions":"Additional options passed by the caller.","_msgType":"The OAPP message type."},"returns":{"_0":"options The combination of caller specified options AND enforced options."}},"isComposeMsgSender((uint32,bytes32,uint64),bytes,address)":{"details":"_origin The origin information containing the source endpoint and sender address.  - srcEid: The source chain endpoint ID.  - sender: The sender address on the src chain.  - nonce: The nonce of the message._message The lzReceive payload.Applications can optionally choose to implement separate composeMsg senders that are NOT the bridging layer.The default sender IS the OAppReceiver implementer.","params":{"_sender":"The sender address."},"returns":{"_0":"isSender Is a valid sender."}},"isPeer(uint32,bytes32)":{"details":"Check if the peer is considered 'trusted' by the OApp.Enables OAppPreCrimeSimulator to check whether a potential Inbound Packet is from a trusted source.","params":{"_eid":"The endpoint ID to check.","_peer":"The peer to check."},"returns":{"_0":"Whether the peer passed is considered 'trusted' by the OApp."}},"lzReceive((uint32,bytes32,uint64),bytes32,bytes,address,bytes)":{"details":"Entry point for receiving messages or packets from the endpoint.Entry point for receiving msg/packet from the LayerZero endpoint.","params":{"_executor":"The address of the executor for the received message.","_extraData":"Additional arbitrary data provided by the corresponding executor.","_guid":"The unique identifier for the received LayerZero message.","_message":"The payload of the received message.","_origin":"The origin information containing the source endpoint and sender address.  - srcEid: The source chain endpoint ID.  - sender: The sender address on the src chain.  - nonce: The nonce of the message."}},"lzReceiveAndRevert(((uint32,bytes32,uint64),uint32,address,bytes32,uint256,address,bytes,bytes)[])":{"details":"Interface for pre-crime simulations. Always reverts at the end with the simulation results.WARNING: MUST revert at the end with the simulation results.Gives the preCrime implementation the ability to mock sending packets to the lzReceive function, WITHOUT actually executing them.","params":{"_packets":"An array of InboundPacket objects representing received packets to be delivered."}},"lzReceiveSimulate((uint32,bytes32,uint64),bytes32,bytes,address,bytes)":{"details":"Is effectively an internal function because msg.sender must be address(this). Allows resetting the call stack for 'internal' calls.","params":{"_executor":"The executor address for the packet.","_extraData":"Additional data for the packet.","_guid":"The unique identifier of the packet.","_message":"The message payload of the packet.","_origin":"The origin information containing the source endpoint and sender address.  - srcEid: The source chain endpoint ID.  - sender: The sender address on the src chain.  - nonce: The nonce of the message."}},"nextNonce(uint32,bytes32)":{"details":"_srcEid The source endpoint ID._sender The sender address.The path nonce starts from 1. If 0 is returned it means that there is NO nonce ordered enforcement.Is required by the off-chain executor to determine the OApp expects msg execution is ordered.This is also enforced by the OApp.By default this is NOT enabled. ie. nextNonce is hardcoded to return 0.","returns":{"nonce":"The next nonce."}},"oApp()":{"details":"Retrieves the address of the OApp contract.The simulator contract is the base contract for the OApp by default.If the simulator is a separate contract, override this function.","returns":{"_0":"The address of the OApp contract."}},"oAppVersion()":{"returns":{"receiverVersion":"The version of the OAppReceiver.sol implementation.","senderVersion":"The version of the OAppSender.sol implementation."}},"oftVersion()":{"details":"interfaceId: This specific interface ID is '0x02e49c2c'.version: Indicates a cross-chain compatible msg encoding with other OFTs.If a new feature is added to the OFT cross-chain msg encoding, the version will be incremented. ie. localOFT version(x,1) CAN send messages to remoteOFT version(x,1)","returns":{"interfaceId":"The interface ID.","version":"The version."}},"owner()":{"details":"Returns the address of the current owner."},"quoteOFT((uint32,bytes32,uint256,uint256,bytes,bytes,bytes))":{"params":{"_sendParam":"The parameters for the send operation."},"returns":{"oftFeeDetails":"The details of OFT fees.","oftLimit":"The OFT limit information.","oftReceipt":"The OFT receipt information."}},"quoteSend((uint32,bytes32,uint256,uint256,bytes,bytes,bytes),bool)":{"details":"MessagingFee: LayerZero msg fee  - nativeFee: The native fee.  - lzTokenFee: The lzToken fee.","params":{"_payInLzToken":"Flag indicating whether the caller is paying in the LZ token.","_sendParam":"The parameters for the send() operation."},"returns":{"msgFee":"The calculated LayerZero messaging fee from the send() operation."}},"renounceOwnership()":{"details":"Leaves the contract without owner. It will not be possible to call `onlyOwner` functions. Can only be called by the current owner. NOTE: Renouncing ownership will leave the contract without an owner, thereby disabling any functionality that is only available to the owner."},"send((uint32,bytes32,uint256,uint256,bytes,bytes,bytes),(uint256,uint256),address)":{"details":"Executes the send operation.MessagingReceipt: LayerZero msg receipt  - guid: The unique identifier for the sent message.  - nonce: The nonce of the sent message.  - fee: The LayerZero fee incurred for the message.","params":{"_fee":"The calculated fee for the send() operation.      - nativeFee: The native fee.      - lzTokenFee: The lzToken fee.","_refundAddress":"The address to receive any excess funds.","_sendParam":"The parameters for the send operation."},"returns":{"msgReceipt":"The receipt for the send operation.","oftReceipt":"The OFT receipt information."}},"setDelegate(address)":{"details":"Only the owner/admin of the OApp can call this function.Provides the ability for a delegate to set configs, on behalf of the OApp, directly on the Endpoint contract.","params":{"_delegate":"The address of the delegate to be set."}},"setEnforcedOptions((uint32,uint16,bytes)[])":{"details":"Sets the enforced options for specific endpoint and message type combinations.Only the owner/admin of the OApp can call this function.Provides a way for the OApp to enforce things like paying for PreCrime, AND/OR minimum dst lzReceive gas amounts etc.These enforced options can vary as the potential options/execution on the remote may differ as per the msgType. eg. Amount of lzReceive() gas necessary to deliver a lzCompose() message adds overhead you dont want to pay if you are only making a standard LayerZero message ie. lzReceive() WITHOUT sendCompose().","params":{"_enforcedOptions":"An array of EnforcedOptionParam structures specifying enforced options."}},"setMsgInspector(address)":{"details":"Sets the message inspector address for the OFT.This is an optional contract that can be used to inspect both 'message' and 'options'.Set it to address(0) to disable it, or set it to a contract address to enable it.","params":{"_msgInspector":"The address of the message inspector."}},"setPeer(uint32,bytes32)":{"details":"Only the owner/admin of the OApp can call this function.Indicates that the peer is trusted to send LayerZero messages to this OApp.Set this to bytes32(0) to remove the peer address.Peer is a bytes32 to accommodate non-evm chains.","params":{"_eid":"The endpoint ID.","_peer":"The address of the peer to be associated with the corresponding endpoint."}},"setPreCrime(address)":{"details":"Sets the preCrime contract address.","params":{"_preCrime":"The address of the preCrime contract."}},"sharedDecimals()":{"details":"Retrieves the shared decimals of the OFT.Sets an implicit cap on the amount of tokens, over uint64.max() will need some sort of outbound cap / totalSupply cap Lowest common decimal denominator between chains. Defaults to 6 decimal places to provide up to 18,446,744,073,709.551615 units (max uint64). For tokens exceeding this totalSupply(), they will need to override the sharedDecimals function with something smaller. ie. 4 sharedDecimals would be 1,844,674,407,370,955.1615","returns":{"_0":"The shared decimals of the OFT."}},"token()":{"details":"Retrieves the address of the underlying ERC20 implementation.In the case of OFTAdapter, address(this) and erc20 are NOT the same contract.","returns":{"_0":"The address of the adapted ERC-20 token."}},"transferOwnership(address)":{"details":"Transfers ownership of the contract to a new account (`newOwner`). Can only be called by the current owner."}},"title":"ERC20OFTAdapter","version":1},"evm":{"bytecode":{"linkReferences":{},"object":"60e06040523480156200001157600080fd5b5060405162002fea38038062002fea833981016040819052620000349162000254565b828282826001600160a01b031663313ce5676040518163ffffffff1660e01b8152600401602060405180830381865afa15801562000076573d6000803e3d6000fd5b505050506040513d601f19601f820116820180604052508101906200009c91906200029e565b8282818181818a6001600160a01b038116620000d257604051631e4fbdf760e01b81526000600482015260240160405180910390fd5b620000dd81620001e2565b506001600160a01b0380831660805281166200010c57604051632d618d8160e21b815260040160405180910390fd5b60805160405163ca5eb5e160e01b81526001600160a01b0383811660048301529091169063ca5eb5e190602401600060405180830381600087803b1580156200015457600080fd5b505af115801562000169573d6000803e3d6000fd5b5050505050505050620001816200023260201b60201c565b60ff168360ff161015620001a8576040516301e9714b60e41b815260040160405180910390fd5b620001b5600684620002e0565b620001c290600a620003ff565b60a0525050506001600160a01b0390921660c05250620004109350505050565b600080546001600160a01b038381166001600160a01b0319831681178455604051919092169283917f8be0079c531659141344cd1fd0a4f28419497f9722a3daafe3b4186f6b6457e09190a35050565b600690565b80516001600160a01b03811681146200024f57600080fd5b919050565b6000806000606084860312156200026a57600080fd5b620002758462000237565b9250620002856020850162000237565b9150620002956040850162000237565b90509250925092565b600060208284031215620002b157600080fd5b815160ff81168114620002c357600080fd5b9392505050565b634e487b7160e01b600052601160045260246000fd5b60ff8281168282160390811115620002fc57620002fc620002ca565b92915050565b600181815b8085111562000343578160001904821115620003275762000327620002ca565b808516156200033557918102915b93841c939080029062000307565b509250929050565b6000826200035c57506001620002fc565b816200036b57506000620002fc565b81600181146200038457600281146200038f57620003af565b6001915050620002fc565b60ff841115620003a357620003a3620002ca565b50506001821b620002fc565b5060208310610133831016604e8410600b8410161715620003d4575081810a620002fc565b620003e0838362000302565b8060001904821115620003f757620003f7620002ca565b029392505050565b6000620002c360ff8416836200034b565b60805160a05160c051612b5662000494600039600081816106690152818161174701526118e70152600081816104e20152818161168e0152818161170a01526117fb0152600081816103e40152818161084001528181610e4f015281816110b4015281816113410152818161194b01528181611af20152611bab0152612b566000f3fe6080604052600436106101ee5760003560e01c806382413eac1161010d578063bc70b354116100a0578063d045a0dc1161006f578063d045a0dc14610607578063d42438851461061a578063f2fde38b1461063a578063fc0c546a1461065a578063ff7bd03d1461068d57600080fd5b8063bc70b35414610593578063bd815db0146105b3578063c7c7f5b3146105c6578063ca5eb5e1146105e757600080fd5b80639f68b964116100dc5780639f68b96414610512578063b731ea0a14610526578063b98bd07014610546578063bb0b6a531461056657600080fd5b806382413eac14610476578063857749b0146104965780638da5cb5b146104b2578063963efcaa146104d057600080fd5b80633b6f743b116101855780635e280f11116101545780635e280f11146103d25780636fc1b31e14610406578063715018a6146104265780637d25a05e1461043b57600080fd5b80633b6f743b1461031e57806352ae28791461034b5780635535d4611461035e5780635a0dfe4d1461038b57600080fd5b8063156a0d0f116101c1578063156a0d0f146102a057806317442b70146102c75780631f5e1334146102e95780633400288b146102fe57600080fd5b80630d35b415146101f3578063111ecdad1461022b57806313137d6514610263578063134d4f2514610278575b600080fd5b3480156101ff57600080fd5b5061021361020e366004611ca0565b6106ad565b60405161022293929190611d24565b60405180910390f35b34801561023757600080fd5b5060045461024b906001600160a01b031681565b6040516001600160a01b039091168152602001610222565b610276610271366004611e2c565b61083e565b005b34801561028457600080fd5b5061028d600281565b60405161ffff9091168152602001610222565b3480156102ac57600080fd5b506040805162b9270b60e21b81526001602082015201610222565b3480156102d357600080fd5b5060408051600181526002602082015201610222565b3480156102f557600080fd5b5061028d600181565b34801561030a57600080fd5b50610276610319366004611ee4565b6108fe565b34801561032a57600080fd5b5061033e610339366004611f1c565b610914565b6040516102229190611f6d565b34801561035757600080fd5b503061024b565b34801561036a57600080fd5b5061037e610379366004611f96565b61097d565b6040516102229190611fc9565b34801561039757600080fd5b506103c26103a6366004611ee4565b63ffffffff919091166000908152600160205260409020541490565b6040519015158152602001610222565b3480156103de57600080fd5b5061024b7f000000000000000000000000000000000000000000000000000000000000000081565b34801561041257600080fd5b50610276610421366004611fdc565b610a22565b34801561043257600080fd5b50610276610a7f565b34801561044757600080fd5b5061045e610456366004611ee4565b600092915050565b6040516001600160401b039091168152602001610222565b34801561048257600080fd5b506103c2610491366004611ff9565b610a93565b3480156104a257600080fd5b5060405160068152602001610222565b3480156104be57600080fd5b506000546001600160a01b031661024b565b3480156104dc57600080fd5b506105047f000000000000000000000000000000000000000000000000000000000000000081565b604051908152602001610222565b34801561051e57600080fd5b5060016103c2565b34801561053257600080fd5b5060025461024b906001600160a01b031681565b34801561055257600080fd5b506102766105613660046120a3565b610aa8565b34801561057257600080fd5b506105046105813660046120e4565b60016020526000908152604090205481565b34801561059f57600080fd5b5061037e6105ae3660046120ff565b610ac2565b6102766105c13660046120a3565b610c6a565b6105d96105d436600461215f565b610df4565b6040516102229291906121cc565b3480156105f357600080fd5b50610276610602366004611fdc565b610e28565b610276610615366004611e2c565b610eae565b34801561062657600080fd5b50610276610635366004611fdc565b610edd565b34801561064657600080fd5b50610276610655366004611fdc565b610f33565b34801561066657600080fd5b507f000000000000000000000000000000000000000000000000000000000000000061024b565b34801561069957600080fd5b506103c26106a836600461221e565b610f71565b604080518082019091526000808252602082015260606106e0604051806040016040528060008152602001600081525090565b600080306001600160a01b031663fc0c546a6040518163ffffffff1660e01b8152600401602060405180830381865afa158015610721573d6000803e3d6000fd5b505050506040513d601f19601f82011682018060405250810190610745919061223a565b6001600160a01b03166318160ddd6040518163ffffffff1660e01b8152600401602060405180830381865afa158015610782573d6000803e3d6000fd5b505050506040513d601f19601f820116820180604052508101906107a69190612257565b604080518082018252848152602080820184905282516000808252918101909352909750919250906107fb565b6040805180820190915260008152606060208201528152602001906001900390816107d35790505b509350600080610820604089013560608a013561081b60208c018c6120e4565b610fa7565b60408051808201909152918252602082015296989597505050505050565b7f00000000000000000000000000000000000000000000000000000000000000006001600160a01b0316331461088e576040516391ac5e4f60e01b81523360048201526024015b60405180910390fd5b602087018035906108a8906108a3908a6120e4565b610fe3565b146108e6576108ba60208801886120e4565b60405163309afaf360e21b815263ffffffff909116600482015260208801356024820152604401610885565b6108f58787878787878761101f565b50505050505050565b610906611186565b61091082826111b3565b5050565b604080518082019091526000808252602082015260006109446040850135606086013561081b60208801886120e4565b9150506000806109548684611208565b909250905061097161096960208801886120e4565b83838861132b565b93505050505b92915050565b6003602090815260009283526040808420909152908252902080546109a190612286565b80601f01602080910402602001604051908101604052809291908181526020018280546109cd90612286565b8015610a1a5780601f106109ef57610100808354040283529160200191610a1a565b820191906000526020600020905b8154815290600101906020018083116109fd57829003601f168201915b505050505081565b610a2a611186565b600480546001600160a01b0319166001600160a01b0383169081179091556040519081527ff0be4f1e87349231d80c36b33f9e8639658eeaf474014dee15a3e6a4d4414197906020015b60405180910390a150565b610a87611186565b610a91600061140c565b565b6001600160a01b03811630145b949350505050565b610ab0611186565b610910610abd828461235b565b61145c565b63ffffffff8416600090815260036020908152604080832061ffff87168452909152812080546060929190610af690612286565b80601f0160208091040260200160405190810160405280929190818152602001828054610b2290612286565b8015610b6f5780601f10610b4457610100808354040283529160200191610b6f565b820191906000526020600020905b815481529060010190602001808311610b5257829003601f168201915b505050505090508051600003610bbf5783838080601f016020809104026020016040519081016040528093929190818152602001838380828437600092019190915250929450610aa09350505050565b6000839003610bcf579050610aa0565b60028310610c4d57610c1684848080601f01602080910402602001604051908101604052809392919081815260200183838082843760009201919091525061156392505050565b80610c248460028188612470565b604051602001610c369392919061249a565b604051602081830303815290604052915050610aa0565b8383604051639a6d49cd60e01b81526004016108859291906124eb565b60005b81811015610d735736838383818110610c8857610c886124ff565b9050602002810190610c9a9190612515565b9050610ccd610cac60208301836120e4565b602083013563ffffffff919091166000908152600160205260409020541490565b610cd75750610d6b565b3063d045a0dc60c08301358360a0810135610cf6610100830183612536565b610d07610100890160e08a01611fdc565b610d156101208a018a612536565b6040518963ffffffff1660e01b8152600401610d379796959493929190612591565b6000604051808303818588803b158015610d5057600080fd5b505af1158015610d64573d6000803e3d6000fd5b5050505050505b600101610c6d565b50336001600160a01b0316638e9e70996040518163ffffffff1660e01b8152600401600060405180830381865afa158015610db2573d6000803e3d6000fd5b505050506040513d6000823e601f3d908101601f19168201604052610dda9190810190612617565b604051638351eea760e01b81526004016108859190611fc9565b610dfc611c41565b6040805180820190915260008082526020820152610e1b85858561158f565b915091505b935093915050565b610e30611186565b60405163ca5eb5e160e01b81526001600160a01b0382811660048301527f0000000000000000000000000000000000000000000000000000000000000000169063ca5eb5e190602401600060405180830381600087803b158015610e9357600080fd5b505af1158015610ea7573d6000803e3d6000fd5b5050505050565b333014610ece5760405163029a949d60e31b815260040160405180910390fd5b6108f5878787878787876108e6565b610ee5611186565b600280546001600160a01b0319166001600160a01b0383169081179091556040519081527fd48d879cef83a1c0bdda516f27b13ddb1b3f8bbac1c9e1511bb2a659c242776090602001610a74565b610f3b611186565b6001600160a01b038116610f6557604051631e4fbdf760e01b815260006004820152602401610885565b610f6e8161140c565b50565b6000602082018035906001908390610f8990866120e4565b63ffffffff1681526020810191909152604001600020541492915050565b600080610fb38561168a565b915081905083811015610e20576040516371c4efed60e01b81526004810182905260248101859052604401610885565b63ffffffff8116600090815260016020526040812054806109775760405163f6ff4fb760e01b815263ffffffff84166004820152602401610885565b600061103161102e87876116c1565b90565b9050600061105d8261104b6110468a8a6116e0565b611703565b61105860208d018d6120e4565b611738565b9050602886111561112457600061109a61107d60608c0160408d01612684565b61108a60208d018d6120e4565b846110958c8c611776565b6117c1565b604051633e5ac80960e11b81529091506001600160a01b037f00000000000000000000000000000000000000000000000000000000000000001690637cb59012906110f09086908d9060009087906004016126a1565b600060405180830381600087803b15801561110a57600080fd5b505af115801561111e573d6000803e3d6000fd5b50505050505b6001600160a01b038216887fefed6d3500546b29533b128a29e3a94d70788727f0507505ac12eaf2e578fd9c61115d60208d018d6120e4565b6040805163ffffffff9092168252602082018690520160405180910390a3505050505050505050565b6000546001600160a01b03163314610a915760405163118cdaa760e01b8152336004820152602401610885565b63ffffffff8216600081815260016020908152604091829020849055815192835282018390527f238399d427b947898edb290f5ff0f9109849b1c3ba196a42e35f00c50a54b98b910160405180910390a15050565b6060806000611265856020013561121e866117f3565b61122b60a0890189612536565b8080601f01602080910402602001604051908101604052809392919081815260200183838082843760009201919091525061184d92505050565b909350905060008161127857600161127b565b60025b905061129b61128d60208801886120e4565b826105ae60808a018a612536565b6004549093506001600160a01b031680156113215760405163043a78eb60e01b81526001600160a01b0382169063043a78eb906112de90889088906004016126dc565b602060405180830381865afa1580156112fb573d6000803e3d6000fd5b505050506040513d601f19601f8201168201806040525081019061131f9190612701565b505b5050509250929050565b60408051808201909152600080825260208201527f00000000000000000000000000000000000000000000000000000000000000006001600160a01b031663ddc28c586040518060a001604052808863ffffffff16815260200161138e89610fe3565b8152602001878152602001868152602001851515815250306040518363ffffffff1660e01b81526004016113c392919061271e565b6040805180830381865afa1580156113df573d6000803e3d6000fd5b505050506040513d601f19601f8201168201806040525081019061140391906127c7565b95945050505050565b600080546001600160a01b038381166001600160a01b0319831681178455604051919092169283917f8be0079c531659141344cd1fd0a4f28419497f9722a3daafe3b4186f6b6457e09190a35050565b60005b81518110156115335761148e82828151811061147d5761147d6124ff565b602002602001015160400151611563565b8181815181106114a0576114a06124ff565b602002602001015160400151600360008484815181106114c2576114c26124ff565b60200260200101516000015163ffffffff1663ffffffff16815260200190815260200160002060008484815181106114fc576114fc6124ff565b60200260200101516020015161ffff1661ffff168152602001908152602001600020908161152a9190612833565b5060010161145f565b507fbe4864a8e820971c0247f5992e2da559595f7bf076a21cb5928d443d2a13b67481604051610a7491906128f2565b600281015161ffff81166003146109105781604051639a6d49cd60e01b81526004016108859190611fc9565b611597611c41565b60408051808201909152600080825260208201526000806115ce33604089013560608a01356115c960208c018c6120e4565b6118c7565b915091506000806115df8984611208565b909250905061160b6115f460208b018b6120e4565b8383611605368d90038d018d61297d565b8b611918565b60408051808201909152858152602080820186905282519298509096503391907f85496b760a4b7f8d66384b9df21b381f5d1b1e79f229a47aaf4c232edc2fe59a90611659908d018d6120e4565b6040805163ffffffff909216825260208201899052810187905260600160405180910390a350505050935093915050565b60007f00000000000000000000000000000000000000000000000000000000000000006116b781846129af565b61097791906129d1565b60006116d06020828486612470565b6116d9916129f6565b9392505050565b60006116f0602860208486612470565b6116f991612a14565b60c01c9392505050565b60006109777f00000000000000000000000000000000000000000000000000000000000000006001600160401b0384166129d1565b600061176e6001600160a01b037f0000000000000000000000000000000000000000000000000000000000000000168585611a23565b509092915050565b60606117858260288186612470565b8080601f016020809104026020016040519081016040528093929190818152602001838380828437600092019190915250929695505050505050565b6060848484846040516020016117da9493929190612a44565b6040516020818303038152906040529050949350505050565b6000806118207f0000000000000000000000000000000000000000000000000000000000000000846129af565b90506001600160401b038111156109775760405163e2ce941360e01b815260048101829052602401610885565b805160609015158061189657848460405160200161188292919091825260c01b6001600160c01b031916602082015260280190565b6040516020818303038152906040526118bd565b848433856040516020016118ad9493929190612a93565b6040516020818303038152906040525b9150935093915050565b6000806118d5858585610fa7565b909250905061190f6001600160a01b037f000000000000000000000000000000000000000000000000000000000000000016873085611a87565b94509492505050565b611920611c41565b600061192f8460000151611ac6565b602085015190915015611949576119498460200151611aee565b7f00000000000000000000000000000000000000000000000000000000000000006001600160a01b0316632637a450826040518060a001604052808b63ffffffff1681526020016119998c610fe3565b81526020018a815260200189815260200160008960200151111515815250866040518463ffffffff1660e01b81526004016119d592919061271e565b60806040518083038185885af11580156119f3573d6000803e3d6000fd5b50505050506040513d601f19601f82011682018060405250810190611a189190612ad6565b979650505050505050565b6040516001600160a01b03838116602483015260448201839052611a8291859182169063a9059cbb906064015b604051602081830303815290604052915060e01b6020820180516001600160e01b038381831617835250505050611bd0565b505050565b6040516001600160a01b038481166024830152838116604483015260648201839052611ac09186918216906323b872dd90608401611a50565b50505050565b6000813414611aea576040516304fb820960e51b8152346004820152602401610885565b5090565b60007f00000000000000000000000000000000000000000000000000000000000000006001600160a01b031663e4fe1d946040518163ffffffff1660e01b8152600401602060405180830381865afa158015611b4e573d6000803e3d6000fd5b505050506040513d601f19601f82011682018060405250810190611b72919061223a565b90506001600160a01b038116611b9b576040516329b99a9560e11b815260040160405180910390fd5b6109106001600160a01b038216337f000000000000000000000000000000000000000000000000000000000000000085611a87565b600080602060008451602086016000885af180611bf3576040513d6000823e3d81fd5b50506000513d91508115611c0b578060011415611c18565b6001600160a01b0384163b155b15611ac057604051635274afe760e01b81526001600160a01b0385166004820152602401610885565b60405180606001604052806000801916815260200160006001600160401b03168152602001611c83604051806040016040528060008152602001600081525090565b905290565b600060e08284031215611c9a57600080fd5b50919050565b600060208284031215611cb257600080fd5b81356001600160401b03811115611cc857600080fd5b610aa084828501611c88565b60005b83811015611cef578181015183820152602001611cd7565b50506000910152565b60008151808452611d10816020860160208601611cd4565b601f01601f19169290920160200192915050565b8351815260208085015190820152600060a08201604060a0604085015281865180845260c08601915060c08160051b8701019350602080890160005b83811015611d9f5788870360bf19018552815180518852830151838801879052611d8c87890182611cf8565b9750509382019390820190600101611d60565b50508751606088015250505060208501516080850152509050610aa0565b600060608284031215611c9a57600080fd5b60008083601f840112611de157600080fd5b5081356001600160401b03811115611df857600080fd5b602083019150836020828501011115611e1057600080fd5b9250929050565b6001600160a01b0381168114610f6e57600080fd5b600080600080600080600060e0888a031215611e4757600080fd5b611e518989611dbd565b96506060880135955060808801356001600160401b0380821115611e7457600080fd5b611e808b838c01611dcf565b909750955060a08a01359150611e9582611e17565b90935060c08901359080821115611eab57600080fd5b50611eb88a828b01611dcf565b989b979a50959850939692959293505050565b803563ffffffff81168114611edf57600080fd5b919050565b60008060408385031215611ef757600080fd5b611f0083611ecb565b946020939093013593505050565b8015158114610f6e57600080fd5b60008060408385031215611f2f57600080fd5b82356001600160401b03811115611f4557600080fd5b611f5185828601611c88565b9250506020830135611f6281611f0e565b809150509250929050565b815181526020808301519082015260408101610977565b803561ffff81168114611edf57600080fd5b60008060408385031215611fa957600080fd5b611fb283611ecb565b9150611fc060208401611f84565b90509250929050565b6020815260006116d96020830184611cf8565b600060208284031215611fee57600080fd5b81356116d981611e17565b60008060008060a0858703121561200f57600080fd5b6120198686611dbd565b935060608501356001600160401b0381111561203457600080fd5b61204087828801611dcf565b909450925050608085013561205481611e17565b939692955090935050565b60008083601f84011261207157600080fd5b5081356001600160401b0381111561208857600080fd5b6020830191508360208260051b8501011115611e1057600080fd5b600080602083850312156120b657600080fd5b82356001600160401b038111156120cc57600080fd5b6120d88582860161205f565b90969095509350505050565b6000602082840312156120f657600080fd5b6116d982611ecb565b6000806000806060858703121561211557600080fd5b61211e85611ecb565b935061212c60208601611f84565b925060408501356001600160401b0381111561214757600080fd5b61215387828801611dcf565b95989497509550505050565b6000806000838503608081121561217557600080fd5b84356001600160401b0381111561218b57600080fd5b61219787828801611c88565b9450506040601f19820112156121ac57600080fd5b5060208401915060608401356121c181611e17565b809150509250925092565b600060c082019050835182526001600160401b0360208501511660208301526040840151612207604084018280518252602090810151910152565b5082516080830152602083015160a08301526116d9565b60006060828403121561223057600080fd5b6116d98383611dbd565b60006020828403121561224c57600080fd5b81516116d981611e17565b60006020828403121561226957600080fd5b5051919050565b634e487b7160e01b600052604160045260246000fd5b600181811c9082168061229a57607f821691505b602082108103611c9a57634e487b7160e01b600052602260045260246000fd5b604051606081016001600160401b03811182821017156122dc576122dc612270565b60405290565b604080519081016001600160401b03811182821017156122dc576122dc612270565b604051601f8201601f191681016001600160401b038111828210171561232c5761232c612270565b604052919050565b60006001600160401b0382111561234d5761234d612270565b50601f01601f191660200190565b60006001600160401b038084111561237557612375612270565b8360051b6020612386818301612304565b86815291850191818101903684111561239e57600080fd5b865b84811015612464578035868111156123b85760008081fd5b880160603682900312156123cc5760008081fd5b6123d46122ba565b6123dd82611ecb565b81526123ea868301611f84565b86820152604080830135898111156124025760008081fd5b929092019136601f8401126124175760008081fd5b823561242a61242582612334565b612304565b818152368983870101111561243f5760008081fd5b818986018a8301376000918101890191909152908201528452509183019183016123a0565b50979650505050505050565b6000808585111561248057600080fd5b8386111561248d57600080fd5b5050820193919092039150565b600084516124ac818460208901611cd4565b8201838582376000930192835250909392505050565b81835281816020850137506000828201602090810191909152601f909101601f19169091010190565b602081526000610aa06020830184866124c2565b634e487b7160e01b600052603260045260246000fd5b6000823561013e1983360301811261252c57600080fd5b9190910192915050565b6000808335601e1984360301811261254d57600080fd5b8301803591506001600160401b0382111561256757600080fd5b602001915036819003821315611e1057600080fd5b6001600160401b0381168114610f6e57600080fd5b63ffffffff61259f89611ecb565b16815260208801356020820152600060408901356125bc8161257c565b6001600160401b03811660408401525087606083015260e060808301526125e760e0830187896124c2565b6001600160a01b03861660a084015282810360c08401526126098185876124c2565b9a9950505050505050505050565b60006020828403121561262957600080fd5b81516001600160401b0381111561263f57600080fd5b8201601f8101841361265057600080fd5b805161265e61242582612334565b81815285602083850101111561267357600080fd5b611403826020830160208601611cd4565b60006020828403121561269657600080fd5b81356116d98161257c565b60018060a01b038516815283602082015261ffff831660408201526080606082015260006126d26080830184611cf8565b9695505050505050565b6040815260006126ef6040830185611cf8565b82810360208401526114038185611cf8565b60006020828403121561271357600080fd5b81516116d981611f0e565b6040815263ffffffff8351166040820152602083015160608201526000604084015160a0608084015261275460e0840182611cf8565b90506060850151603f198483030160a08501526127718282611cf8565b60809690960151151560c08501525050506001600160a01b039190911660209091015290565b6000604082840312156127a957600080fd5b6127b16122e2565b9050815181526020820151602082015292915050565b6000604082840312156127d957600080fd5b6116d98383612797565b601f821115611a82576000816000526020600020601f850160051c8101602086101561280c5750805b601f850160051c820191505b8181101561282b57828155600101612818565b505050505050565b81516001600160401b0381111561284c5761284c612270565b6128608161285a8454612286565b846127e3565b602080601f831160018114612895576000841561287d5750858301515b600019600386901b1c1916600185901b17855561282b565b600085815260208120601f198616915b828110156128c4578886015182559484019460019091019084016128a5565b50858210156128e25787850151600019600388901b60f8161c191681555b5050505050600190811b01905550565b600060208083018184528085518083526040925060408601915060408160051b87010184880160005b8381101561296f57888303603f190185528151805163ffffffff1684528781015161ffff1688850152860151606087850181905261295b81860183611cf8565b96890196945050509086019060010161291b565b509098975050505050505050565b60006040828403121561298f57600080fd5b6129976122e2565b82358152602083013560208201528091505092915050565b6000826129cc57634e487b7160e01b600052601260045260246000fd5b500490565b808202811582820484141761097757634e487b7160e01b600052601160045260246000fd5b8035602083101561097757600019602084900360031b1b1692915050565b6001600160c01b03198135818116916008851015612a3c5780818660080360031b1b83161692505b505092915050565b6001600160401b0360c01b8560c01b16815263ffffffff60e01b8460e01b16600882015282600c82015260008251612a8381602c850160208701611cd4565b91909101602c0195945050505050565b8481526001600160401b0360c01b8460c01b16602082015282602882015260008251612ac6816048850160208701611cd4565b9190910160480195945050505050565b600060808284031215612ae857600080fd5b612af06122ba565b825181526020830151612b028161257c565b6020820152612b148460408501612797565b6040820152939250505056fea2646970667358221220d3aa372795d4982187c839358e694b3b79ee82c89139508de1f8db3be0ee579064736f6c63430008160033","opcodes":"PUSH1 0xE0 PUSH1 0x40 MSTORE CALLVALUE DUP1 ISZERO PUSH3 0x11 JUMPI PUSH1 0x0 DUP1 REVERT JUMPDEST POP PUSH1 0x40 MLOAD PUSH3 0x2FEA CODESIZE SUB DUP1 PUSH3 0x2FEA DUP4 CODECOPY DUP2 ADD PUSH1 0x40 DUP2 SWAP1 MSTORE PUSH3 0x34 SWAP2 PUSH3 0x254 JUMP JUMPDEST DUP3 DUP3 DUP3 DUP3 PUSH1 0x1 PUSH1 0x1 PUSH1 0xA0 SHL SUB AND PUSH4 0x313CE567 PUSH1 0x40 MLOAD DUP2 PUSH4 0xFFFFFFFF AND PUSH1 0xE0 SHL DUP2 MSTORE PUSH1 0x4 ADD PUSH1 0x20 PUSH1 0x40 MLOAD DUP1 DUP4 SUB DUP2 DUP7 GAS STATICCALL ISZERO DUP1 ISZERO PUSH3 0x76 JUMPI RETURNDATASIZE PUSH1 0x0 DUP1 RETURNDATACOPY RETURNDATASIZE PUSH1 0x0 REVERT JUMPDEST POP POP POP POP PUSH1 0x40 MLOAD RETURNDATASIZE PUSH1 0x1F NOT PUSH1 0x1F DUP3 ADD AND DUP3 ADD DUP1 PUSH1 0x40 MSTORE POP DUP2 ADD SWAP1 PUSH3 0x9C SWAP2 SWAP1 PUSH3 0x29E JUMP JUMPDEST DUP3 DUP3 DUP2 DUP2 DUP2 DUP2 DUP11 PUSH1 0x1 PUSH1 0x1 PUSH1 0xA0 SHL SUB DUP2 AND PUSH3 0xD2 JUMPI PUSH1 0x40 MLOAD PUSH4 0x1E4FBDF7 PUSH1 0xE0 SHL DUP2 MSTORE PUSH1 0x0 PUSH1 0x4 DUP3 ADD MSTORE PUSH1 0x24 ADD PUSH1 0x40 MLOAD DUP1 SWAP2 SUB SWAP1 REVERT JUMPDEST PUSH3 0xDD DUP2 PUSH3 0x1E2 JUMP JUMPDEST POP PUSH1 0x1 PUSH1 0x1 PUSH1 0xA0 SHL SUB DUP1 DUP4 AND PUSH1 0x80 MSTORE DUP2 AND PUSH3 0x10C JUMPI PUSH1 0x40 MLOAD PUSH4 0x2D618D81 PUSH1 0xE2 SHL DUP2 MSTORE PUSH1 0x4 ADD PUSH1 0x40 MLOAD DUP1 SWAP2 SUB SWAP1 REVERT JUMPDEST PUSH1 0x80 MLOAD PUSH1 0x40 MLOAD PUSH4 0xCA5EB5E1 PUSH1 0xE0 SHL DUP2 MSTORE PUSH1 0x1 PUSH1 0x1 PUSH1 0xA0 SHL SUB DUP4 DUP2 AND PUSH1 0x4 DUP4 ADD MSTORE SWAP1 SWAP2 AND SWAP1 PUSH4 0xCA5EB5E1 SWAP1 PUSH1 0x24 ADD PUSH1 0x0 PUSH1 0x40 MLOAD DUP1 DUP4 SUB DUP2 PUSH1 0x0 DUP8 DUP1 EXTCODESIZE ISZERO DUP1 ISZERO PUSH3 0x154 JUMPI PUSH1 0x0 DUP1 REVERT JUMPDEST POP GAS CALL ISZERO DUP1 ISZERO PUSH3 0x169 JUMPI RETURNDATASIZE PUSH1 0x0 DUP1 RETURNDATACOPY RETURNDATASIZE PUSH1 0x0 REVERT JUMPDEST POP POP POP POP POP POP POP POP PUSH3 0x181 PUSH3 0x232 PUSH1 0x20 SHL PUSH1 0x20 SHR JUMP JUMPDEST PUSH1 0xFF AND DUP4 PUSH1 0xFF AND LT ISZERO PUSH3 0x1A8 JUMPI PUSH1 0x40 MLOAD PUSH4 0x1E9714B PUSH1 0xE4 SHL DUP2 MSTORE PUSH1 0x4 ADD PUSH1 0x40 MLOAD DUP1 SWAP2 SUB SWAP1 REVERT JUMPDEST PUSH3 0x1B5 PUSH1 0x6 DUP5 PUSH3 0x2E0 JUMP JUMPDEST PUSH3 0x1C2 SWAP1 PUSH1 0xA PUSH3 0x3FF JUMP JUMPDEST PUSH1 0xA0 MSTORE POP POP POP PUSH1 0x1 PUSH1 0x1 PUSH1 0xA0 SHL SUB SWAP1 SWAP3 AND PUSH1 0xC0 MSTORE POP PUSH3 0x410 SWAP4 POP POP POP POP JUMP JUMPDEST PUSH1 0x0 DUP1 SLOAD PUSH1 0x1 PUSH1 0x1 PUSH1 0xA0 SHL SUB DUP4 DUP2 AND PUSH1 0x1 PUSH1 0x1 PUSH1 0xA0 SHL SUB NOT DUP4 AND DUP2 OR DUP5 SSTORE PUSH1 0x40 MLOAD SWAP2 SWAP1 SWAP3 AND SWAP3 DUP4 SWAP2 PUSH32 0x8BE0079C531659141344CD1FD0A4F28419497F9722A3DAAFE3B4186F6B6457E0 SWAP2 SWAP1 LOG3 POP POP JUMP JUMPDEST PUSH1 0x6 SWAP1 JUMP JUMPDEST DUP1 MLOAD PUSH1 0x1 PUSH1 0x1 PUSH1 0xA0 SHL SUB DUP2 AND DUP2 EQ PUSH3 0x24F JUMPI PUSH1 0x0 DUP1 REVERT JUMPDEST SWAP2 SWAP1 POP JUMP JUMPDEST PUSH1 0x0 DUP1 PUSH1 0x0 PUSH1 0x60 DUP5 DUP7 SUB SLT ISZERO PUSH3 0x26A JUMPI PUSH1 0x0 DUP1 REVERT JUMPDEST PUSH3 0x275 DUP5 PUSH3 0x237 JUMP JUMPDEST SWAP3 POP PUSH3 0x285 PUSH1 0x20 DUP6 ADD PUSH3 0x237 JUMP JUMPDEST SWAP2 POP PUSH3 0x295 PUSH1 0x40 DUP6 ADD PUSH3 0x237 JUMP JUMPDEST SWAP1 POP SWAP3 POP SWAP3 POP SWAP3 JUMP JUMPDEST PUSH1 0x0 PUSH1 0x20 DUP3 DUP5 SUB SLT ISZERO PUSH3 0x2B1 JUMPI PUSH1 0x0 DUP1 REVERT JUMPDEST DUP2 MLOAD PUSH1 0xFF DUP2 AND DUP2 EQ PUSH3 0x2C3 JUMPI PUSH1 0x0 DUP1 REVERT JUMPDEST SWAP4 SWAP3 POP POP POP JUMP JUMPDEST PUSH4 0x4E487B71 PUSH1 0xE0 SHL PUSH1 0x0 MSTORE PUSH1 0x11 PUSH1 0x4 MSTORE PUSH1 0x24 PUSH1 0x0 REVERT JUMPDEST PUSH1 0xFF DUP3 DUP2 AND DUP3 DUP3 AND SUB SWAP1 DUP2 GT ISZERO PUSH3 0x2FC JUMPI PUSH3 0x2FC PUSH3 0x2CA JUMP JUMPDEST SWAP3 SWAP2 POP POP JUMP JUMPDEST PUSH1 0x1 DUP2 DUP2 JUMPDEST DUP1 DUP6 GT ISZERO PUSH3 0x343 JUMPI DUP2 PUSH1 0x0 NOT DIV DUP3 GT ISZERO PUSH3 0x327 JUMPI PUSH3 0x327 PUSH3 0x2CA JUMP JUMPDEST DUP1 DUP6 AND ISZERO PUSH3 0x335 JUMPI SWAP2 DUP2 MUL SWAP2 JUMPDEST SWAP4 DUP5 SHR SWAP4 SWAP1 DUP1 MUL SWAP1 PUSH3 0x307 JUMP JUMPDEST POP SWAP3 POP SWAP3 SWAP1 POP JUMP JUMPDEST PUSH1 0x0 DUP3 PUSH3 0x35C JUMPI POP PUSH1 0x1 PUSH3 0x2FC JUMP JUMPDEST DUP2 PUSH3 0x36B JUMPI POP PUSH1 0x0 PUSH3 0x2FC JUMP JUMPDEST DUP2 PUSH1 0x1 DUP2 EQ PUSH3 0x384 JUMPI PUSH1 0x2 DUP2 EQ PUSH3 0x38F JUMPI PUSH3 0x3AF JUMP JUMPDEST PUSH1 0x1 SWAP2 POP POP PUSH3 0x2FC JUMP JUMPDEST PUSH1 0xFF DUP5 GT ISZERO PUSH3 0x3A3 JUMPI PUSH3 0x3A3 PUSH3 0x2CA JUMP JUMPDEST POP POP PUSH1 0x1 DUP3 SHL PUSH3 0x2FC JUMP JUMPDEST POP PUSH1 0x20 DUP4 LT PUSH2 0x133 DUP4 LT AND PUSH1 0x4E DUP5 LT PUSH1 0xB DUP5 LT AND OR ISZERO PUSH3 0x3D4 JUMPI POP DUP2 DUP2 EXP PUSH3 0x2FC JUMP JUMPDEST PUSH3 0x3E0 DUP4 DUP4 PUSH3 0x302 JUMP JUMPDEST DUP1 PUSH1 0x0 NOT DIV DUP3 GT ISZERO PUSH3 0x3F7 JUMPI PUSH3 0x3F7 PUSH3 0x2CA JUMP JUMPDEST MUL SWAP4 SWAP3 POP POP POP JUMP JUMPDEST PUSH1 0x0 PUSH3 0x2C3 PUSH1 0xFF DUP5 AND DUP4 PUSH3 0x34B JUMP JUMPDEST PUSH1 0x80 MLOAD PUSH1 0xA0 MLOAD PUSH1 0xC0 MLOAD PUSH2 0x2B56 PUSH3 0x494 PUSH1 0x0 CODECOPY PUSH1 0x0 DUP2 DUP2 PUSH2 0x669 ADD MSTORE DUP2 DUP2 PUSH2 0x1747 ADD MSTORE PUSH2 0x18E7 ADD MSTORE PUSH1 0x0 DUP2 DUP2 PUSH2 0x4E2 ADD MSTORE DUP2 DUP2 PUSH2 0x168E ADD MSTORE DUP2 DUP2 PUSH2 0x170A ADD MSTORE PUSH2 0x17FB ADD MSTORE PUSH1 0x0 DUP2 DUP2 PUSH2 0x3E4 ADD MSTORE DUP2 DUP2 PUSH2 0x840 ADD MSTORE DUP2 DUP2 PUSH2 0xE4F ADD MSTORE DUP2 DUP2 PUSH2 0x10B4 ADD MSTORE DUP2 DUP2 PUSH2 0x1341 ADD MSTORE DUP2 DUP2 PUSH2 0x194B ADD MSTORE DUP2 DUP2 PUSH2 0x1AF2 ADD MSTORE PUSH2 0x1BAB ADD MSTORE PUSH2 0x2B56 PUSH1 0x0 RETURN INVALID PUSH1 0x80 PUSH1 0x40 MSTORE PUSH1 0x4 CALLDATASIZE LT PUSH2 0x1EE JUMPI PUSH1 0x0 CALLDATALOAD PUSH1 0xE0 SHR DUP1 PUSH4 0x82413EAC GT PUSH2 0x10D JUMPI DUP1 PUSH4 0xBC70B354 GT PUSH2 0xA0 JUMPI DUP1 PUSH4 0xD045A0DC GT PUSH2 0x6F JUMPI DUP1 PUSH4 0xD045A0DC EQ PUSH2 0x607 JUMPI DUP1 PUSH4 0xD4243885 EQ PUSH2 0x61A JUMPI DUP1 PUSH4 0xF2FDE38B EQ PUSH2 0x63A JUMPI DUP1 PUSH4 0xFC0C546A EQ PUSH2 0x65A JUMPI DUP1 PUSH4 0xFF7BD03D EQ PUSH2 0x68D JUMPI PUSH1 0x0 DUP1 REVERT JUMPDEST DUP1 PUSH4 0xBC70B354 EQ PUSH2 0x593 JUMPI DUP1 PUSH4 0xBD815DB0 EQ PUSH2 0x5B3 JUMPI DUP1 PUSH4 0xC7C7F5B3 EQ PUSH2 0x5C6 JUMPI DUP1 PUSH4 0xCA5EB5E1 EQ PUSH2 0x5E7 JUMPI PUSH1 0x0 DUP1 REVERT JUMPDEST DUP1 PUSH4 0x9F68B964 GT PUSH2 0xDC JUMPI DUP1 PUSH4 0x9F68B964 EQ PUSH2 0x512 JUMPI DUP1 PUSH4 0xB731EA0A EQ PUSH2 0x526 JUMPI DUP1 PUSH4 0xB98BD070 EQ PUSH2 0x546 JUMPI DUP1 PUSH4 0xBB0B6A53 EQ PUSH2 0x566 JUMPI PUSH1 0x0 DUP1 REVERT JUMPDEST DUP1 PUSH4 0x82413EAC EQ PUSH2 0x476 JUMPI DUP1 PUSH4 0x857749B0 EQ PUSH2 0x496 JUMPI DUP1 PUSH4 0x8DA5CB5B EQ PUSH2 0x4B2 JUMPI DUP1 PUSH4 0x963EFCAA EQ PUSH2 0x4D0 JUMPI PUSH1 0x0 DUP1 REVERT JUMPDEST DUP1 PUSH4 0x3B6F743B GT PUSH2 0x185 JUMPI DUP1 PUSH4 0x5E280F11 GT PUSH2 0x154 JUMPI DUP1 PUSH4 0x5E280F11 EQ PUSH2 0x3D2 JUMPI DUP1 PUSH4 0x6FC1B31E EQ PUSH2 0x406 JUMPI DUP1 PUSH4 0x715018A6 EQ PUSH2 0x426 JUMPI DUP1 PUSH4 0x7D25A05E EQ PUSH2 0x43B JUMPI PUSH1 0x0 DUP1 REVERT JUMPDEST DUP1 PUSH4 0x3B6F743B EQ PUSH2 0x31E JUMPI DUP1 PUSH4 0x52AE2879 EQ PUSH2 0x34B JUMPI DUP1 PUSH4 0x5535D461 EQ PUSH2 0x35E JUMPI DUP1 PUSH4 0x5A0DFE4D EQ PUSH2 0x38B JUMPI PUSH1 0x0 DUP1 REVERT JUMPDEST DUP1 PUSH4 0x156A0D0F GT PUSH2 0x1C1 JUMPI DUP1 PUSH4 0x156A0D0F EQ PUSH2 0x2A0 JUMPI DUP1 PUSH4 0x17442B70 EQ PUSH2 0x2C7 JUMPI DUP1 PUSH4 0x1F5E1334 EQ PUSH2 0x2E9 JUMPI DUP1 PUSH4 0x3400288B EQ PUSH2 0x2FE JUMPI PUSH1 0x0 DUP1 REVERT JUMPDEST DUP1 PUSH4 0xD35B415 EQ PUSH2 0x1F3 JUMPI DUP1 PUSH4 0x111ECDAD EQ PUSH2 0x22B JUMPI DUP1 PUSH4 0x13137D65 EQ PUSH2 0x263 JUMPI DUP1 PUSH4 0x134D4F25 EQ PUSH2 0x278 JUMPI JUMPDEST PUSH1 0x0 DUP1 REVERT JUMPDEST CALLVALUE DUP1 ISZERO PUSH2 0x1FF JUMPI PUSH1 0x0 DUP1 REVERT JUMPDEST POP PUSH2 0x213 PUSH2 0x20E CALLDATASIZE PUSH1 0x4 PUSH2 0x1CA0 JUMP JUMPDEST PUSH2 0x6AD JUMP JUMPDEST PUSH1 0x40 MLOAD PUSH2 0x222 SWAP4 SWAP3 SWAP2 SWAP1 PUSH2 0x1D24 JUMP JUMPDEST PUSH1 0x40 MLOAD DUP1 SWAP2 SUB SWAP1 RETURN JUMPDEST CALLVALUE DUP1 ISZERO PUSH2 0x237 JUMPI PUSH1 0x0 DUP1 REVERT JUMPDEST POP PUSH1 0x4 SLOAD PUSH2 0x24B SWAP1 PUSH1 0x1 PUSH1 0x1 PUSH1 0xA0 SHL SUB AND DUP2 JUMP JUMPDEST PUSH1 0x40 MLOAD PUSH1 0x1 PUSH1 0x1 PUSH1 0xA0 SHL SUB SWAP1 SWAP2 AND DUP2 MSTORE PUSH1 0x20 ADD PUSH2 0x222 JUMP JUMPDEST PUSH2 0x276 PUSH2 0x271 CALLDATASIZE PUSH1 0x4 PUSH2 0x1E2C JUMP JUMPDEST PUSH2 0x83E JUMP JUMPDEST STOP JUMPDEST CALLVALUE DUP1 ISZERO PUSH2 0x284 JUMPI PUSH1 0x0 DUP1 REVERT JUMPDEST POP PUSH2 0x28D PUSH1 0x2 DUP2 JUMP JUMPDEST PUSH1 0x40 MLOAD PUSH2 0xFFFF SWAP1 SWAP2 AND DUP2 MSTORE PUSH1 0x20 ADD PUSH2 0x222 JUMP JUMPDEST CALLVALUE DUP1 ISZERO PUSH2 0x2AC JUMPI PUSH1 0x0 DUP1 REVERT JUMPDEST POP PUSH1 0x40 DUP1 MLOAD PUSH3 0xB9270B PUSH1 0xE2 SHL DUP2 MSTORE PUSH1 0x1 PUSH1 0x20 DUP3 ADD MSTORE ADD PUSH2 0x222 JUMP JUMPDEST CALLVALUE DUP1 ISZERO PUSH2 0x2D3 JUMPI PUSH1 0x0 DUP1 REVERT JUMPDEST POP PUSH1 0x40 DUP1 MLOAD PUSH1 0x1 DUP2 MSTORE PUSH1 0x2 PUSH1 0x20 DUP3 ADD MSTORE ADD PUSH2 0x222 JUMP JUMPDEST CALLVALUE DUP1 ISZERO PUSH2 0x2F5 JUMPI PUSH1 0x0 DUP1 REVERT JUMPDEST POP PUSH2 0x28D PUSH1 0x1 DUP2 JUMP JUMPDEST CALLVALUE DUP1 ISZERO PUSH2 0x30A JUMPI PUSH1 0x0 DUP1 REVERT JUMPDEST POP PUSH2 0x276 PUSH2 0x319 CALLDATASIZE PUSH1 0x4 PUSH2 0x1EE4 JUMP JUMPDEST PUSH2 0x8FE JUMP JUMPDEST CALLVALUE DUP1 ISZERO PUSH2 0x32A JUMPI PUSH1 0x0 DUP1 REVERT JUMPDEST POP PUSH2 0x33E PUSH2 0x339 CALLDATASIZE PUSH1 0x4 PUSH2 0x1F1C JUMP JUMPDEST PUSH2 0x914 JUMP JUMPDEST PUSH1 0x40 MLOAD PUSH2 0x222 SWAP2 SWAP1 PUSH2 0x1F6D JUMP JUMPDEST CALLVALUE DUP1 ISZERO PUSH2 0x357 JUMPI PUSH1 0x0 DUP1 REVERT JUMPDEST POP ADDRESS PUSH2 0x24B JUMP JUMPDEST CALLVALUE DUP1 ISZERO PUSH2 0x36A JUMPI PUSH1 0x0 DUP1 REVERT JUMPDEST POP PUSH2 0x37E PUSH2 0x379 CALLDATASIZE PUSH1 0x4 PUSH2 0x1F96 JUMP JUMPDEST PUSH2 0x97D JUMP JUMPDEST PUSH1 0x40 MLOAD PUSH2 0x222 SWAP2 SWAP1 PUSH2 0x1FC9 JUMP JUMPDEST CALLVALUE DUP1 ISZERO PUSH2 0x397 JUMPI PUSH1 0x0 DUP1 REVERT JUMPDEST POP PUSH2 0x3C2 PUSH2 0x3A6 CALLDATASIZE PUSH1 0x4 PUSH2 0x1EE4 JUMP JUMPDEST PUSH4 0xFFFFFFFF SWAP2 SWAP1 SWAP2 AND PUSH1 0x0 SWAP1 DUP2 MSTORE PUSH1 0x1 PUSH1 0x20 MSTORE PUSH1 0x40 SWAP1 KECCAK256 SLOAD EQ SWAP1 JUMP JUMPDEST PUSH1 0x40 MLOAD SWAP1 ISZERO ISZERO DUP2 MSTORE PUSH1 0x20 ADD PUSH2 0x222 JUMP JUMPDEST CALLVALUE DUP1 ISZERO PUSH2 0x3DE JUMPI PUSH1 0x0 DUP1 REVERT JUMPDEST POP PUSH2 0x24B PUSH32 0x0 DUP2 JUMP JUMPDEST CALLVALUE DUP1 ISZERO PUSH2 0x412 JUMPI PUSH1 0x0 DUP1 REVERT JUMPDEST POP PUSH2 0x276 PUSH2 0x421 CALLDATASIZE PUSH1 0x4 PUSH2 0x1FDC JUMP JUMPDEST PUSH2 0xA22 JUMP JUMPDEST CALLVALUE DUP1 ISZERO PUSH2 0x432 JUMPI PUSH1 0x0 DUP1 REVERT JUMPDEST POP PUSH2 0x276 PUSH2 0xA7F JUMP JUMPDEST CALLVALUE DUP1 ISZERO PUSH2 0x447 JUMPI PUSH1 0x0 DUP1 REVERT JUMPDEST POP PUSH2 0x45E PUSH2 0x456 CALLDATASIZE PUSH1 0x4 PUSH2 0x1EE4 JUMP JUMPDEST PUSH1 0x0 SWAP3 SWAP2 POP POP JUMP JUMPDEST PUSH1 0x40 MLOAD PUSH1 0x1 PUSH1 0x1 PUSH1 0x40 SHL SUB SWAP1 SWAP2 AND DUP2 MSTORE PUSH1 0x20 ADD PUSH2 0x222 JUMP JUMPDEST CALLVALUE DUP1 ISZERO PUSH2 0x482 JUMPI PUSH1 0x0 DUP1 REVERT JUMPDEST POP PUSH2 0x3C2 PUSH2 0x491 CALLDATASIZE PUSH1 0x4 PUSH2 0x1FF9 JUMP JUMPDEST PUSH2 0xA93 JUMP JUMPDEST CALLVALUE DUP1 ISZERO PUSH2 0x4A2 JUMPI PUSH1 0x0 DUP1 REVERT JUMPDEST POP PUSH1 0x40 MLOAD PUSH1 0x6 DUP2 MSTORE PUSH1 0x20 ADD PUSH2 0x222 JUMP JUMPDEST CALLVALUE DUP1 ISZERO PUSH2 0x4BE JUMPI PUSH1 0x0 DUP1 REVERT JUMPDEST POP PUSH1 0x0 SLOAD PUSH1 0x1 PUSH1 0x1 PUSH1 0xA0 SHL SUB AND PUSH2 0x24B JUMP JUMPDEST CALLVALUE DUP1 ISZERO PUSH2 0x4DC JUMPI PUSH1 0x0 DUP1 REVERT JUMPDEST POP PUSH2 0x504 PUSH32 0x0 DUP2 JUMP JUMPDEST PUSH1 0x40 MLOAD SWAP1 DUP2 MSTORE PUSH1 0x20 ADD PUSH2 0x222 JUMP JUMPDEST CALLVALUE DUP1 ISZERO PUSH2 0x51E JUMPI PUSH1 0x0 DUP1 REVERT JUMPDEST POP PUSH1 0x1 PUSH2 0x3C2 JUMP JUMPDEST CALLVALUE DUP1 ISZERO PUSH2 0x532 JUMPI PUSH1 0x0 DUP1 REVERT JUMPDEST POP PUSH1 0x2 SLOAD PUSH2 0x24B SWAP1 PUSH1 0x1 PUSH1 0x1 PUSH1 0xA0 SHL SUB AND DUP2 JUMP JUMPDEST CALLVALUE DUP1 ISZERO PUSH2 0x552 JUMPI PUSH1 0x0 DUP1 REVERT JUMPDEST POP PUSH2 0x276 PUSH2 0x561 CALLDATASIZE PUSH1 0x4 PUSH2 0x20A3 JUMP JUMPDEST PUSH2 0xAA8 JUMP JUMPDEST CALLVALUE DUP1 ISZERO PUSH2 0x572 JUMPI PUSH1 0x0 DUP1 REVERT JUMPDEST POP PUSH2 0x504 PUSH2 0x581 CALLDATASIZE PUSH1 0x4 PUSH2 0x20E4 JUMP JUMPDEST PUSH1 0x1 PUSH1 0x20 MSTORE PUSH1 0x0 SWAP1 DUP2 MSTORE PUSH1 0x40 SWAP1 KECCAK256 SLOAD DUP2 JUMP JUMPDEST CALLVALUE DUP1 ISZERO PUSH2 0x59F JUMPI PUSH1 0x0 DUP1 REVERT JUMPDEST POP PUSH2 0x37E PUSH2 0x5AE CALLDATASIZE PUSH1 0x4 PUSH2 0x20FF JUMP JUMPDEST PUSH2 0xAC2 JUMP JUMPDEST PUSH2 0x276 PUSH2 0x5C1 CALLDATASIZE PUSH1 0x4 PUSH2 0x20A3 JUMP JUMPDEST PUSH2 0xC6A JUMP JUMPDEST PUSH2 0x5D9 PUSH2 0x5D4 CALLDATASIZE PUSH1 0x4 PUSH2 0x215F JUMP JUMPDEST PUSH2 0xDF4 JUMP JUMPDEST PUSH1 0x40 MLOAD PUSH2 0x222 SWAP3 SWAP2 SWAP1 PUSH2 0x21CC JUMP JUMPDEST CALLVALUE DUP1 ISZERO PUSH2 0x5F3 JUMPI PUSH1 0x0 DUP1 REVERT JUMPDEST POP PUSH2 0x276 PUSH2 0x602 CALLDATASIZE PUSH1 0x4 PUSH2 0x1FDC JUMP JUMPDEST PUSH2 0xE28 JUMP JUMPDEST PUSH2 0x276 PUSH2 0x615 CALLDATASIZE PUSH1 0x4 PUSH2 0x1E2C JUMP JUMPDEST PUSH2 0xEAE JUMP JUMPDEST CALLVALUE DUP1 ISZERO PUSH2 0x626 JUMPI PUSH1 0x0 DUP1 REVERT JUMPDEST POP PUSH2 0x276 PUSH2 0x635 CALLDATASIZE PUSH1 0x4 PUSH2 0x1FDC JUMP JUMPDEST PUSH2 0xEDD JUMP JUMPDEST CALLVALUE DUP1 ISZERO PUSH2 0x646 JUMPI PUSH1 0x0 DUP1 REVERT JUMPDEST POP PUSH2 0x276 PUSH2 0x655 CALLDATASIZE PUSH1 0x4 PUSH2 0x1FDC JUMP JUMPDEST PUSH2 0xF33 JUMP JUMPDEST CALLVALUE DUP1 ISZERO PUSH2 0x666 JUMPI PUSH1 0x0 DUP1 REVERT JUMPDEST POP PUSH32 0x0 PUSH2 0x24B JUMP JUMPDEST CALLVALUE DUP1 ISZERO PUSH2 0x699 JUMPI PUSH1 0x0 DUP1 REVERT JUMPDEST POP PUSH2 0x3C2 PUSH2 0x6A8 CALLDATASIZE PUSH1 0x4 PUSH2 0x221E JUMP JUMPDEST PUSH2 0xF71 JUMP JUMPDEST PUSH1 0x40 DUP1 MLOAD DUP1 DUP3 ADD SWAP1 SWAP2 MSTORE PUSH1 0x0 DUP1 DUP3 MSTORE PUSH1 0x20 DUP3 ADD MSTORE PUSH1 0x60 PUSH2 0x6E0 PUSH1 0x40 MLOAD DUP1 PUSH1 0x40 ADD PUSH1 0x40 MSTORE DUP1 PUSH1 0x0 DUP2 MSTORE PUSH1 0x20 ADD PUSH1 0x0 DUP2 MSTORE POP SWAP1 JUMP JUMPDEST PUSH1 0x0 DUP1 ADDRESS PUSH1 0x1 PUSH1 0x1 PUSH1 0xA0 SHL SUB AND PUSH4 0xFC0C546A PUSH1 0x40 MLOAD DUP2 PUSH4 0xFFFFFFFF AND PUSH1 0xE0 SHL DUP2 MSTORE PUSH1 0x4 ADD PUSH1 0x20 PUSH1 0x40 MLOAD DUP1 DUP4 SUB DUP2 DUP7 GAS STATICCALL ISZERO DUP1 ISZERO PUSH2 0x721 JUMPI RETURNDATASIZE PUSH1 0x0 DUP1 RETURNDATACOPY RETURNDATASIZE PUSH1 0x0 REVERT JUMPDEST POP POP POP POP PUSH1 0x40 MLOAD RETURNDATASIZE PUSH1 0x1F NOT PUSH1 0x1F DUP3 ADD AND DUP3 ADD DUP1 PUSH1 0x40 MSTORE POP DUP2 ADD SWAP1 PUSH2 0x745 SWAP2 SWAP1 PUSH2 0x223A JUMP JUMPDEST PUSH1 0x1 PUSH1 0x1 PUSH1 0xA0 SHL SUB AND PUSH4 0x18160DDD PUSH1 0x40 MLOAD DUP2 PUSH4 0xFFFFFFFF AND PUSH1 0xE0 SHL DUP2 MSTORE PUSH1 0x4 ADD PUSH1 0x20 PUSH1 0x40 MLOAD DUP1 DUP4 SUB DUP2 DUP7 GAS STATICCALL ISZERO DUP1 ISZERO PUSH2 0x782 JUMPI RETURNDATASIZE PUSH1 0x0 DUP1 RETURNDATACOPY RETURNDATASIZE PUSH1 0x0 REVERT JUMPDEST POP POP POP POP PUSH1 0x40 MLOAD RETURNDATASIZE PUSH1 0x1F NOT PUSH1 0x1F DUP3 ADD AND DUP3 ADD DUP1 PUSH1 0x40 MSTORE POP DUP2 ADD SWAP1 PUSH2 0x7A6 SWAP2 SWAP1 PUSH2 0x2257 JUMP JUMPDEST PUSH1 0x40 DUP1 MLOAD DUP1 DUP3 ADD DUP3 MSTORE DUP5 DUP2 MSTORE PUSH1 0x20 DUP1 DUP3 ADD DUP5 SWAP1 MSTORE DUP3 MLOAD PUSH1 0x0 DUP1 DUP3 MSTORE SWAP2 DUP2 ADD SWAP1 SWAP4 MSTORE SWAP1 SWAP8 POP SWAP2 SWAP3 POP SWAP1 PUSH2 0x7FB JUMP JUMPDEST PUSH1 0x40 DUP1 MLOAD DUP1 DUP3 ADD SWAP1 SWAP2 MSTORE PUSH1 0x0 DUP2 MSTORE PUSH1 0x60 PUSH1 0x20 DUP3 ADD MSTORE DUP2 MSTORE PUSH1 0x20 ADD SWAP1 PUSH1 0x1 SWAP1 SUB SWAP1 DUP2 PUSH2 0x7D3 JUMPI SWAP1 POP JUMPDEST POP SWAP4 POP PUSH1 0x0 DUP1 PUSH2 0x820 PUSH1 0x40 DUP10 ADD CALLDATALOAD PUSH1 0x60 DUP11 ADD CALLDATALOAD PUSH2 0x81B PUSH1 0x20 DUP13 ADD DUP13 PUSH2 0x20E4 JUMP JUMPDEST PUSH2 0xFA7 JUMP JUMPDEST PUSH1 0x40 DUP1 MLOAD DUP1 DUP3 ADD SWAP1 SWAP2 MSTORE SWAP2 DUP3 MSTORE PUSH1 0x20 DUP3 ADD MSTORE SWAP7 SWAP9 SWAP6 SWAP8 POP POP POP POP POP POP JUMP JUMPDEST PUSH32 0x0 PUSH1 0x1 PUSH1 0x1 PUSH1 0xA0 SHL SUB AND CALLER EQ PUSH2 0x88E JUMPI PUSH1 0x40 MLOAD PUSH4 0x91AC5E4F PUSH1 0xE0 SHL DUP2 MSTORE CALLER PUSH1 0x4 DUP3 ADD MSTORE PUSH1 0x24 ADD JUMPDEST PUSH1 0x40 MLOAD DUP1 SWAP2 SUB SWAP1 REVERT JUMPDEST PUSH1 0x20 DUP8 ADD DUP1 CALLDATALOAD SWAP1 PUSH2 0x8A8 SWAP1 PUSH2 0x8A3 SWAP1 DUP11 PUSH2 0x20E4 JUMP JUMPDEST PUSH2 0xFE3 JUMP JUMPDEST EQ PUSH2 0x8E6 JUMPI PUSH2 0x8BA PUSH1 0x20 DUP9 ADD DUP9 PUSH2 0x20E4 JUMP JUMPDEST PUSH1 0x40 MLOAD PUSH4 0x309AFAF3 PUSH1 0xE2 SHL DUP2 MSTORE PUSH4 0xFFFFFFFF SWAP1 SWAP2 AND PUSH1 0x4 DUP3 ADD MSTORE PUSH1 0x20 DUP9 ADD CALLDATALOAD PUSH1 0x24 DUP3 ADD MSTORE PUSH1 0x44 ADD PUSH2 0x885 JUMP JUMPDEST PUSH2 0x8F5 DUP8 DUP8 DUP8 DUP8 DUP8 DUP8 DUP8 PUSH2 0x101F JUMP JUMPDEST POP POP POP POP POP POP POP JUMP JUMPDEST PUSH2 0x906 PUSH2 0x1186 JUMP JUMPDEST PUSH2 0x910 DUP3 DUP3 PUSH2 0x11B3 JUMP JUMPDEST POP POP JUMP JUMPDEST PUSH1 0x40 DUP1 MLOAD DUP1 DUP3 ADD SWAP1 SWAP2 MSTORE PUSH1 0x0 DUP1 DUP3 MSTORE PUSH1 0x20 DUP3 ADD MSTORE PUSH1 0x0 PUSH2 0x944 PUSH1 0x40 DUP6 ADD CALLDATALOAD PUSH1 0x60 DUP7 ADD CALLDATALOAD PUSH2 0x81B PUSH1 0x20 DUP9 ADD DUP9 PUSH2 0x20E4 JUMP JUMPDEST SWAP2 POP POP PUSH1 0x0 DUP1 PUSH2 0x954 DUP7 DUP5 PUSH2 0x1208 JUMP JUMPDEST SWAP1 SWAP3 POP SWAP1 POP PUSH2 0x971 PUSH2 0x969 PUSH1 0x20 DUP9 ADD DUP9 PUSH2 0x20E4 JUMP JUMPDEST DUP4 DUP4 DUP9 PUSH2 0x132B JUMP JUMPDEST SWAP4 POP POP POP POP JUMPDEST SWAP3 SWAP2 POP POP JUMP JUMPDEST PUSH1 0x3 PUSH1 0x20 SWAP1 DUP2 MSTORE PUSH1 0x0 SWAP3 DUP4 MSTORE PUSH1 0x40 DUP1 DUP5 KECCAK256 SWAP1 SWAP2 MSTORE SWAP1 DUP3 MSTORE SWAP1 KECCAK256 DUP1 SLOAD PUSH2 0x9A1 SWAP1 PUSH2 0x2286 JUMP JUMPDEST DUP1 PUSH1 0x1F ADD PUSH1 0x20 DUP1 SWAP2 DIV MUL PUSH1 0x20 ADD PUSH1 0x40 MLOAD SWAP1 DUP2 ADD PUSH1 0x40 MSTORE DUP1 SWAP3 SWAP2 SWAP1 DUP2 DUP2 MSTORE PUSH1 0x20 ADD DUP3 DUP1 SLOAD PUSH2 0x9CD SWAP1 PUSH2 0x2286 JUMP JUMPDEST DUP1 ISZERO PUSH2 0xA1A JUMPI DUP1 PUSH1 0x1F LT PUSH2 0x9EF JUMPI PUSH2 0x100 DUP1 DUP4 SLOAD DIV MUL DUP4 MSTORE SWAP2 PUSH1 0x20 ADD SWAP2 PUSH2 0xA1A JUMP JUMPDEST DUP3 ADD SWAP2 SWAP1 PUSH1 0x0 MSTORE PUSH1 0x20 PUSH1 0x0 KECCAK256 SWAP1 JUMPDEST DUP2 SLOAD DUP2 MSTORE SWAP1 PUSH1 0x1 ADD SWAP1 PUSH1 0x20 ADD DUP1 DUP4 GT PUSH2 0x9FD JUMPI DUP3 SWAP1 SUB PUSH1 0x1F AND DUP3 ADD SWAP2 JUMPDEST POP POP POP POP POP DUP2 JUMP JUMPDEST PUSH2 0xA2A PUSH2 0x1186 JUMP JUMPDEST PUSH1 0x4 DUP1 SLOAD PUSH1 0x1 PUSH1 0x1 PUSH1 0xA0 SHL SUB NOT AND PUSH1 0x1 PUSH1 0x1 PUSH1 0xA0 SHL SUB DUP4 AND SWAP1 DUP2 OR SWAP1 SWAP2 SSTORE PUSH1 0x40 MLOAD SWAP1 DUP2 MSTORE PUSH32 0xF0BE4F1E87349231D80C36B33F9E8639658EEAF474014DEE15A3E6A4D4414197 SWAP1 PUSH1 0x20 ADD JUMPDEST PUSH1 0x40 MLOAD DUP1 SWAP2 SUB SWAP1 LOG1 POP JUMP JUMPDEST PUSH2 0xA87 PUSH2 0x1186 JUMP JUMPDEST PUSH2 0xA91 PUSH1 0x0 PUSH2 0x140C JUMP JUMPDEST JUMP JUMPDEST PUSH1 0x1 PUSH1 0x1 PUSH1 0xA0 SHL SUB DUP2 AND ADDRESS EQ JUMPDEST SWAP5 SWAP4 POP POP POP POP JUMP JUMPDEST PUSH2 0xAB0 PUSH2 0x1186 JUMP JUMPDEST PUSH2 0x910 PUSH2 0xABD DUP3 DUP5 PUSH2 0x235B JUMP JUMPDEST PUSH2 0x145C JUMP JUMPDEST PUSH4 0xFFFFFFFF DUP5 AND PUSH1 0x0 SWAP1 DUP2 MSTORE PUSH1 0x3 PUSH1 0x20 SWAP1 DUP2 MSTORE PUSH1 0x40 DUP1 DUP4 KECCAK256 PUSH2 0xFFFF DUP8 AND DUP5 MSTORE SWAP1 SWAP2 MSTORE DUP2 KECCAK256 DUP1 SLOAD PUSH1 0x60 SWAP3 SWAP2 SWAP1 PUSH2 0xAF6 SWAP1 PUSH2 0x2286 JUMP JUMPDEST DUP1 PUSH1 0x1F ADD PUSH1 0x20 DUP1 SWAP2 DIV MUL PUSH1 0x20 ADD PUSH1 0x40 MLOAD SWAP1 DUP2 ADD PUSH1 0x40 MSTORE DUP1 SWAP3 SWAP2 SWAP1 DUP2 DUP2 MSTORE PUSH1 0x20 ADD DUP3 DUP1 SLOAD PUSH2 0xB22 SWAP1 PUSH2 0x2286 JUMP JUMPDEST DUP1 ISZERO PUSH2 0xB6F JUMPI DUP1 PUSH1 0x1F LT PUSH2 0xB44 JUMPI PUSH2 0x100 DUP1 DUP4 SLOAD DIV MUL DUP4 MSTORE SWAP2 PUSH1 0x20 ADD SWAP2 PUSH2 0xB6F JUMP JUMPDEST DUP3 ADD SWAP2 SWAP1 PUSH1 0x0 MSTORE PUSH1 0x20 PUSH1 0x0 KECCAK256 SWAP1 JUMPDEST DUP2 SLOAD DUP2 MSTORE SWAP1 PUSH1 0x1 ADD SWAP1 PUSH1 0x20 ADD DUP1 DUP4 GT PUSH2 0xB52 JUMPI DUP3 SWAP1 SUB PUSH1 0x1F AND DUP3 ADD SWAP2 JUMPDEST POP POP POP POP POP SWAP1 POP DUP1 MLOAD PUSH1 0x0 SUB PUSH2 0xBBF JUMPI DUP4 DUP4 DUP1 DUP1 PUSH1 0x1F ADD PUSH1 0x20 DUP1 SWAP2 DIV MUL PUSH1 0x20 ADD PUSH1 0x40 MLOAD SWAP1 DUP2 ADD PUSH1 0x40 MSTORE DUP1 SWAP4 SWAP3 SWAP2 SWAP1 DUP2 DUP2 MSTORE PUSH1 0x20 ADD DUP4 DUP4 DUP1 DUP3 DUP5 CALLDATACOPY PUSH1 0x0 SWAP3 ADD SWAP2 SWAP1 SWAP2 MSTORE POP SWAP3 SWAP5 POP PUSH2 0xAA0 SWAP4 POP POP POP POP JUMP JUMPDEST PUSH1 0x0 DUP4 SWAP1 SUB PUSH2 0xBCF JUMPI SWAP1 POP PUSH2 0xAA0 JUMP JUMPDEST PUSH1 0x2 DUP4 LT PUSH2 0xC4D JUMPI PUSH2 0xC16 DUP5 DUP5 DUP1 DUP1 PUSH1 0x1F ADD PUSH1 0x20 DUP1 SWAP2 DIV MUL PUSH1 0x20 ADD PUSH1 0x40 MLOAD SWAP1 DUP2 ADD PUSH1 0x40 MSTORE DUP1 SWAP4 SWAP3 SWAP2 SWAP1 DUP2 DUP2 MSTORE PUSH1 0x20 ADD DUP4 DUP4 DUP1 DUP3 DUP5 CALLDATACOPY PUSH1 0x0 SWAP3 ADD SWAP2 SWAP1 SWAP2 MSTORE POP PUSH2 0x1563 SWAP3 POP POP POP JUMP JUMPDEST DUP1 PUSH2 0xC24 DUP5 PUSH1 0x2 DUP2 DUP9 PUSH2 0x2470 JUMP JUMPDEST PUSH1 0x40 MLOAD PUSH1 0x20 ADD PUSH2 0xC36 SWAP4 SWAP3 SWAP2 SWAP1 PUSH2 0x249A JUMP JUMPDEST PUSH1 0x40 MLOAD PUSH1 0x20 DUP2 DUP4 SUB SUB DUP2 MSTORE SWAP1 PUSH1 0x40 MSTORE SWAP2 POP POP PUSH2 0xAA0 JUMP JUMPDEST DUP4 DUP4 PUSH1 0x40 MLOAD PUSH4 0x9A6D49CD PUSH1 0xE0 SHL DUP2 MSTORE PUSH1 0x4 ADD PUSH2 0x885 SWAP3 SWAP2 SWAP1 PUSH2 0x24EB JUMP JUMPDEST PUSH1 0x0 JUMPDEST DUP2 DUP2 LT ISZERO PUSH2 0xD73 JUMPI CALLDATASIZE DUP4 DUP4 DUP4 DUP2 DUP2 LT PUSH2 0xC88 JUMPI PUSH2 0xC88 PUSH2 0x24FF JUMP JUMPDEST SWAP1 POP PUSH1 0x20 MUL DUP2 ADD SWAP1 PUSH2 0xC9A SWAP2 SWAP1 PUSH2 0x2515 JUMP JUMPDEST SWAP1 POP PUSH2 0xCCD PUSH2 0xCAC PUSH1 0x20 DUP4 ADD DUP4 PUSH2 0x20E4 JUMP JUMPDEST PUSH1 0x20 DUP4 ADD CALLDATALOAD PUSH4 0xFFFFFFFF SWAP2 SWAP1 SWAP2 AND PUSH1 0x0 SWAP1 DUP2 MSTORE PUSH1 0x1 PUSH1 0x20 MSTORE PUSH1 0x40 SWAP1 KECCAK256 SLOAD EQ SWAP1 JUMP JUMPDEST PUSH2 0xCD7 JUMPI POP PUSH2 0xD6B JUMP JUMPDEST ADDRESS PUSH4 0xD045A0DC PUSH1 0xC0 DUP4 ADD CALLDATALOAD DUP4 PUSH1 0xA0 DUP2 ADD CALLDATALOAD PUSH2 0xCF6 PUSH2 0x100 DUP4 ADD DUP4 PUSH2 0x2536 JUMP JUMPDEST PUSH2 0xD07 PUSH2 0x100 DUP10 ADD PUSH1 0xE0 DUP11 ADD PUSH2 0x1FDC JUMP JUMPDEST PUSH2 0xD15 PUSH2 0x120 DUP11 ADD DUP11 PUSH2 0x2536 JUMP JUMPDEST PUSH1 0x40 MLOAD DUP10 PUSH4 0xFFFFFFFF AND PUSH1 0xE0 SHL DUP2 MSTORE PUSH1 0x4 ADD PUSH2 0xD37 SWAP8 SWAP7 SWAP6 SWAP5 SWAP4 SWAP3 SWAP2 SWAP1 PUSH2 0x2591 JUMP JUMPDEST PUSH1 0x0 PUSH1 0x40 MLOAD DUP1 DUP4 SUB DUP2 DUP6 DUP9 DUP1 EXTCODESIZE ISZERO DUP1 ISZERO PUSH2 0xD50 JUMPI PUSH1 0x0 DUP1 REVERT JUMPDEST POP GAS CALL ISZERO DUP1 ISZERO PUSH2 0xD64 JUMPI RETURNDATASIZE PUSH1 0x0 DUP1 RETURNDATACOPY RETURNDATASIZE PUSH1 0x0 REVERT JUMPDEST POP POP POP POP POP POP JUMPDEST PUSH1 0x1 ADD PUSH2 0xC6D JUMP JUMPDEST POP CALLER PUSH1 0x1 PUSH1 0x1 PUSH1 0xA0 SHL SUB AND PUSH4 0x8E9E7099 PUSH1 0x40 MLOAD DUP2 PUSH4 0xFFFFFFFF AND PUSH1 0xE0 SHL DUP2 MSTORE PUSH1 0x4 ADD PUSH1 0x0 PUSH1 0x40 MLOAD DUP1 DUP4 SUB DUP2 DUP7 GAS STATICCALL ISZERO DUP1 ISZERO PUSH2 0xDB2 JUMPI RETURNDATASIZE PUSH1 0x0 DUP1 RETURNDATACOPY RETURNDATASIZE PUSH1 0x0 REVERT JUMPDEST POP POP POP POP PUSH1 0x40 MLOAD RETURNDATASIZE PUSH1 0x0 DUP3 RETURNDATACOPY PUSH1 0x1F RETURNDATASIZE SWAP1 DUP2 ADD PUSH1 0x1F NOT AND DUP3 ADD PUSH1 0x40 MSTORE PUSH2 0xDDA SWAP2 SWAP1 DUP2 ADD SWAP1 PUSH2 0x2617 JUMP JUMPDEST PUSH1 0x40 MLOAD PUSH4 0x8351EEA7 PUSH1 0xE0 SHL DUP2 MSTORE PUSH1 0x4 ADD PUSH2 0x885 SWAP2 SWAP1 PUSH2 0x1FC9 JUMP JUMPDEST PUSH2 0xDFC PUSH2 0x1C41 JUMP JUMPDEST PUSH1 0x40 DUP1 MLOAD DUP1 DUP3 ADD SWAP1 SWAP2 MSTORE PUSH1 0x0 DUP1 DUP3 MSTORE PUSH1 0x20 DUP3 ADD MSTORE PUSH2 0xE1B DUP6 DUP6 DUP6 PUSH2 0x158F JUMP JUMPDEST SWAP2 POP SWAP2 POP JUMPDEST SWAP4 POP SWAP4 SWAP2 POP POP JUMP JUMPDEST PUSH2 0xE30 PUSH2 0x1186 JUMP JUMPDEST PUSH1 0x40 MLOAD PUSH4 0xCA5EB5E1 PUSH1 0xE0 SHL DUP2 MSTORE PUSH1 0x1 PUSH1 0x1 PUSH1 0xA0 SHL SUB DUP3 DUP2 AND PUSH1 0x4 DUP4 ADD MSTORE PUSH32 0x0 AND SWAP1 PUSH4 0xCA5EB5E1 SWAP1 PUSH1 0x24 ADD PUSH1 0x0 PUSH1 0x40 MLOAD DUP1 DUP4 SUB DUP2 PUSH1 0x0 DUP8 DUP1 EXTCODESIZE ISZERO DUP1 ISZERO PUSH2 0xE93 JUMPI PUSH1 0x0 DUP1 REVERT JUMPDEST POP GAS CALL ISZERO DUP1 ISZERO PUSH2 0xEA7 JUMPI RETURNDATASIZE PUSH1 0x0 DUP1 RETURNDATACOPY RETURNDATASIZE PUSH1 0x0 REVERT JUMPDEST POP POP POP POP POP JUMP JUMPDEST CALLER ADDRESS EQ PUSH2 0xECE JUMPI PUSH1 0x40 MLOAD PUSH4 0x29A949D PUSH1 0xE3 SHL DUP2 MSTORE PUSH1 0x4 ADD PUSH1 0x40 MLOAD DUP1 SWAP2 SUB SWAP1 REVERT JUMPDEST PUSH2 0x8F5 DUP8 DUP8 DUP8 DUP8 DUP8 DUP8 DUP8 PUSH2 0x8E6 JUMP JUMPDEST PUSH2 0xEE5 PUSH2 0x1186 JUMP JUMPDEST PUSH1 0x2 DUP1 SLOAD PUSH1 0x1 PUSH1 0x1 PUSH1 0xA0 SHL SUB NOT AND PUSH1 0x1 PUSH1 0x1 PUSH1 0xA0 SHL SUB DUP4 AND SWAP1 DUP2 OR SWAP1 SWAP2 SSTORE PUSH1 0x40 MLOAD SWAP1 DUP2 MSTORE PUSH32 0xD48D879CEF83A1C0BDDA516F27B13DDB1B3F8BBAC1C9E1511BB2A659C2427760 SWAP1 PUSH1 0x20 ADD PUSH2 0xA74 JUMP JUMPDEST PUSH2 0xF3B PUSH2 0x1186 JUMP JUMPDEST PUSH1 0x1 PUSH1 0x1 PUSH1 0xA0 SHL SUB DUP2 AND PUSH2 0xF65 JUMPI PUSH1 0x40 MLOAD PUSH4 0x1E4FBDF7 PUSH1 0xE0 SHL DUP2 MSTORE PUSH1 0x0 PUSH1 0x4 DUP3 ADD MSTORE PUSH1 0x24 ADD PUSH2 0x885 JUMP JUMPDEST PUSH2 0xF6E DUP2 PUSH2 0x140C JUMP JUMPDEST POP JUMP JUMPDEST PUSH1 0x0 PUSH1 0x20 DUP3 ADD DUP1 CALLDATALOAD SWAP1 PUSH1 0x1 SWAP1 DUP4 SWAP1 PUSH2 0xF89 SWAP1 DUP7 PUSH2 0x20E4 JUMP JUMPDEST PUSH4 0xFFFFFFFF AND DUP2 MSTORE PUSH1 0x20 DUP2 ADD SWAP2 SWAP1 SWAP2 MSTORE PUSH1 0x40 ADD PUSH1 0x0 KECCAK256 SLOAD EQ SWAP3 SWAP2 POP POP JUMP JUMPDEST PUSH1 0x0 DUP1 PUSH2 0xFB3 DUP6 PUSH2 0x168A JUMP JUMPDEST SWAP2 POP DUP2 SWAP1 POP DUP4 DUP2 LT ISZERO PUSH2 0xE20 JUMPI PUSH1 0x40 MLOAD PUSH4 0x71C4EFED PUSH1 0xE0 SHL DUP2 MSTORE PUSH1 0x4 DUP2 ADD DUP3 SWAP1 MSTORE PUSH1 0x24 DUP2 ADD DUP6 SWAP1 MSTORE PUSH1 0x44 ADD PUSH2 0x885 JUMP JUMPDEST PUSH4 0xFFFFFFFF DUP2 AND PUSH1 0x0 SWAP1 DUP2 MSTORE PUSH1 0x1 PUSH1 0x20 MSTORE PUSH1 0x40 DUP2 KECCAK256 SLOAD DUP1 PUSH2 0x977 JUMPI PUSH1 0x40 MLOAD PUSH4 0xF6FF4FB7 PUSH1 0xE0 SHL DUP2 MSTORE PUSH4 0xFFFFFFFF DUP5 AND PUSH1 0x4 DUP3 ADD MSTORE PUSH1 0x24 ADD PUSH2 0x885 JUMP JUMPDEST PUSH1 0x0 PUSH2 0x1031 PUSH2 0x102E DUP8 DUP8 PUSH2 0x16C1 JUMP JUMPDEST SWAP1 JUMP JUMPDEST SWAP1 POP PUSH1 0x0 PUSH2 0x105D DUP3 PUSH2 0x104B PUSH2 0x1046 DUP11 DUP11 PUSH2 0x16E0 JUMP JUMPDEST PUSH2 0x1703 JUMP JUMPDEST PUSH2 0x1058 PUSH1 0x20 DUP14 ADD DUP14 PUSH2 0x20E4 JUMP JUMPDEST PUSH2 0x1738 JUMP JUMPDEST SWAP1 POP PUSH1 0x28 DUP7 GT ISZERO PUSH2 0x1124 JUMPI PUSH1 0x0 PUSH2 0x109A PUSH2 0x107D PUSH1 0x60 DUP13 ADD PUSH1 0x40 DUP14 ADD PUSH2 0x2684 JUMP JUMPDEST PUSH2 0x108A PUSH1 0x20 DUP14 ADD DUP14 PUSH2 0x20E4 JUMP JUMPDEST DUP5 PUSH2 0x1095 DUP13 DUP13 PUSH2 0x1776 JUMP JUMPDEST PUSH2 0x17C1 JUMP JUMPDEST PUSH1 0x40 MLOAD PUSH4 0x3E5AC809 PUSH1 0xE1 SHL DUP2 MSTORE SWAP1 SWAP2 POP PUSH1 0x1 PUSH1 0x1 PUSH1 0xA0 SHL SUB PUSH32 0x0 AND SWAP1 PUSH4 0x7CB59012 SWAP1 PUSH2 0x10F0 SWAP1 DUP7 SWAP1 DUP14 SWAP1 PUSH1 0x0 SWAP1 DUP8 SWAP1 PUSH1 0x4 ADD PUSH2 0x26A1 JUMP JUMPDEST PUSH1 0x0 PUSH1 0x40 MLOAD DUP1 DUP4 SUB DUP2 PUSH1 0x0 DUP8 DUP1 EXTCODESIZE ISZERO DUP1 ISZERO PUSH2 0x110A JUMPI PUSH1 0x0 DUP1 REVERT JUMPDEST POP GAS CALL ISZERO DUP1 ISZERO PUSH2 0x111E JUMPI RETURNDATASIZE PUSH1 0x0 DUP1 RETURNDATACOPY RETURNDATASIZE PUSH1 0x0 REVERT JUMPDEST POP POP POP POP POP JUMPDEST PUSH1 0x1 PUSH1 0x1 PUSH1 0xA0 SHL SUB DUP3 AND DUP9 PUSH32 0xEFED6D3500546B29533B128A29E3A94D70788727F0507505AC12EAF2E578FD9C PUSH2 0x115D PUSH1 0x20 DUP14 ADD DUP14 PUSH2 0x20E4 JUMP JUMPDEST PUSH1 0x40 DUP1 MLOAD PUSH4 0xFFFFFFFF SWAP1 SWAP3 AND DUP3 MSTORE PUSH1 0x20 DUP3 ADD DUP7 SWAP1 MSTORE ADD PUSH1 0x40 MLOAD DUP1 SWAP2 SUB SWAP1 LOG3 POP POP POP POP POP POP POP POP POP JUMP JUMPDEST PUSH1 0x0 SLOAD PUSH1 0x1 PUSH1 0x1 PUSH1 0xA0 SHL SUB AND CALLER EQ PUSH2 0xA91 JUMPI PUSH1 0x40 MLOAD PUSH4 0x118CDAA7 PUSH1 0xE0 SHL DUP2 MSTORE CALLER PUSH1 0x4 DUP3 ADD MSTORE PUSH1 0x24 ADD PUSH2 0x885 JUMP JUMPDEST PUSH4 0xFFFFFFFF DUP3 AND PUSH1 0x0 DUP2 DUP2 MSTORE PUSH1 0x1 PUSH1 0x20 SWAP1 DUP2 MSTORE PUSH1 0x40 SWAP2 DUP3 SWAP1 KECCAK256 DUP5 SWAP1 SSTORE DUP2 MLOAD SWAP3 DUP4 MSTORE DUP3 ADD DUP4 SWAP1 MSTORE PUSH32 0x238399D427B947898EDB290F5FF0F9109849B1C3BA196A42E35F00C50A54B98B SWAP2 ADD PUSH1 0x40 MLOAD DUP1 SWAP2 SUB SWAP1 LOG1 POP POP JUMP JUMPDEST PUSH1 0x60 DUP1 PUSH1 0x0 PUSH2 0x1265 DUP6 PUSH1 0x20 ADD CALLDATALOAD PUSH2 0x121E DUP7 PUSH2 0x17F3 JUMP JUMPDEST PUSH2 0x122B PUSH1 0xA0 DUP10 ADD DUP10 PUSH2 0x2536 JUMP JUMPDEST DUP1 DUP1 PUSH1 0x1F ADD PUSH1 0x20 DUP1 SWAP2 DIV MUL PUSH1 0x20 ADD PUSH1 0x40 MLOAD SWAP1 DUP2 ADD PUSH1 0x40 MSTORE DUP1 SWAP4 SWAP3 SWAP2 SWAP1 DUP2 DUP2 MSTORE PUSH1 0x20 ADD DUP4 DUP4 DUP1 DUP3 DUP5 CALLDATACOPY PUSH1 0x0 SWAP3 ADD SWAP2 SWAP1 SWAP2 MSTORE POP PUSH2 0x184D SWAP3 POP POP POP JUMP JUMPDEST SWAP1 SWAP4 POP SWAP1 POP PUSH1 0x0 DUP2 PUSH2 0x1278 JUMPI PUSH1 0x1 PUSH2 0x127B JUMP JUMPDEST PUSH1 0x2 JUMPDEST SWAP1 POP PUSH2 0x129B PUSH2 0x128D PUSH1 0x20 DUP9 ADD DUP9 PUSH2 0x20E4 JUMP JUMPDEST DUP3 PUSH2 0x5AE PUSH1 0x80 DUP11 ADD DUP11 PUSH2 0x2536 JUMP JUMPDEST PUSH1 0x4 SLOAD SWAP1 SWAP4 POP PUSH1 0x1 PUSH1 0x1 PUSH1 0xA0 SHL SUB AND DUP1 ISZERO PUSH2 0x1321 JUMPI PUSH1 0x40 MLOAD PUSH4 0x43A78EB PUSH1 0xE0 SHL DUP2 MSTORE PUSH1 0x1 PUSH1 0x1 PUSH1 0xA0 SHL SUB DUP3 AND SWAP1 PUSH4 0x43A78EB SWAP1 PUSH2 0x12DE SWAP1 DUP9 SWAP1 DUP9 SWAP1 PUSH1 0x4 ADD PUSH2 0x26DC JUMP JUMPDEST PUSH1 0x20 PUSH1 0x40 MLOAD DUP1 DUP4 SUB DUP2 DUP7 GAS STATICCALL ISZERO DUP1 ISZERO PUSH2 0x12FB JUMPI RETURNDATASIZE PUSH1 0x0 DUP1 RETURNDATACOPY RETURNDATASIZE PUSH1 0x0 REVERT JUMPDEST POP POP POP POP PUSH1 0x40 MLOAD RETURNDATASIZE PUSH1 0x1F NOT PUSH1 0x1F DUP3 ADD AND DUP3 ADD DUP1 PUSH1 0x40 MSTORE POP DUP2 ADD SWAP1 PUSH2 0x131F SWAP2 SWAP1 PUSH2 0x2701 JUMP JUMPDEST POP JUMPDEST POP POP POP SWAP3 POP SWAP3 SWAP1 POP JUMP JUMPDEST PUSH1 0x40 DUP1 MLOAD DUP1 DUP3 ADD SWAP1 SWAP2 MSTORE PUSH1 0x0 DUP1 DUP3 MSTORE PUSH1 0x20 DUP3 ADD MSTORE PUSH32 0x0 PUSH1 0x1 PUSH1 0x1 PUSH1 0xA0 SHL SUB AND PUSH4 0xDDC28C58 PUSH1 0x40 MLOAD DUP1 PUSH1 0xA0 ADD PUSH1 0x40 MSTORE DUP1 DUP9 PUSH4 0xFFFFFFFF AND DUP2 MSTORE PUSH1 0x20 ADD PUSH2 0x138E DUP10 PUSH2 0xFE3 JUMP JUMPDEST DUP2 MSTORE PUSH1 0x20 ADD DUP8 DUP2 MSTORE PUSH1 0x20 ADD DUP7 DUP2 MSTORE PUSH1 0x20 ADD DUP6 ISZERO ISZERO DUP2 MSTORE POP ADDRESS PUSH1 0x40 MLOAD DUP4 PUSH4 0xFFFFFFFF AND PUSH1 0xE0 SHL DUP2 MSTORE PUSH1 0x4 ADD PUSH2 0x13C3 SWAP3 SWAP2 SWAP1 PUSH2 0x271E JUMP JUMPDEST PUSH1 0x40 DUP1 MLOAD DUP1 DUP4 SUB DUP2 DUP7 GAS STATICCALL ISZERO DUP1 ISZERO PUSH2 0x13DF JUMPI RETURNDATASIZE PUSH1 0x0 DUP1 RETURNDATACOPY RETURNDATASIZE PUSH1 0x0 REVERT JUMPDEST POP POP POP POP PUSH1 0x40 MLOAD RETURNDATASIZE PUSH1 0x1F NOT PUSH1 0x1F DUP3 ADD AND DUP3 ADD DUP1 PUSH1 0x40 MSTORE POP DUP2 ADD SWAP1 PUSH2 0x1403 SWAP2 SWAP1 PUSH2 0x27C7 JUMP JUMPDEST SWAP6 SWAP5 POP POP POP POP POP JUMP JUMPDEST PUSH1 0x0 DUP1 SLOAD PUSH1 0x1 PUSH1 0x1 PUSH1 0xA0 SHL SUB DUP4 DUP2 AND PUSH1 0x1 PUSH1 0x1 PUSH1 0xA0 SHL SUB NOT DUP4 AND DUP2 OR DUP5 SSTORE PUSH1 0x40 MLOAD SWAP2 SWAP1 SWAP3 AND SWAP3 DUP4 SWAP2 PUSH32 0x8BE0079C531659141344CD1FD0A4F28419497F9722A3DAAFE3B4186F6B6457E0 SWAP2 SWAP1 LOG3 POP POP JUMP JUMPDEST PUSH1 0x0 JUMPDEST DUP2 MLOAD DUP2 LT ISZERO PUSH2 0x1533 JUMPI PUSH2 0x148E DUP3 DUP3 DUP2 MLOAD DUP2 LT PUSH2 0x147D JUMPI PUSH2 0x147D PUSH2 0x24FF JUMP JUMPDEST PUSH1 0x20 MUL PUSH1 0x20 ADD ADD MLOAD PUSH1 0x40 ADD MLOAD PUSH2 0x1563 JUMP JUMPDEST DUP2 DUP2 DUP2 MLOAD DUP2 LT PUSH2 0x14A0 JUMPI PUSH2 0x14A0 PUSH2 0x24FF JUMP JUMPDEST PUSH1 0x20 MUL PUSH1 0x20 ADD ADD MLOAD PUSH1 0x40 ADD MLOAD PUSH1 0x3 PUSH1 0x0 DUP5 DUP5 DUP2 MLOAD DUP2 LT PUSH2 0x14C2 JUMPI PUSH2 0x14C2 PUSH2 0x24FF JUMP JUMPDEST PUSH1 0x20 MUL PUSH1 0x20 ADD ADD MLOAD PUSH1 0x0 ADD MLOAD PUSH4 0xFFFFFFFF AND PUSH4 0xFFFFFFFF AND DUP2 MSTORE PUSH1 0x20 ADD SWAP1 DUP2 MSTORE PUSH1 0x20 ADD PUSH1 0x0 KECCAK256 PUSH1 0x0 DUP5 DUP5 DUP2 MLOAD DUP2 LT PUSH2 0x14FC JUMPI PUSH2 0x14FC PUSH2 0x24FF JUMP JUMPDEST PUSH1 0x20 MUL PUSH1 0x20 ADD ADD MLOAD PUSH1 0x20 ADD MLOAD PUSH2 0xFFFF AND PUSH2 0xFFFF AND DUP2 MSTORE PUSH1 0x20 ADD SWAP1 DUP2 MSTORE PUSH1 0x20 ADD PUSH1 0x0 KECCAK256 SWAP1 DUP2 PUSH2 0x152A SWAP2 SWAP1 PUSH2 0x2833 JUMP JUMPDEST POP PUSH1 0x1 ADD PUSH2 0x145F JUMP JUMPDEST POP PUSH32 0xBE4864A8E820971C0247F5992E2DA559595F7BF076A21CB5928D443D2A13B674 DUP2 PUSH1 0x40 MLOAD PUSH2 0xA74 SWAP2 SWAP1 PUSH2 0x28F2 JUMP JUMPDEST PUSH1 0x2 DUP2 ADD MLOAD PUSH2 0xFFFF DUP2 AND PUSH1 0x3 EQ PUSH2 0x910 JUMPI DUP2 PUSH1 0x40 MLOAD PUSH4 0x9A6D49CD PUSH1 0xE0 SHL DUP2 MSTORE PUSH1 0x4 ADD PUSH2 0x885 SWAP2 SWAP1 PUSH2 0x1FC9 JUMP JUMPDEST PUSH2 0x1597 PUSH2 0x1C41 JUMP JUMPDEST PUSH1 0x40 DUP1 MLOAD DUP1 DUP3 ADD SWAP1 SWAP2 MSTORE PUSH1 0x0 DUP1 DUP3 MSTORE PUSH1 0x20 DUP3 ADD MSTORE PUSH1 0x0 DUP1 PUSH2 0x15CE CALLER PUSH1 0x40 DUP10 ADD CALLDATALOAD PUSH1 0x60 DUP11 ADD CALLDATALOAD PUSH2 0x15C9 PUSH1 0x20 DUP13 ADD DUP13 PUSH2 0x20E4 JUMP JUMPDEST PUSH2 0x18C7 JUMP JUMPDEST SWAP2 POP SWAP2 POP PUSH1 0x0 DUP1 PUSH2 0x15DF DUP10 DUP5 PUSH2 0x1208 JUMP JUMPDEST SWAP1 SWAP3 POP SWAP1 POP PUSH2 0x160B PUSH2 0x15F4 PUSH1 0x20 DUP12 ADD DUP12 PUSH2 0x20E4 JUMP JUMPDEST DUP4 DUP4 PUSH2 0x1605 CALLDATASIZE DUP14 SWAP1 SUB DUP14 ADD DUP14 PUSH2 0x297D JUMP JUMPDEST DUP12 PUSH2 0x1918 JUMP JUMPDEST PUSH1 0x40 DUP1 MLOAD DUP1 DUP3 ADD SWAP1 SWAP2 MSTORE DUP6 DUP2 MSTORE PUSH1 0x20 DUP1 DUP3 ADD DUP7 SWAP1 MSTORE DUP3 MLOAD SWAP3 SWAP9 POP SWAP1 SWAP7 POP CALLER SWAP2 SWAP1 PUSH32 0x85496B760A4B7F8D66384B9DF21B381F5D1B1E79F229A47AAF4C232EDC2FE59A SWAP1 PUSH2 0x1659 SWAP1 DUP14 ADD DUP14 PUSH2 0x20E4 JUMP JUMPDEST PUSH1 0x40 DUP1 MLOAD PUSH4 0xFFFFFFFF SWAP1 SWAP3 AND DUP3 MSTORE PUSH1 0x20 DUP3 ADD DUP10 SWAP1 MSTORE DUP2 ADD DUP8 SWAP1 MSTORE PUSH1 0x60 ADD PUSH1 0x40 MLOAD DUP1 SWAP2 SUB SWAP1 LOG3 POP POP POP POP SWAP4 POP SWAP4 SWAP2 POP POP JUMP JUMPDEST PUSH1 0x0 PUSH32 0x0 PUSH2 0x16B7 DUP2 DUP5 PUSH2 0x29AF JUMP JUMPDEST PUSH2 0x977 SWAP2 SWAP1 PUSH2 0x29D1 JUMP JUMPDEST PUSH1 0x0 PUSH2 0x16D0 PUSH1 0x20 DUP3 DUP5 DUP7 PUSH2 0x2470 JUMP JUMPDEST PUSH2 0x16D9 SWAP2 PUSH2 0x29F6 JUMP JUMPDEST SWAP4 SWAP3 POP POP POP JUMP JUMPDEST PUSH1 0x0 PUSH2 0x16F0 PUSH1 0x28 PUSH1 0x20 DUP5 DUP7 PUSH2 0x2470 JUMP JUMPDEST PUSH2 0x16F9 SWAP2 PUSH2 0x2A14 JUMP JUMPDEST PUSH1 0xC0 SHR SWAP4 SWAP3 POP POP POP JUMP JUMPDEST PUSH1 0x0 PUSH2 0x977 PUSH32 0x0 PUSH1 0x1 PUSH1 0x1 PUSH1 0x40 SHL SUB DUP5 AND PUSH2 0x29D1 JUMP JUMPDEST PUSH1 0x0 PUSH2 0x176E PUSH1 0x1 PUSH1 0x1 PUSH1 0xA0 SHL SUB PUSH32 0x0 AND DUP6 DUP6 PUSH2 0x1A23 JUMP JUMPDEST POP SWAP1 SWAP3 SWAP2 POP POP JUMP JUMPDEST PUSH1 0x60 PUSH2 0x1785 DUP3 PUSH1 0x28 DUP2 DUP7 PUSH2 0x2470 JUMP JUMPDEST DUP1 DUP1 PUSH1 0x1F ADD PUSH1 0x20 DUP1 SWAP2 DIV MUL PUSH1 0x20 ADD PUSH1 0x40 MLOAD SWAP1 DUP2 ADD PUSH1 0x40 MSTORE DUP1 SWAP4 SWAP3 SWAP2 SWAP1 DUP2 DUP2 MSTORE PUSH1 0x20 ADD DUP4 DUP4 DUP1 DUP3 DUP5 CALLDATACOPY PUSH1 0x0 SWAP3 ADD SWAP2 SWAP1 SWAP2 MSTORE POP SWAP3 SWAP7 SWAP6 POP POP POP POP POP POP JUMP JUMPDEST PUSH1 0x60 DUP5 DUP5 DUP5 DUP5 PUSH1 0x40 MLOAD PUSH1 0x20 ADD PUSH2 0x17DA SWAP5 SWAP4 SWAP3 SWAP2 SWAP1 PUSH2 0x2A44 JUMP JUMPDEST PUSH1 0x40 MLOAD PUSH1 0x20 DUP2 DUP4 SUB SUB DUP2 MSTORE SWAP1 PUSH1 0x40 MSTORE SWAP1 POP SWAP5 SWAP4 POP POP POP POP JUMP JUMPDEST PUSH1 0x0 DUP1 PUSH2 0x1820 PUSH32 0x0 DUP5 PUSH2 0x29AF JUMP JUMPDEST SWAP1 POP PUSH1 0x1 PUSH1 0x1 PUSH1 0x40 SHL SUB DUP2 GT ISZERO PUSH2 0x977 JUMPI PUSH1 0x40 MLOAD PUSH4 0xE2CE9413 PUSH1 0xE0 SHL DUP2 MSTORE PUSH1 0x4 DUP2 ADD DUP3 SWAP1 MSTORE PUSH1 0x24 ADD PUSH2 0x885 JUMP JUMPDEST DUP1 MLOAD PUSH1 0x60 SWAP1 ISZERO ISZERO DUP1 PUSH2 0x1896 JUMPI DUP5 DUP5 PUSH1 0x40 MLOAD PUSH1 0x20 ADD PUSH2 0x1882 SWAP3 SWAP2 SWAP1 SWAP2 DUP3 MSTORE PUSH1 0xC0 SHL PUSH1 0x1 PUSH1 0x1 PUSH1 0xC0 SHL SUB NOT AND PUSH1 0x20 DUP3 ADD MSTORE PUSH1 0x28 ADD SWAP1 JUMP JUMPDEST PUSH1 0x40 MLOAD PUSH1 0x20 DUP2 DUP4 SUB SUB DUP2 MSTORE SWAP1 PUSH1 0x40 MSTORE PUSH2 0x18BD JUMP JUMPDEST DUP5 DUP5 CALLER DUP6 PUSH1 0x40 MLOAD PUSH1 0x20 ADD PUSH2 0x18AD SWAP5 SWAP4 SWAP3 SWAP2 SWAP1 PUSH2 0x2A93 JUMP JUMPDEST PUSH1 0x40 MLOAD PUSH1 0x20 DUP2 DUP4 SUB SUB DUP2 MSTORE SWAP1 PUSH1 0x40 MSTORE JUMPDEST SWAP2 POP SWAP4 POP SWAP4 SWAP2 POP POP JUMP JUMPDEST PUSH1 0x0 DUP1 PUSH2 0x18D5 DUP6 DUP6 DUP6 PUSH2 0xFA7 JUMP JUMPDEST SWAP1 SWAP3 POP SWAP1 POP PUSH2 0x190F PUSH1 0x1 PUSH1 0x1 PUSH1 0xA0 SHL SUB PUSH32 0x0 AND DUP8 ADDRESS DUP6 PUSH2 0x1A87 JUMP JUMPDEST SWAP5 POP SWAP5 SWAP3 POP POP POP JUMP JUMPDEST PUSH2 0x1920 PUSH2 0x1C41 JUMP JUMPDEST PUSH1 0x0 PUSH2 0x192F DUP5 PUSH1 0x0 ADD MLOAD PUSH2 0x1AC6 JUMP JUMPDEST PUSH1 0x20 DUP6 ADD MLOAD SWAP1 SWAP2 POP ISZERO PUSH2 0x1949 JUMPI PUSH2 0x1949 DUP5 PUSH1 0x20 ADD MLOAD PUSH2 0x1AEE JUMP JUMPDEST PUSH32 0x0 PUSH1 0x1 PUSH1 0x1 PUSH1 0xA0 SHL SUB AND PUSH4 0x2637A450 DUP3 PUSH1 0x40 MLOAD DUP1 PUSH1 0xA0 ADD PUSH1 0x40 MSTORE DUP1 DUP12 PUSH4 0xFFFFFFFF AND DUP2 MSTORE PUSH1 0x20 ADD PUSH2 0x1999 DUP13 PUSH2 0xFE3 JUMP JUMPDEST DUP2 MSTORE PUSH1 0x20 ADD DUP11 DUP2 MSTORE PUSH1 0x20 ADD DUP10 DUP2 MSTORE PUSH1 0x20 ADD PUSH1 0x0 DUP10 PUSH1 0x20 ADD MLOAD GT ISZERO ISZERO DUP2 MSTORE POP DUP7 PUSH1 0x40 MLOAD DUP5 PUSH4 0xFFFFFFFF AND PUSH1 0xE0 SHL DUP2 MSTORE PUSH1 0x4 ADD PUSH2 0x19D5 SWAP3 SWAP2 SWAP1 PUSH2 0x271E JUMP JUMPDEST PUSH1 0x80 PUSH1 0x40 MLOAD DUP1 DUP4 SUB DUP2 DUP6 DUP9 GAS CALL ISZERO DUP1 ISZERO PUSH2 0x19F3 JUMPI RETURNDATASIZE PUSH1 0x0 DUP1 RETURNDATACOPY RETURNDATASIZE PUSH1 0x0 REVERT JUMPDEST POP POP POP POP POP PUSH1 0x40 MLOAD RETURNDATASIZE PUSH1 0x1F NOT PUSH1 0x1F DUP3 ADD AND DUP3 ADD DUP1 PUSH1 0x40 MSTORE POP DUP2 ADD SWAP1 PUSH2 0x1A18 SWAP2 SWAP1 PUSH2 0x2AD6 JUMP JUMPDEST SWAP8 SWAP7 POP POP POP POP POP POP POP JUMP JUMPDEST PUSH1 0x40 MLOAD PUSH1 0x1 PUSH1 0x1 PUSH1 0xA0 SHL SUB DUP4 DUP2 AND PUSH1 0x24 DUP4 ADD MSTORE PUSH1 0x44 DUP3 ADD DUP4 SWAP1 MSTORE PUSH2 0x1A82 SWAP2 DUP6 SWAP2 DUP3 AND SWAP1 PUSH4 0xA9059CBB SWAP1 PUSH1 0x64 ADD JUMPDEST PUSH1 0x40 MLOAD PUSH1 0x20 DUP2 DUP4 SUB SUB DUP2 MSTORE SWAP1 PUSH1 0x40 MSTORE SWAP2 POP PUSH1 0xE0 SHL PUSH1 0x20 DUP3 ADD DUP1 MLOAD PUSH1 0x1 PUSH1 0x1 PUSH1 0xE0 SHL SUB DUP4 DUP2 DUP4 AND OR DUP4 MSTORE POP POP POP POP PUSH2 0x1BD0 JUMP JUMPDEST POP POP POP JUMP JUMPDEST PUSH1 0x40 MLOAD PUSH1 0x1 PUSH1 0x1 PUSH1 0xA0 SHL SUB DUP5 DUP2 AND PUSH1 0x24 DUP4 ADD MSTORE DUP4 DUP2 AND PUSH1 0x44 DUP4 ADD MSTORE PUSH1 0x64 DUP3 ADD DUP4 SWAP1 MSTORE PUSH2 0x1AC0 SWAP2 DUP7 SWAP2 DUP3 AND SWAP1 PUSH4 0x23B872DD SWAP1 PUSH1 0x84 ADD PUSH2 0x1A50 JUMP JUMPDEST POP POP POP POP JUMP JUMPDEST PUSH1 0x0 DUP2 CALLVALUE EQ PUSH2 0x1AEA JUMPI PUSH1 0x40 MLOAD PUSH4 0x4FB8209 PUSH1 0xE5 SHL DUP2 MSTORE CALLVALUE PUSH1 0x4 DUP3 ADD MSTORE PUSH1 0x24 ADD PUSH2 0x885 JUMP JUMPDEST POP SWAP1 JUMP JUMPDEST PUSH1 0x0 PUSH32 0x0 PUSH1 0x1 PUSH1 0x1 PUSH1 0xA0 SHL SUB AND PUSH4 0xE4FE1D94 PUSH1 0x40 MLOAD DUP2 PUSH4 0xFFFFFFFF AND PUSH1 0xE0 SHL DUP2 MSTORE PUSH1 0x4 ADD PUSH1 0x20 PUSH1 0x40 MLOAD DUP1 DUP4 SUB DUP2 DUP7 GAS STATICCALL ISZERO DUP1 ISZERO PUSH2 0x1B4E JUMPI RETURNDATASIZE PUSH1 0x0 DUP1 RETURNDATACOPY RETURNDATASIZE PUSH1 0x0 REVERT JUMPDEST POP POP POP POP PUSH1 0x40 MLOAD RETURNDATASIZE PUSH1 0x1F NOT PUSH1 0x1F DUP3 ADD AND DUP3 ADD DUP1 PUSH1 0x40 MSTORE POP DUP2 ADD SWAP1 PUSH2 0x1B72 SWAP2 SWAP1 PUSH2 0x223A JUMP JUMPDEST SWAP1 POP PUSH1 0x1 PUSH1 0x1 PUSH1 0xA0 SHL SUB DUP2 AND PUSH2 0x1B9B JUMPI PUSH1 0x40 MLOAD PUSH4 0x29B99A95 PUSH1 0xE1 SHL DUP2 MSTORE PUSH1 0x4 ADD PUSH1 0x40 MLOAD DUP1 SWAP2 SUB SWAP1 REVERT JUMPDEST PUSH2 0x910 PUSH1 0x1 PUSH1 0x1 PUSH1 0xA0 SHL SUB DUP3 AND CALLER PUSH32 0x0 DUP6 PUSH2 0x1A87 JUMP JUMPDEST PUSH1 0x0 DUP1 PUSH1 0x20 PUSH1 0x0 DUP5 MLOAD PUSH1 0x20 DUP7 ADD PUSH1 0x0 DUP9 GAS CALL DUP1 PUSH2 0x1BF3 JUMPI PUSH1 0x40 MLOAD RETURNDATASIZE PUSH1 0x0 DUP3 RETURNDATACOPY RETURNDATASIZE DUP2 REVERT JUMPDEST POP POP PUSH1 0x0 MLOAD RETURNDATASIZE SWAP2 POP DUP2 ISZERO PUSH2 0x1C0B JUMPI DUP1 PUSH1 0x1 EQ ISZERO PUSH2 0x1C18 JUMP JUMPDEST PUSH1 0x1 PUSH1 0x1 PUSH1 0xA0 SHL SUB DUP5 AND EXTCODESIZE ISZERO JUMPDEST ISZERO PUSH2 0x1AC0 JUMPI PUSH1 0x40 MLOAD PUSH4 0x5274AFE7 PUSH1 0xE0 SHL DUP2 MSTORE PUSH1 0x1 PUSH1 0x1 PUSH1 0xA0 SHL SUB DUP6 AND PUSH1 0x4 DUP3 ADD MSTORE PUSH1 0x24 ADD PUSH2 0x885 JUMP JUMPDEST PUSH1 0x40 MLOAD DUP1 PUSH1 0x60 ADD PUSH1 0x40 MSTORE DUP1 PUSH1 0x0 DUP1 NOT AND DUP2 MSTORE PUSH1 0x20 ADD PUSH1 0x0 PUSH1 0x1 PUSH1 0x1 PUSH1 0x40 SHL SUB AND DUP2 MSTORE PUSH1 0x20 ADD PUSH2 0x1C83 PUSH1 0x40 MLOAD DUP1 PUSH1 0x40 ADD PUSH1 0x40 MSTORE DUP1 PUSH1 0x0 DUP2 MSTORE PUSH1 0x20 ADD PUSH1 0x0 DUP2 MSTORE POP SWAP1 JUMP JUMPDEST SWAP1 MSTORE SWAP1 JUMP JUMPDEST PUSH1 0x0 PUSH1 0xE0 DUP3 DUP5 SUB SLT ISZERO PUSH2 0x1C9A JUMPI PUSH1 0x0 DUP1 REVERT JUMPDEST POP SWAP2 SWAP1 POP JUMP JUMPDEST PUSH1 0x0 PUSH1 0x20 DUP3 DUP5 SUB SLT ISZERO PUSH2 0x1CB2 JUMPI PUSH1 0x0 DUP1 REVERT JUMPDEST DUP2 CALLDATALOAD PUSH1 0x1 PUSH1 0x1 PUSH1 0x40 SHL SUB DUP2 GT ISZERO PUSH2 0x1CC8 JUMPI PUSH1 0x0 DUP1 REVERT JUMPDEST PUSH2 0xAA0 DUP5 DUP3 DUP6 ADD PUSH2 0x1C88 JUMP JUMPDEST PUSH1 0x0 JUMPDEST DUP4 DUP2 LT ISZERO PUSH2 0x1CEF JUMPI DUP2 DUP2 ADD MLOAD DUP4 DUP3 ADD MSTORE PUSH1 0x20 ADD PUSH2 0x1CD7 JUMP JUMPDEST POP POP PUSH1 0x0 SWAP2 ADD MSTORE JUMP JUMPDEST PUSH1 0x0 DUP2 MLOAD DUP1 DUP5 MSTORE PUSH2 0x1D10 DUP2 PUSH1 0x20 DUP7 ADD PUSH1 0x20 DUP7 ADD PUSH2 0x1CD4 JUMP JUMPDEST PUSH1 0x1F ADD PUSH1 0x1F NOT AND SWAP3 SWAP1 SWAP3 ADD PUSH1 0x20 ADD SWAP3 SWAP2 POP POP JUMP JUMPDEST DUP4 MLOAD DUP2 MSTORE PUSH1 0x20 DUP1 DUP6 ADD MLOAD SWAP1 DUP3 ADD MSTORE PUSH1 0x0 PUSH1 0xA0 DUP3 ADD PUSH1 0x40 PUSH1 0xA0 PUSH1 0x40 DUP6 ADD MSTORE DUP2 DUP7 MLOAD DUP1 DUP5 MSTORE PUSH1 0xC0 DUP7 ADD SWAP2 POP PUSH1 0xC0 DUP2 PUSH1 0x5 SHL DUP8 ADD ADD SWAP4 POP PUSH1 0x20 DUP1 DUP10 ADD PUSH1 0x0 JUMPDEST DUP4 DUP2 LT ISZERO PUSH2 0x1D9F JUMPI DUP9 DUP8 SUB PUSH1 0xBF NOT ADD DUP6 MSTORE DUP2 MLOAD DUP1 MLOAD DUP9 MSTORE DUP4 ADD MLOAD DUP4 DUP9 ADD DUP8 SWAP1 MSTORE PUSH2 0x1D8C DUP8 DUP10 ADD DUP3 PUSH2 0x1CF8 JUMP JUMPDEST SWAP8 POP POP SWAP4 DUP3 ADD SWAP4 SWAP1 DUP3 ADD SWAP1 PUSH1 0x1 ADD PUSH2 0x1D60 JUMP JUMPDEST POP POP DUP8 MLOAD PUSH1 0x60 DUP9 ADD MSTORE POP POP POP PUSH1 0x20 DUP6 ADD MLOAD PUSH1 0x80 DUP6 ADD MSTORE POP SWAP1 POP PUSH2 0xAA0 JUMP JUMPDEST PUSH1 0x0 PUSH1 0x60 DUP3 DUP5 SUB SLT ISZERO PUSH2 0x1C9A JUMPI PUSH1 0x0 DUP1 REVERT JUMPDEST PUSH1 0x0 DUP1 DUP4 PUSH1 0x1F DUP5 ADD SLT PUSH2 0x1DE1 JUMPI PUSH1 0x0 DUP1 REVERT JUMPDEST POP DUP2 CALLDATALOAD PUSH1 0x1 PUSH1 0x1 PUSH1 0x40 SHL SUB DUP2 GT ISZERO PUSH2 0x1DF8 JUMPI PUSH1 0x0 DUP1 REVERT JUMPDEST PUSH1 0x20 DUP4 ADD SWAP2 POP DUP4 PUSH1 0x20 DUP3 DUP6 ADD ADD GT ISZERO PUSH2 0x1E10 JUMPI PUSH1 0x0 DUP1 REVERT JUMPDEST SWAP3 POP SWAP3 SWAP1 POP JUMP JUMPDEST PUSH1 0x1 PUSH1 0x1 PUSH1 0xA0 SHL SUB DUP2 AND DUP2 EQ PUSH2 0xF6E JUMPI PUSH1 0x0 DUP1 REVERT JUMPDEST PUSH1 0x0 DUP1 PUSH1 0x0 DUP1 PUSH1 0x0 DUP1 PUSH1 0x0 PUSH1 0xE0 DUP9 DUP11 SUB SLT ISZERO PUSH2 0x1E47 JUMPI PUSH1 0x0 DUP1 REVERT JUMPDEST PUSH2 0x1E51 DUP10 DUP10 PUSH2 0x1DBD JUMP JUMPDEST SWAP7 POP PUSH1 0x60 DUP9 ADD CALLDATALOAD SWAP6 POP PUSH1 0x80 DUP9 ADD CALLDATALOAD PUSH1 0x1 PUSH1 0x1 PUSH1 0x40 SHL SUB DUP1 DUP3 GT ISZERO PUSH2 0x1E74 JUMPI PUSH1 0x0 DUP1 REVERT JUMPDEST PUSH2 0x1E80 DUP12 DUP4 DUP13 ADD PUSH2 0x1DCF JUMP JUMPDEST SWAP1 SWAP8 POP SWAP6 POP PUSH1 0xA0 DUP11 ADD CALLDATALOAD SWAP2 POP PUSH2 0x1E95 DUP3 PUSH2 0x1E17 JUMP JUMPDEST SWAP1 SWAP4 POP PUSH1 0xC0 DUP10 ADD CALLDATALOAD SWAP1 DUP1 DUP3 GT ISZERO PUSH2 0x1EAB JUMPI PUSH1 0x0 DUP1 REVERT JUMPDEST POP PUSH2 0x1EB8 DUP11 DUP3 DUP12 ADD PUSH2 0x1DCF JUMP JUMPDEST SWAP9 SWAP12 SWAP8 SWAP11 POP SWAP6 SWAP9 POP SWAP4 SWAP7 SWAP3 SWAP6 SWAP3 SWAP4 POP POP POP JUMP JUMPDEST DUP1 CALLDATALOAD PUSH4 0xFFFFFFFF DUP2 AND DUP2 EQ PUSH2 0x1EDF JUMPI PUSH1 0x0 DUP1 REVERT JUMPDEST SWAP2 SWAP1 POP JUMP JUMPDEST PUSH1 0x0 DUP1 PUSH1 0x40 DUP4 DUP6 SUB SLT ISZERO PUSH2 0x1EF7 JUMPI PUSH1 0x0 DUP1 REVERT JUMPDEST PUSH2 0x1F00 DUP4 PUSH2 0x1ECB JUMP JUMPDEST SWAP5 PUSH1 0x20 SWAP4 SWAP1 SWAP4 ADD CALLDATALOAD SWAP4 POP POP POP JUMP JUMPDEST DUP1 ISZERO ISZERO DUP2 EQ PUSH2 0xF6E JUMPI PUSH1 0x0 DUP1 REVERT JUMPDEST PUSH1 0x0 DUP1 PUSH1 0x40 DUP4 DUP6 SUB SLT ISZERO PUSH2 0x1F2F JUMPI PUSH1 0x0 DUP1 REVERT JUMPDEST DUP3 CALLDATALOAD PUSH1 0x1 PUSH1 0x1 PUSH1 0x40 SHL SUB DUP2 GT ISZERO PUSH2 0x1F45 JUMPI PUSH1 0x0 DUP1 REVERT JUMPDEST PUSH2 0x1F51 DUP6 DUP3 DUP7 ADD PUSH2 0x1C88 JUMP JUMPDEST SWAP3 POP POP PUSH1 0x20 DUP4 ADD CALLDATALOAD PUSH2 0x1F62 DUP2 PUSH2 0x1F0E JUMP JUMPDEST DUP1 SWAP2 POP POP SWAP3 POP SWAP3 SWAP1 POP JUMP JUMPDEST DUP2 MLOAD DUP2 MSTORE PUSH1 0x20 DUP1 DUP4 ADD MLOAD SWAP1 DUP3 ADD MSTORE PUSH1 0x40 DUP2 ADD PUSH2 0x977 JUMP JUMPDEST DUP1 CALLDATALOAD PUSH2 0xFFFF DUP2 AND DUP2 EQ PUSH2 0x1EDF JUMPI PUSH1 0x0 DUP1 REVERT JUMPDEST PUSH1 0x0 DUP1 PUSH1 0x40 DUP4 DUP6 SUB SLT ISZERO PUSH2 0x1FA9 JUMPI PUSH1 0x0 DUP1 REVERT JUMPDEST PUSH2 0x1FB2 DUP4 PUSH2 0x1ECB JUMP JUMPDEST SWAP2 POP PUSH2 0x1FC0 PUSH1 0x20 DUP5 ADD PUSH2 0x1F84 JUMP JUMPDEST SWAP1 POP SWAP3 POP SWAP3 SWAP1 POP JUMP JUMPDEST PUSH1 0x20 DUP2 MSTORE PUSH1 0x0 PUSH2 0x16D9 PUSH1 0x20 DUP4 ADD DUP5 PUSH2 0x1CF8 JUMP JUMPDEST PUSH1 0x0 PUSH1 0x20 DUP3 DUP5 SUB SLT ISZERO PUSH2 0x1FEE JUMPI PUSH1 0x0 DUP1 REVERT JUMPDEST DUP2 CALLDATALOAD PUSH2 0x16D9 DUP2 PUSH2 0x1E17 JUMP JUMPDEST PUSH1 0x0 DUP1 PUSH1 0x0 DUP1 PUSH1 0xA0 DUP6 DUP8 SUB SLT ISZERO PUSH2 0x200F JUMPI PUSH1 0x0 DUP1 REVERT JUMPDEST PUSH2 0x2019 DUP7 DUP7 PUSH2 0x1DBD JUMP JUMPDEST SWAP4 POP PUSH1 0x60 DUP6 ADD CALLDATALOAD PUSH1 0x1 PUSH1 0x1 PUSH1 0x40 SHL SUB DUP2 GT ISZERO PUSH2 0x2034 JUMPI PUSH1 0x0 DUP1 REVERT JUMPDEST PUSH2 0x2040 DUP8 DUP3 DUP9 ADD PUSH2 0x1DCF JUMP JUMPDEST SWAP1 SWAP5 POP SWAP3 POP POP PUSH1 0x80 DUP6 ADD CALLDATALOAD PUSH2 0x2054 DUP2 PUSH2 0x1E17 JUMP JUMPDEST SWAP4 SWAP7 SWAP3 SWAP6 POP SWAP1 SWAP4 POP POP JUMP JUMPDEST PUSH1 0x0 DUP1 DUP4 PUSH1 0x1F DUP5 ADD SLT PUSH2 0x2071 JUMPI PUSH1 0x0 DUP1 REVERT JUMPDEST POP DUP2 CALLDATALOAD PUSH1 0x1 PUSH1 0x1 PUSH1 0x40 SHL SUB DUP2 GT ISZERO PUSH2 0x2088 JUMPI PUSH1 0x0 DUP1 REVERT JUMPDEST PUSH1 0x20 DUP4 ADD SWAP2 POP DUP4 PUSH1 0x20 DUP3 PUSH1 0x5 SHL DUP6 ADD ADD GT ISZERO PUSH2 0x1E10 JUMPI PUSH1 0x0 DUP1 REVERT JUMPDEST PUSH1 0x0 DUP1 PUSH1 0x20 DUP4 DUP6 SUB SLT ISZERO PUSH2 0x20B6 JUMPI PUSH1 0x0 DUP1 REVERT JUMPDEST DUP3 CALLDATALOAD PUSH1 0x1 PUSH1 0x1 PUSH1 0x40 SHL SUB DUP2 GT ISZERO PUSH2 0x20CC JUMPI PUSH1 0x0 DUP1 REVERT JUMPDEST PUSH2 0x20D8 DUP6 DUP3 DUP7 ADD PUSH2 0x205F JUMP JUMPDEST SWAP1 SWAP7 SWAP1 SWAP6 POP SWAP4 POP POP POP POP JUMP JUMPDEST PUSH1 0x0 PUSH1 0x20 DUP3 DUP5 SUB SLT ISZERO PUSH2 0x20F6 JUMPI PUSH1 0x0 DUP1 REVERT JUMPDEST PUSH2 0x16D9 DUP3 PUSH2 0x1ECB JUMP JUMPDEST PUSH1 0x0 DUP1 PUSH1 0x0 DUP1 PUSH1 0x60 DUP6 DUP8 SUB SLT ISZERO PUSH2 0x2115 JUMPI PUSH1 0x0 DUP1 REVERT JUMPDEST PUSH2 0x211E DUP6 PUSH2 0x1ECB JUMP JUMPDEST SWAP4 POP PUSH2 0x212C PUSH1 0x20 DUP7 ADD PUSH2 0x1F84 JUMP JUMPDEST SWAP3 POP PUSH1 0x40 DUP6 ADD CALLDATALOAD PUSH1 0x1 PUSH1 0x1 PUSH1 0x40 SHL SUB DUP2 GT ISZERO PUSH2 0x2147 JUMPI PUSH1 0x0 DUP1 REVERT JUMPDEST PUSH2 0x2153 DUP8 DUP3 DUP9 ADD PUSH2 0x1DCF JUMP JUMPDEST SWAP6 SWAP9 SWAP5 SWAP8 POP SWAP6 POP POP POP POP JUMP JUMPDEST PUSH1 0x0 DUP1 PUSH1 0x0 DUP4 DUP6 SUB PUSH1 0x80 DUP2 SLT ISZERO PUSH2 0x2175 JUMPI PUSH1 0x0 DUP1 REVERT JUMPDEST DUP5 CALLDATALOAD PUSH1 0x1 PUSH1 0x1 PUSH1 0x40 SHL SUB DUP2 GT ISZERO PUSH2 0x218B JUMPI PUSH1 0x0 DUP1 REVERT JUMPDEST PUSH2 0x2197 DUP8 DUP3 DUP9 ADD PUSH2 0x1C88 JUMP JUMPDEST SWAP5 POP POP PUSH1 0x40 PUSH1 0x1F NOT DUP3 ADD SLT ISZERO PUSH2 0x21AC JUMPI PUSH1 0x0 DUP1 REVERT JUMPDEST POP PUSH1 0x20 DUP5 ADD SWAP2 POP PUSH1 0x60 DUP5 ADD CALLDATALOAD PUSH2 0x21C1 DUP2 PUSH2 0x1E17 JUMP JUMPDEST DUP1 SWAP2 POP POP SWAP3 POP SWAP3 POP SWAP3 JUMP JUMPDEST PUSH1 0x0 PUSH1 0xC0 DUP3 ADD SWAP1 POP DUP4 MLOAD DUP3 MSTORE PUSH1 0x1 PUSH1 0x1 PUSH1 0x40 SHL SUB PUSH1 0x20 DUP6 ADD MLOAD AND PUSH1 0x20 DUP4 ADD MSTORE PUSH1 0x40 DUP5 ADD MLOAD PUSH2 0x2207 PUSH1 0x40 DUP5 ADD DUP3 DUP1 MLOAD DUP3 MSTORE PUSH1 0x20 SWAP1 DUP2 ADD MLOAD SWAP2 ADD MSTORE JUMP JUMPDEST POP DUP3 MLOAD PUSH1 0x80 DUP4 ADD MSTORE PUSH1 0x20 DUP4 ADD MLOAD PUSH1 0xA0 DUP4 ADD MSTORE PUSH2 0x16D9 JUMP JUMPDEST PUSH1 0x0 PUSH1 0x60 DUP3 DUP5 SUB SLT ISZERO PUSH2 0x2230 JUMPI PUSH1 0x0 DUP1 REVERT JUMPDEST PUSH2 0x16D9 DUP4 DUP4 PUSH2 0x1DBD JUMP JUMPDEST PUSH1 0x0 PUSH1 0x20 DUP3 DUP5 SUB SLT ISZERO PUSH2 0x224C JUMPI PUSH1 0x0 DUP1 REVERT JUMPDEST DUP2 MLOAD PUSH2 0x16D9 DUP2 PUSH2 0x1E17 JUMP JUMPDEST PUSH1 0x0 PUSH1 0x20 DUP3 DUP5 SUB SLT ISZERO PUSH2 0x2269 JUMPI PUSH1 0x0 DUP1 REVERT JUMPDEST POP MLOAD SWAP2 SWAP1 POP JUMP JUMPDEST PUSH4 0x4E487B71 PUSH1 0xE0 SHL PUSH1 0x0 MSTORE PUSH1 0x41 PUSH1 0x4 MSTORE PUSH1 0x24 PUSH1 0x0 REVERT JUMPDEST PUSH1 0x1 DUP2 DUP2 SHR SWAP1 DUP3 AND DUP1 PUSH2 0x229A JUMPI PUSH1 0x7F DUP3 AND SWAP2 POP JUMPDEST PUSH1 0x20 DUP3 LT DUP2 SUB PUSH2 0x1C9A JUMPI PUSH4 0x4E487B71 PUSH1 0xE0 SHL PUSH1 0x0 MSTORE PUSH1 0x22 PUSH1 0x4 MSTORE PUSH1 0x24 PUSH1 0x0 REVERT JUMPDEST PUSH1 0x40 MLOAD PUSH1 0x60 DUP2 ADD PUSH1 0x1 PUSH1 0x1 PUSH1 0x40 SHL SUB DUP2 GT DUP3 DUP3 LT OR ISZERO PUSH2 0x22DC JUMPI PUSH2 0x22DC PUSH2 0x2270 JUMP JUMPDEST PUSH1 0x40 MSTORE SWAP1 JUMP JUMPDEST PUSH1 0x40 DUP1 MLOAD SWAP1 DUP2 ADD PUSH1 0x1 PUSH1 0x1 PUSH1 0x40 SHL SUB DUP2 GT DUP3 DUP3 LT OR ISZERO PUSH2 0x22DC JUMPI PUSH2 0x22DC PUSH2 0x2270 JUMP JUMPDEST PUSH1 0x40 MLOAD PUSH1 0x1F DUP3 ADD PUSH1 0x1F NOT AND DUP2 ADD PUSH1 0x1 PUSH1 0x1 PUSH1 0x40 SHL SUB DUP2 GT DUP3 DUP3 LT OR ISZERO PUSH2 0x232C JUMPI PUSH2 0x232C PUSH2 0x2270 JUMP JUMPDEST PUSH1 0x40 MSTORE SWAP2 SWAP1 POP JUMP JUMPDEST PUSH1 0x0 PUSH1 0x1 PUSH1 0x1 PUSH1 0x40 SHL SUB DUP3 GT ISZERO PUSH2 0x234D JUMPI PUSH2 0x234D PUSH2 0x2270 JUMP JUMPDEST POP PUSH1 0x1F ADD PUSH1 0x1F NOT AND PUSH1 0x20 ADD SWAP1 JUMP JUMPDEST PUSH1 0x0 PUSH1 0x1 PUSH1 0x1 PUSH1 0x40 SHL SUB DUP1 DUP5 GT ISZERO PUSH2 0x2375 JUMPI PUSH2 0x2375 PUSH2 0x2270 JUMP JUMPDEST DUP4 PUSH1 0x5 SHL PUSH1 0x20 PUSH2 0x2386 DUP2 DUP4 ADD PUSH2 0x2304 JUMP JUMPDEST DUP7 DUP2 MSTORE SWAP2 DUP6 ADD SWAP2 DUP2 DUP2 ADD SWAP1 CALLDATASIZE DUP5 GT ISZERO PUSH2 0x239E JUMPI PUSH1 0x0 DUP1 REVERT JUMPDEST DUP7 JUMPDEST DUP5 DUP2 LT ISZERO PUSH2 0x2464 JUMPI DUP1 CALLDATALOAD DUP7 DUP2 GT ISZERO PUSH2 0x23B8 JUMPI PUSH1 0x0 DUP1 DUP2 REVERT JUMPDEST DUP9 ADD PUSH1 0x60 CALLDATASIZE DUP3 SWAP1 SUB SLT ISZERO PUSH2 0x23CC JUMPI PUSH1 0x0 DUP1 DUP2 REVERT JUMPDEST PUSH2 0x23D4 PUSH2 0x22BA JUMP JUMPDEST PUSH2 0x23DD DUP3 PUSH2 0x1ECB JUMP JUMPDEST DUP2 MSTORE PUSH2 0x23EA DUP7 DUP4 ADD PUSH2 0x1F84 JUMP JUMPDEST DUP7 DUP3 ADD MSTORE PUSH1 0x40 DUP1 DUP4 ADD CALLDATALOAD DUP10 DUP2 GT ISZERO PUSH2 0x2402 JUMPI PUSH1 0x0 DUP1 DUP2 REVERT JUMPDEST SWAP3 SWAP1 SWAP3 ADD SWAP2 CALLDATASIZE PUSH1 0x1F DUP5 ADD SLT PUSH2 0x2417 JUMPI PUSH1 0x0 DUP1 DUP2 REVERT JUMPDEST DUP3 CALLDATALOAD PUSH2 0x242A PUSH2 0x2425 DUP3 PUSH2 0x2334 JUMP JUMPDEST PUSH2 0x2304 JUMP JUMPDEST DUP2 DUP2 MSTORE CALLDATASIZE DUP10 DUP4 DUP8 ADD ADD GT ISZERO PUSH2 0x243F JUMPI PUSH1 0x0 DUP1 DUP2 REVERT JUMPDEST DUP2 DUP10 DUP7 ADD DUP11 DUP4 ADD CALLDATACOPY PUSH1 0x0 SWAP2 DUP2 ADD DUP10 ADD SWAP2 SWAP1 SWAP2 MSTORE SWAP1 DUP3 ADD MSTORE DUP5 MSTORE POP SWAP2 DUP4 ADD SWAP2 DUP4 ADD PUSH2 0x23A0 JUMP JUMPDEST POP SWAP8 SWAP7 POP POP POP POP POP POP POP JUMP JUMPDEST PUSH1 0x0 DUP1 DUP6 DUP6 GT ISZERO PUSH2 0x2480 JUMPI PUSH1 0x0 DUP1 REVERT JUMPDEST DUP4 DUP7 GT ISZERO PUSH2 0x248D JUMPI PUSH1 0x0 DUP1 REVERT JUMPDEST POP POP DUP3 ADD SWAP4 SWAP2 SWAP1 SWAP3 SUB SWAP2 POP JUMP JUMPDEST PUSH1 0x0 DUP5 MLOAD PUSH2 0x24AC DUP2 DUP5 PUSH1 0x20 DUP10 ADD PUSH2 0x1CD4 JUMP JUMPDEST DUP3 ADD DUP4 DUP6 DUP3 CALLDATACOPY PUSH1 0x0 SWAP4 ADD SWAP3 DUP4 MSTORE POP SWAP1 SWAP4 SWAP3 POP POP POP JUMP JUMPDEST DUP2 DUP4 MSTORE DUP2 DUP2 PUSH1 0x20 DUP6 ADD CALLDATACOPY POP PUSH1 0x0 DUP3 DUP3 ADD PUSH1 0x20 SWAP1 DUP2 ADD SWAP2 SWAP1 SWAP2 MSTORE PUSH1 0x1F SWAP1 SWAP2 ADD PUSH1 0x1F NOT AND SWAP1 SWAP2 ADD ADD SWAP1 JUMP JUMPDEST PUSH1 0x20 DUP2 MSTORE PUSH1 0x0 PUSH2 0xAA0 PUSH1 0x20 DUP4 ADD DUP5 DUP7 PUSH2 0x24C2 JUMP JUMPDEST PUSH4 0x4E487B71 PUSH1 0xE0 SHL PUSH1 0x0 MSTORE PUSH1 0x32 PUSH1 0x4 MSTORE PUSH1 0x24 PUSH1 0x0 REVERT JUMPDEST PUSH1 0x0 DUP3 CALLDATALOAD PUSH2 0x13E NOT DUP4 CALLDATASIZE SUB ADD DUP2 SLT PUSH2 0x252C JUMPI PUSH1 0x0 DUP1 REVERT JUMPDEST SWAP2 SWAP1 SWAP2 ADD SWAP3 SWAP2 POP POP JUMP JUMPDEST PUSH1 0x0 DUP1 DUP4 CALLDATALOAD PUSH1 0x1E NOT DUP5 CALLDATASIZE SUB ADD DUP2 SLT PUSH2 0x254D JUMPI PUSH1 0x0 DUP1 REVERT JUMPDEST DUP4 ADD DUP1 CALLDATALOAD SWAP2 POP PUSH1 0x1 PUSH1 0x1 PUSH1 0x40 SHL SUB DUP3 GT ISZERO PUSH2 0x2567 JUMPI PUSH1 0x0 DUP1 REVERT JUMPDEST PUSH1 0x20 ADD SWAP2 POP CALLDATASIZE DUP2 SWAP1 SUB DUP3 SGT ISZERO PUSH2 0x1E10 JUMPI PUSH1 0x0 DUP1 REVERT JUMPDEST PUSH1 0x1 PUSH1 0x1 PUSH1 0x40 SHL SUB DUP2 AND DUP2 EQ PUSH2 0xF6E JUMPI PUSH1 0x0 DUP1 REVERT JUMPDEST PUSH4 0xFFFFFFFF PUSH2 0x259F DUP10 PUSH2 0x1ECB JUMP JUMPDEST AND DUP2 MSTORE PUSH1 0x20 DUP9 ADD CALLDATALOAD PUSH1 0x20 DUP3 ADD MSTORE PUSH1 0x0 PUSH1 0x40 DUP10 ADD CALLDATALOAD PUSH2 0x25BC DUP2 PUSH2 0x257C JUMP JUMPDEST PUSH1 0x1 PUSH1 0x1 PUSH1 0x40 SHL SUB DUP2 AND PUSH1 0x40 DUP5 ADD MSTORE POP DUP8 PUSH1 0x60 DUP4 ADD MSTORE PUSH1 0xE0 PUSH1 0x80 DUP4 ADD MSTORE PUSH2 0x25E7 PUSH1 0xE0 DUP4 ADD DUP8 DUP10 PUSH2 0x24C2 JUMP JUMPDEST PUSH1 0x1 PUSH1 0x1 PUSH1 0xA0 SHL SUB DUP7 AND PUSH1 0xA0 DUP5 ADD MSTORE DUP3 DUP2 SUB PUSH1 0xC0 DUP5 ADD MSTORE PUSH2 0x2609 DUP2 DUP6 DUP8 PUSH2 0x24C2 JUMP JUMPDEST SWAP11 SWAP10 POP POP POP POP POP POP POP POP POP POP JUMP JUMPDEST PUSH1 0x0 PUSH1 0x20 DUP3 DUP5 SUB SLT ISZERO PUSH2 0x2629 JUMPI PUSH1 0x0 DUP1 REVERT JUMPDEST DUP2 MLOAD PUSH1 0x1 PUSH1 0x1 PUSH1 0x40 SHL SUB DUP2 GT ISZERO PUSH2 0x263F JUMPI PUSH1 0x0 DUP1 REVERT JUMPDEST DUP3 ADD PUSH1 0x1F DUP2 ADD DUP5 SGT PUSH2 0x2650 JUMPI PUSH1 0x0 DUP1 REVERT JUMPDEST DUP1 MLOAD PUSH2 0x265E PUSH2 0x2425 DUP3 PUSH2 0x2334 JUMP JUMPDEST DUP2 DUP2 MSTORE DUP6 PUSH1 0x20 DUP4 DUP6 ADD ADD GT ISZERO PUSH2 0x2673 JUMPI PUSH1 0x0 DUP1 REVERT JUMPDEST PUSH2 0x1403 DUP3 PUSH1 0x20 DUP4 ADD PUSH1 0x20 DUP7 ADD PUSH2 0x1CD4 JUMP JUMPDEST PUSH1 0x0 PUSH1 0x20 DUP3 DUP5 SUB SLT ISZERO PUSH2 0x2696 JUMPI PUSH1 0x0 DUP1 REVERT JUMPDEST DUP2 CALLDATALOAD PUSH2 0x16D9 DUP2 PUSH2 0x257C JUMP JUMPDEST PUSH1 0x1 DUP1 PUSH1 0xA0 SHL SUB DUP6 AND DUP2 MSTORE DUP4 PUSH1 0x20 DUP3 ADD MSTORE PUSH2 0xFFFF DUP4 AND PUSH1 0x40 DUP3 ADD MSTORE PUSH1 0x80 PUSH1 0x60 DUP3 ADD MSTORE PUSH1 0x0 PUSH2 0x26D2 PUSH1 0x80 DUP4 ADD DUP5 PUSH2 0x1CF8 JUMP JUMPDEST SWAP7 SWAP6 POP POP POP POP POP POP JUMP JUMPDEST PUSH1 0x40 DUP2 MSTORE PUSH1 0x0 PUSH2 0x26EF PUSH1 0x40 DUP4 ADD DUP6 PUSH2 0x1CF8 JUMP JUMPDEST DUP3 DUP2 SUB PUSH1 0x20 DUP5 ADD MSTORE PUSH2 0x1403 DUP2 DUP6 PUSH2 0x1CF8 JUMP JUMPDEST PUSH1 0x0 PUSH1 0x20 DUP3 DUP5 SUB SLT ISZERO PUSH2 0x2713 JUMPI PUSH1 0x0 DUP1 REVERT JUMPDEST DUP2 MLOAD PUSH2 0x16D9 DUP2 PUSH2 0x1F0E JUMP JUMPDEST PUSH1 0x40 DUP2 MSTORE PUSH4 0xFFFFFFFF DUP4 MLOAD AND PUSH1 0x40 DUP3 ADD MSTORE PUSH1 0x20 DUP4 ADD MLOAD PUSH1 0x60 DUP3 ADD MSTORE PUSH1 0x0 PUSH1 0x40 DUP5 ADD MLOAD PUSH1 0xA0 PUSH1 0x80 DUP5 ADD MSTORE PUSH2 0x2754 PUSH1 0xE0 DUP5 ADD DUP3 PUSH2 0x1CF8 JUMP JUMPDEST SWAP1 POP PUSH1 0x60 DUP6 ADD MLOAD PUSH1 0x3F NOT DUP5 DUP4 SUB ADD PUSH1 0xA0 DUP6 ADD MSTORE PUSH2 0x2771 DUP3 DUP3 PUSH2 0x1CF8 JUMP JUMPDEST PUSH1 0x80 SWAP7 SWAP1 SWAP7 ADD MLOAD ISZERO ISZERO PUSH1 0xC0 DUP6 ADD MSTORE POP POP POP PUSH1 0x1 PUSH1 0x1 PUSH1 0xA0 SHL SUB SWAP2 SWAP1 SWAP2 AND PUSH1 0x20 SWAP1 SWAP2 ADD MSTORE SWAP1 JUMP JUMPDEST PUSH1 0x0 PUSH1 0x40 DUP3 DUP5 SUB SLT ISZERO PUSH2 0x27A9 JUMPI PUSH1 0x0 DUP1 REVERT JUMPDEST PUSH2 0x27B1 PUSH2 0x22E2 JUMP JUMPDEST SWAP1 POP DUP2 MLOAD DUP2 MSTORE PUSH1 0x20 DUP3 ADD MLOAD PUSH1 0x20 DUP3 ADD MSTORE SWAP3 SWAP2 POP POP JUMP JUMPDEST PUSH1 0x0 PUSH1 0x40 DUP3 DUP5 SUB SLT ISZERO PUSH2 0x27D9 JUMPI PUSH1 0x0 DUP1 REVERT JUMPDEST PUSH2 0x16D9 DUP4 DUP4 PUSH2 0x2797 JUMP JUMPDEST PUSH1 0x1F DUP3 GT ISZERO PUSH2 0x1A82 JUMPI PUSH1 0x0 DUP2 PUSH1 0x0 MSTORE PUSH1 0x20 PUSH1 0x0 KECCAK256 PUSH1 0x1F DUP6 ADD PUSH1 0x5 SHR DUP2 ADD PUSH1 0x20 DUP7 LT ISZERO PUSH2 0x280C JUMPI POP DUP1 JUMPDEST PUSH1 0x1F DUP6 ADD PUSH1 0x5 SHR DUP3 ADD SWAP2 POP JUMPDEST DUP2 DUP2 LT ISZERO PUSH2 0x282B JUMPI DUP3 DUP2 SSTORE PUSH1 0x1 ADD PUSH2 0x2818 JUMP JUMPDEST POP POP POP POP POP POP JUMP JUMPDEST DUP2 MLOAD PUSH1 0x1 PUSH1 0x1 PUSH1 0x40 SHL SUB DUP2 GT ISZERO PUSH2 0x284C JUMPI PUSH2 0x284C PUSH2 0x2270 JUMP JUMPDEST PUSH2 0x2860 DUP2 PUSH2 0x285A DUP5 SLOAD PUSH2 0x2286 JUMP JUMPDEST DUP5 PUSH2 0x27E3 JUMP JUMPDEST PUSH1 0x20 DUP1 PUSH1 0x1F DUP4 GT PUSH1 0x1 DUP2 EQ PUSH2 0x2895 JUMPI PUSH1 0x0 DUP5 ISZERO PUSH2 0x287D JUMPI POP DUP6 DUP4 ADD MLOAD JUMPDEST PUSH1 0x0 NOT PUSH1 0x3 DUP7 SWAP1 SHL SHR NOT AND PUSH1 0x1 DUP6 SWAP1 SHL OR DUP6 SSTORE PUSH2 0x282B JUMP JUMPDEST PUSH1 0x0 DUP6 DUP2 MSTORE PUSH1 0x20 DUP2 KECCAK256 PUSH1 0x1F NOT DUP7 AND SWAP2 JUMPDEST DUP3 DUP2 LT ISZERO PUSH2 0x28C4 JUMPI DUP9 DUP7 ADD MLOAD DUP3 SSTORE SWAP5 DUP5 ADD SWAP5 PUSH1 0x1 SWAP1 SWAP2 ADD SWAP1 DUP5 ADD PUSH2 0x28A5 JUMP JUMPDEST POP DUP6 DUP3 LT ISZERO PUSH2 0x28E2 JUMPI DUP8 DUP6 ADD MLOAD PUSH1 0x0 NOT PUSH1 0x3 DUP9 SWAP1 SHL PUSH1 0xF8 AND SHR NOT AND DUP2 SSTORE JUMPDEST POP POP POP POP POP PUSH1 0x1 SWAP1 DUP2 SHL ADD SWAP1 SSTORE POP JUMP JUMPDEST PUSH1 0x0 PUSH1 0x20 DUP1 DUP4 ADD DUP2 DUP5 MSTORE DUP1 DUP6 MLOAD DUP1 DUP4 MSTORE PUSH1 0x40 SWAP3 POP PUSH1 0x40 DUP7 ADD SWAP2 POP PUSH1 0x40 DUP2 PUSH1 0x5 SHL DUP8 ADD ADD DUP5 DUP9 ADD PUSH1 0x0 JUMPDEST DUP4 DUP2 LT ISZERO PUSH2 0x296F JUMPI DUP9 DUP4 SUB PUSH1 0x3F NOT ADD DUP6 MSTORE DUP2 MLOAD DUP1 MLOAD PUSH4 0xFFFFFFFF AND DUP5 MSTORE DUP8 DUP2 ADD MLOAD PUSH2 0xFFFF AND DUP9 DUP6 ADD MSTORE DUP7 ADD MLOAD PUSH1 0x60 DUP8 DUP6 ADD DUP2 SWAP1 MSTORE PUSH2 0x295B DUP2 DUP7 ADD DUP4 PUSH2 0x1CF8 JUMP JUMPDEST SWAP7 DUP10 ADD SWAP7 SWAP5 POP POP POP SWAP1 DUP7 ADD SWAP1 PUSH1 0x1 ADD PUSH2 0x291B JUMP JUMPDEST POP SWAP1 SWAP9 SWAP8 POP POP POP POP POP POP POP POP JUMP JUMPDEST PUSH1 0x0 PUSH1 0x40 DUP3 DUP5 SUB SLT ISZERO PUSH2 0x298F JUMPI PUSH1 0x0 DUP1 REVERT JUMPDEST PUSH2 0x2997 PUSH2 0x22E2 JUMP JUMPDEST DUP3 CALLDATALOAD DUP2 MSTORE PUSH1 0x20 DUP4 ADD CALLDATALOAD PUSH1 0x20 DUP3 ADD MSTORE DUP1 SWAP2 POP POP SWAP3 SWAP2 POP POP JUMP JUMPDEST PUSH1 0x0 DUP3 PUSH2 0x29CC JUMPI PUSH4 0x4E487B71 PUSH1 0xE0 SHL PUSH1 0x0 MSTORE PUSH1 0x12 PUSH1 0x4 MSTORE PUSH1 0x24 PUSH1 0x0 REVERT JUMPDEST POP DIV SWAP1 JUMP JUMPDEST DUP1 DUP3 MUL DUP2 ISZERO DUP3 DUP3 DIV DUP5 EQ OR PUSH2 0x977 JUMPI PUSH4 0x4E487B71 PUSH1 0xE0 SHL PUSH1 0x0 MSTORE PUSH1 0x11 PUSH1 0x4 MSTORE PUSH1 0x24 PUSH1 0x0 REVERT JUMPDEST DUP1 CALLDATALOAD PUSH1 0x20 DUP4 LT ISZERO PUSH2 0x977 JUMPI PUSH1 0x0 NOT PUSH1 0x20 DUP5 SWAP1 SUB PUSH1 0x3 SHL SHL AND SWAP3 SWAP2 POP POP JUMP JUMPDEST PUSH1 0x1 PUSH1 0x1 PUSH1 0xC0 SHL SUB NOT DUP2 CALLDATALOAD DUP2 DUP2 AND SWAP2 PUSH1 0x8 DUP6 LT ISZERO PUSH2 0x2A3C JUMPI DUP1 DUP2 DUP7 PUSH1 0x8 SUB PUSH1 0x3 SHL SHL DUP4 AND AND SWAP3 POP JUMPDEST POP POP SWAP3 SWAP2 POP POP JUMP JUMPDEST PUSH1 0x1 PUSH1 0x1 PUSH1 0x40 SHL SUB PUSH1 0xC0 SHL DUP6 PUSH1 0xC0 SHL AND DUP2 MSTORE PUSH4 0xFFFFFFFF PUSH1 0xE0 SHL DUP5 PUSH1 0xE0 SHL AND PUSH1 0x8 DUP3 ADD MSTORE DUP3 PUSH1 0xC DUP3 ADD MSTORE PUSH1 0x0 DUP3 MLOAD PUSH2 0x2A83 DUP2 PUSH1 0x2C DUP6 ADD PUSH1 0x20 DUP8 ADD PUSH2 0x1CD4 JUMP JUMPDEST SWAP2 SWAP1 SWAP2 ADD PUSH1 0x2C ADD SWAP6 SWAP5 POP POP POP POP POP JUMP JUMPDEST DUP5 DUP2 MSTORE PUSH1 0x1 PUSH1 0x1 PUSH1 0x40 SHL SUB PUSH1 0xC0 SHL DUP5 PUSH1 0xC0 SHL AND PUSH1 0x20 DUP3 ADD MSTORE DUP3 PUSH1 0x28 DUP3 ADD MSTORE PUSH1 0x0 DUP3 MLOAD PUSH2 0x2AC6 DUP2 PUSH1 0x48 DUP6 ADD PUSH1 0x20 DUP8 ADD PUSH2 0x1CD4 JUMP JUMPDEST SWAP2 SWAP1 SWAP2 ADD PUSH1 0x48 ADD SWAP6 SWAP5 POP POP POP POP POP JUMP JUMPDEST PUSH1 0x0 PUSH1 0x80 DUP3 DUP5 SUB SLT ISZERO PUSH2 0x2AE8 JUMPI PUSH1 0x0 DUP1 REVERT JUMPDEST PUSH2 0x2AF0 PUSH2 0x22BA JUMP JUMPDEST DUP3 MLOAD DUP2 MSTORE PUSH1 0x20 DUP4 ADD MLOAD PUSH2 0x2B02 DUP2 PUSH2 0x257C JUMP JUMPDEST PUSH1 0x20 DUP3 ADD MSTORE PUSH2 0x2B14 DUP5 PUSH1 0x40 DUP6 ADD PUSH2 0x2797 JUMP JUMPDEST PUSH1 0x40 DUP3 ADD MSTORE SWAP4 SWAP3 POP POP POP JUMP INVALID LOG2 PUSH5 0x6970667358 0x22 SLT KECCAK256 0xD3 0xAA CALLDATACOPY 0x27 SWAP6 0xD4 SWAP9 0x21 DUP8 0xC8 CODECOPY CALLDATALOAD DUP15 PUSH10 0x4B3B79EE82C89139508D 0xE1 0xF8 0xDB EXTCODESIZE 0xE0 0xEE JUMPI SWAP1 PUSH5 0x736F6C6343 STOP ADDMOD AND STOP CALLER "},"gasEstimates":{"creation":{"codeDepositCost":"2218800","executionCost":"infinite","totalCost":"infinite"},"external":{"SEND()":"294","SEND_AND_CALL()":"317","allowInitializePath((uint32,bytes32,uint64))":"infinite","approvalRequired()":"243","combineOptions(uint32,uint16,bytes)":"infinite","decimalConversionRate()":"infinite","endpoint()":"infinite","enforcedOptions(uint32,uint16)":"infinite","isComposeMsgSender((uint32,bytes32,uint64),bytes,address)":"800","isPeer(uint32,bytes32)":"2664","lzReceive((uint32,bytes32,uint64),bytes32,bytes,address,bytes)":"infinite","lzReceiveAndRevert(((uint32,bytes32,uint64),uint32,address,bytes32,uint256,address,bytes,bytes)[])":"infinite","lzReceiveSimulate((uint32,bytes32,uint64),bytes32,bytes,address,bytes)":"infinite","msgInspector()":"2406","nextNonce(uint32,bytes32)":"501","oApp()":"280","oAppVersion()":"263","oftVersion()":"247","owner()":"2421","peers(uint32)":"2618","preCrime()":"2404","quoteOFT((uint32,bytes32,uint256,uint256,bytes,bytes,bytes))":"infinite","quoteSend((uint32,bytes32,uint256,uint256,bytes,bytes,bytes),bool)":"infinite","renounceOwnership()":"infinite","send((uint32,bytes32,uint256,uint256,bytes,bytes,bytes),(uint256,uint256),address)":"infinite","setDelegate(address)":"infinite","setEnforcedOptions((uint32,uint16,bytes)[])":"infinite","setMsgInspector(address)":"27850","setPeer(uint32,bytes32)":"26149","setPreCrime(address)":"27860","sharedDecimals()":"245","token()":"infinite","transferOwnership(address)":"infinite"}},"methodIdentifiers":{"SEND()":"1f5e1334","SEND_AND_CALL()":"134d4f25","allowInitializePath((uint32,bytes32,uint64))":"ff7bd03d","approvalRequired()":"9f68b964","combineOptions(uint32,uint16,bytes)":"bc70b354","decimalConversionRate()":"963efcaa","endpoint()":"5e280f11","enforcedOptions(uint32,uint16)":"5535d461","isComposeMsgSender((uint32,bytes32,uint64),bytes,address)":"82413eac","isPeer(uint32,bytes32)":"5a0dfe4d","lzReceive((uint32,bytes32,uint64),bytes32,bytes,address,bytes)":"13137d65","lzReceiveAndRevert(((uint32,bytes32,uint64),uint32,address,bytes32,uint256,address,bytes,bytes)[])":"bd815db0","lzReceiveSimulate((uint32,bytes32,uint64),bytes32,bytes,address,bytes)":"d045a0dc","msgInspector()":"111ecdad","nextNonce(uint32,bytes32)":"7d25a05e","oApp()":"52ae2879","oAppVersion()":"17442b70","oftVersion()":"156a0d0f","owner()":"8da5cb5b","peers(uint32)":"bb0b6a53","preCrime()":"b731ea0a","quoteOFT((uint32,bytes32,uint256,uint256,bytes,bytes,bytes))":"0d35b415","quoteSend((uint32,bytes32,uint256,uint256,bytes,bytes,bytes),bool)":"3b6f743b","renounceOwnership()":"715018a6","send((uint32,bytes32,uint256,uint256,bytes,bytes,bytes),(uint256,uint256),address)":"c7c7f5b3","setDelegate(address)":"ca5eb5e1","setEnforcedOptions((uint32,uint16,bytes)[])":"b98bd070","setMsgInspector(address)":"6fc1b31e","setPeer(uint32,bytes32)":"3400288b","setPreCrime(address)":"d4243885","sharedDecimals()":"857749b0","token()":"fc0c546a","transferOwnership(address)":"f2fde38b"}},"storageLayout":{"storage":[{"astId":3866,"contract":"Contracts/ERC20OFTAdapter.sol:ERC20OFTAdapter","label":"_owner","offset":0,"slot":"0","type":"t_address"},{"astId":1390,"contract":"Contracts/ERC20OFTAdapter.sol:ERC20OFTAdapter","label":"peers","offset":0,"slot":"1","type":"t_mapping(t_uint32,t_bytes32)"},{"astId":2166,"contract":"Contracts/ERC20OFTAdapter.sol:ERC20OFTAdapter","label":"preCrime","offset":0,"slot":"2","type":"t_address"},{"astId":2006,"contract":"Contracts/ERC20OFTAdapter.sol:ERC20OFTAdapter","label":"enforcedOptions","offset":0,"slot":"3","type":"t_mapping(t_uint32,t_mapping(t_uint16,t_bytes_storage))"},{"astId":2791,"contract":"Contracts/ERC20OFTAdapter.sol:ERC20OFTAdapter","label":"msgInspector","offset":0,"slot":"4","type":"t_address"}],"types":{"t_address":{"encoding":"inplace","label":"address","numberOfBytes":"20"},"t_bytes32":{"encoding":"inplace","label":"bytes32","numberOfBytes":"32"},"t_bytes_storage":{"encoding":"bytes","label":"bytes","numberOfBytes":"32"},"t_mapping(t_uint16,t_bytes_storage)":{"encoding":"mapping","key":"t_uint16","label":"mapping(uint16 => bytes)","numberOfBytes":"32","value":"t_bytes_storage"},"t_mapping(t_uint32,t_bytes32)":{"encoding":"mapping","key":"t_uint32","label":"mapping(uint32 => bytes32)","numberOfBytes":"32","value":"t_bytes32"},"t_mapping(t_uint32,t_mapping(t_uint16,t_bytes_storage))":{"encoding":"mapping","key":"t_uint32","label":"mapping(uint32 => mapping(uint16 => bytes))","numberOfBytes":"32","value":"t_mapping(t_uint16,t_bytes_storage)"},"t_uint16":{"encoding":"inplace","label":"uint16","numberOfBytes":"2"},"t_uint32":{"encoding":"inplace","label":"uint32","numberOfBytes":"4"}}},"userdoc":{"kind":"user","methods":{"allowInitializePath((uint32,bytes32,uint64))":{"notice":"Checks if the path initialization is allowed based on the provided origin."},"approvalRequired()":{"notice":"Indicates whether the OFT contract requires approval of the 'token()' to send."},"combineOptions(uint32,uint16,bytes)":{"notice":"Combines options for a given endpoint and message type."},"endpoint()":{"notice":"Retrieves the LayerZero endpoint associated with the OApp."},"isComposeMsgSender((uint32,bytes32,uint64),bytes,address)":{"notice":"Indicates whether an address is an approved composeMsg sender to the Endpoint."},"nextNonce(uint32,bytes32)":{"notice":"Retrieves the next nonce for a given source endpoint and sender address."},"oAppVersion()":{"notice":"Retrieves the OApp version information."},"oftVersion()":{"notice":"Retrieves interfaceID and the version of the OFT."},"peers(uint32)":{"notice":"Retrieves the peer (OApp) associated with a corresponding endpoint."},"quoteOFT((uint32,bytes32,uint256,uint256,bytes,bytes,bytes))":{"notice":"Provides the fee breakdown and settings data for an OFT. Unused in the default implementation."},"quoteSend((uint32,bytes32,uint256,uint256,bytes,bytes,bytes),bool)":{"notice":"Provides a quote for the send() operation."},"setDelegate(address)":{"notice":"Sets the delegate address for the OApp."},"setPeer(uint32,bytes32)":{"notice":"Sets the peer address (OApp instance) for a corresponding endpoint."}},"version":1}}}}