{
  "_format": "hh-sol-artifact-1",
  "contractName": "ERC20OFTAdapter",
  "sourceName": "Contracts/ERC20OFTAdapter.sol",
  "abi": [
    {
      "inputs": [
        {
          "internalType": "address",
          "name": "_token",
          "type": "address"
        },
        {
          "internalType": "address",
          "name": "_lzEndpoint",
          "type": "address"
        },
        {
          "internalType": "address",
          "name": "_delegate",
          "type": "address"
        }
      ],
      "stateMutability": "nonpayable",
      "type": "constructor"
    },
    {
      "inputs": [
        {
          "internalType": "uint256",
          "name": "amountSD",
          "type": "uint256"
        }
      ],
      "name": "AmountSDOverflowed",
      "type": "error"
    },
    {
      "inputs": [],
      "name": "InvalidDelegate",
      "type": "error"
    },
    {
      "inputs": [],
      "name": "InvalidEndpointCall",
      "type": "error"
    },
    {
      "inputs": [],
      "name": "InvalidLocalDecimals",
      "type": "error"
    },
    {
      "inputs": [
        {
          "internalType": "bytes",
          "name": "options",
          "type": "bytes"
        }
      ],
      "name": "InvalidOptions",
      "type": "error"
    },
    {
      "inputs": [],
      "name": "LzTokenUnavailable",
      "type": "error"
    },
    {
      "inputs": [
        {
          "internalType": "uint32",
          "name": "eid",
          "type": "uint32"
        }
      ],
      "name": "NoPeer",
      "type": "error"
    },
    {
      "inputs": [
        {
          "internalType": "uint256",
          "name": "msgValue",
          "type": "uint256"
        }
      ],
      "name": "NotEnoughNative",
      "type": "error"
    },
    {
      "inputs": [
        {
          "internalType": "address",
          "name": "addr",
          "type": "address"
        }
      ],
      "name": "OnlyEndpoint",
      "type": "error"
    },
    {
      "inputs": [
        {
          "internalType": "uint32",
          "name": "eid",
          "type": "uint32"
        },
        {
          "internalType": "bytes32",
          "name": "sender",
          "type": "bytes32"
        }
      ],
      "name": "OnlyPeer",
      "type": "error"
    },
    {
      "inputs": [],
      "name": "OnlySelf",
      "type": "error"
    },
    {
      "inputs": [
        {
          "internalType": "address",
          "name": "owner",
          "type": "address"
        }
      ],
      "name": "OwnableInvalidOwner",
      "type": "error"
    },
    {
      "inputs": [
        {
          "internalType": "address",
          "name": "account",
          "type": "address"
        }
      ],
      "name": "OwnableUnauthorizedAccount",
      "type": "error"
    },
    {
      "inputs": [
        {
          "internalType": "address",
          "name": "token",
          "type": "address"
        }
      ],
      "name": "SafeERC20FailedOperation",
      "type": "error"
    },
    {
      "inputs": [
        {
          "internalType": "bytes",
          "name": "result",
          "type": "bytes"
        }
      ],
      "name": "SimulationResult",
      "type": "error"
    },
    {
      "inputs": [
        {
          "internalType": "uint256",
          "name": "amountLD",
          "type": "uint256"
        },
        {
          "internalType": "uint256",
          "name": "minAmountLD",
          "type": "uint256"
        }
      ],
      "name": "SlippageExceeded",
      "type": "error"
    },
    {
      "anonymous": false,
      "inputs": [
        {
          "components": [
            {
              "internalType": "uint32",
              "name": "eid",
              "type": "uint32"
            },
            {
              "internalType": "uint16",
              "name": "msgType",
              "type": "uint16"
            },
            {
              "internalType": "bytes",
              "name": "options",
              "type": "bytes"
            }
          ],
          "indexed": false,
          "internalType": "struct EnforcedOptionParam[]",
          "name": "_enforcedOptions",
          "type": "tuple[]"
        }
      ],
      "name": "EnforcedOptionSet",
      "type": "event"
    },
    {
      "anonymous": false,
      "inputs": [
        {
          "indexed": false,
          "internalType": "address",
          "name": "inspector",
          "type": "address"
        }
      ],
      "name": "MsgInspectorSet",
      "type": "event"
    },
    {
      "anonymous": false,
      "inputs": [
        {
          "indexed": true,
          "internalType": "bytes32",
          "name": "guid",
          "type": "bytes32"
        },
        {
          "indexed": false,
          "internalType": "uint32",
          "name": "srcEid",
          "type": "uint32"
        },
        {
          "indexed": true,
          "internalType": "address",
          "name": "toAddress",
          "type": "address"
        },
        {
          "indexed": false,
          "internalType": "uint256",
          "name": "amountReceivedLD",
          "type": "uint256"
        }
      ],
      "name": "OFTReceived",
      "type": "event"
    },
    {
      "anonymous": false,
      "inputs": [
        {
          "indexed": true,
          "internalType": "bytes32",
          "name": "guid",
          "type": "bytes32"
        },
        {
          "indexed": false,
          "internalType": "uint32",
          "name": "dstEid",
          "type": "uint32"
        },
        {
          "indexed": true,
          "internalType": "address",
          "name": "fromAddress",
          "type": "address"
        },
        {
          "indexed": false,
          "internalType": "uint256",
          "name": "amountSentLD",
          "type": "uint256"
        },
        {
          "indexed": false,
          "internalType": "uint256",
          "name": "amountReceivedLD",
          "type": "uint256"
        }
      ],
      "name": "OFTSent",
      "type": "event"
    },
    {
      "anonymous": false,
      "inputs": [
        {
          "indexed": true,
          "internalType": "address",
          "name": "previousOwner",
          "type": "address"
        },
        {
          "indexed": true,
          "internalType": "address",
          "name": "newOwner",
          "type": "address"
        }
      ],
      "name": "OwnershipTransferred",
      "type": "event"
    },
    {
      "anonymous": false,
      "inputs": [
        {
          "indexed": false,
          "internalType": "uint32",
          "name": "eid",
          "type": "uint32"
        },
        {
          "indexed": false,
          "internalType": "bytes32",
          "name": "peer",
          "type": "bytes32"
        }
      ],
      "name": "PeerSet",
      "type": "event"
    },
    {
      "anonymous": false,
      "inputs": [
        {
          "indexed": false,
          "internalType": "address",
          "name": "preCrimeAddress",
          "type": "address"
        }
      ],
      "name": "PreCrimeSet",
      "type": "event"
    },
    {
      "inputs": [],
      "name": "SEND",
      "outputs": [
        {
          "internalType": "uint16",
          "name": "",
          "type": "uint16"
        }
      ],
      "stateMutability": "view",
      "type": "function"
    },
    {
      "inputs": [],
      "name": "SEND_AND_CALL",
      "outputs": [
        {
          "internalType": "uint16",
          "name": "",
          "type": "uint16"
        }
      ],
      "stateMutability": "view",
      "type": "function"
    },
    {
      "inputs": [
        {
          "components": [
            {
              "internalType": "uint32",
              "name": "srcEid",
              "type": "uint32"
            },
            {
              "internalType": "bytes32",
              "name": "sender",
              "type": "bytes32"
            },
            {
              "internalType": "uint64",
              "name": "nonce",
              "type": "uint64"
            }
          ],
          "internalType": "struct Origin",
          "name": "origin",
          "type": "tuple"
        }
      ],
      "name": "allowInitializePath",
      "outputs": [
        {
          "internalType": "bool",
          "name": "",
          "type": "bool"
        }
      ],
      "stateMutability": "view",
      "type": "function"
    },
    {
      "inputs": [],
      "name": "approvalRequired",
      "outputs": [
        {
          "internalType": "bool",
          "name": "",
          "type": "bool"
        }
      ],
      "stateMutability": "pure",
      "type": "function"
    },
    {
      "inputs": [
        {
          "internalType": "uint32",
          "name": "_eid",
          "type": "uint32"
        },
        {
          "internalType": "uint16",
          "name": "_msgType",
          "type": "uint16"
        },
        {
          "internalType": "bytes",
          "name": "_extraOptions",
          "type": "bytes"
        }
      ],
      "name": "combineOptions",
      "outputs": [
        {
          "internalType": "bytes",
          "name": "",
          "type": "bytes"
        }
      ],
      "stateMutability": "view",
      "type": "function"
    },
    {
      "inputs": [],
      "name": "decimalConversionRate",
      "outputs": [
        {
          "internalType": "uint256",
          "name": "",
          "type": "uint256"
        }
      ],
      "stateMutability": "view",
      "type": "function"
    },
    {
      "inputs": [],
      "name": "endpoint",
      "outputs": [
        {
          "internalType": "contract ILayerZeroEndpointV2",
          "name": "",
          "type": "address"
        }
      ],
      "stateMutability": "view",
      "type": "function"
    },
    {
      "inputs": [
        {
          "internalType": "uint32",
          "name": "eid",
          "type": "uint32"
        },
        {
          "internalType": "uint16",
          "name": "msgType",
          "type": "uint16"
        }
      ],
      "name": "enforcedOptions",
      "outputs": [
        {
          "internalType": "bytes",
          "name": "enforcedOption",
          "type": "bytes"
        }
      ],
      "stateMutability": "view",
      "type": "function"
    },
    {
      "inputs": [
        {
          "components": [
            {
              "internalType": "uint32",
              "name": "srcEid",
              "type": "uint32"
            },
            {
              "internalType": "bytes32",
              "name": "sender",
              "type": "bytes32"
            },
            {
              "internalType": "uint64",
              "name": "nonce",
              "type": "uint64"
            }
          ],
          "internalType": "struct Origin",
          "name": "",
          "type": "tuple"
        },
        {
          "internalType": "bytes",
          "name": "",
          "type": "bytes"
        },
        {
          "internalType": "address",
          "name": "_sender",
          "type": "address"
        }
      ],
      "name": "isComposeMsgSender",
      "outputs": [
        {
          "internalType": "bool",
          "name": "",
          "type": "bool"
        }
      ],
      "stateMutability": "view",
      "type": "function"
    },
    {
      "inputs": [
        {
          "internalType": "uint32",
          "name": "_eid",
          "type": "uint32"
        },
        {
          "internalType": "bytes32",
          "name": "_peer",
          "type": "bytes32"
        }
      ],
      "name": "isPeer",
      "outputs": [
        {
          "internalType": "bool",
          "name": "",
          "type": "bool"
        }
      ],
      "stateMutability": "view",
      "type": "function"
    },
    {
      "inputs": [
        {
          "components": [
            {
              "internalType": "uint32",
              "name": "srcEid",
              "type": "uint32"
            },
            {
              "internalType": "bytes32",
              "name": "sender",
              "type": "bytes32"
            },
            {
              "internalType": "uint64",
              "name": "nonce",
              "type": "uint64"
            }
          ],
          "internalType": "struct Origin",
          "name": "_origin",
          "type": "tuple"
        },
        {
          "internalType": "bytes32",
          "name": "_guid",
          "type": "bytes32"
        },
        {
          "internalType": "bytes",
          "name": "_message",
          "type": "bytes"
        },
        {
          "internalType": "address",
          "name": "_executor",
          "type": "address"
        },
        {
          "internalType": "bytes",
          "name": "_extraData",
          "type": "bytes"
        }
      ],
      "name": "lzReceive",
      "outputs": [],
      "stateMutability": "payable",
      "type": "function"
    },
    {
      "inputs": [
        {
          "components": [
            {
              "components": [
                {
                  "internalType": "uint32",
                  "name": "srcEid",
                  "type": "uint32"
                },
                {
                  "internalType": "bytes32",
                  "name": "sender",
                  "type": "bytes32"
                },
                {
                  "internalType": "uint64",
                  "name": "nonce",
                  "type": "uint64"
                }
              ],
              "internalType": "struct Origin",
              "name": "origin",
              "type": "tuple"
            },
            {
              "internalType": "uint32",
              "name": "dstEid",
              "type": "uint32"
            },
            {
              "internalType": "address",
              "name": "receiver",
              "type": "address"
            },
            {
              "internalType": "bytes32",
              "name": "guid",
              "type": "bytes32"
            },
            {
              "internalType": "uint256",
              "name": "value",
              "type": "uint256"
            },
            {
              "internalType": "address",
              "name": "executor",
              "type": "address"
            },
            {
              "internalType": "bytes",
              "name": "message",
              "type": "bytes"
            },
            {
              "internalType": "bytes",
              "name": "extraData",
              "type": "bytes"
            }
          ],
          "internalType": "struct InboundPacket[]",
          "name": "_packets",
          "type": "tuple[]"
        }
      ],
      "name": "lzReceiveAndRevert",
      "outputs": [],
      "stateMutability": "payable",
      "type": "function"
    },
    {
      "inputs": [
        {
          "components": [
            {
              "internalType": "uint32",
              "name": "srcEid",
              "type": "uint32"
            },
            {
              "internalType": "bytes32",
              "name": "sender",
              "type": "bytes32"
            },
            {
              "internalType": "uint64",
              "name": "nonce",
              "type": "uint64"
            }
          ],
          "internalType": "struct Origin",
          "name": "_origin",
          "type": "tuple"
        },
        {
          "internalType": "bytes32",
          "name": "_guid",
          "type": "bytes32"
        },
        {
          "internalType": "bytes",
          "name": "_message",
          "type": "bytes"
        },
        {
          "internalType": "address",
          "name": "_executor",
          "type": "address"
        },
        {
          "internalType": "bytes",
          "name": "_extraData",
          "type": "bytes"
        }
      ],
      "name": "lzReceiveSimulate",
      "outputs": [],
      "stateMutability": "payable",
      "type": "function"
    },
    {
      "inputs": [],
      "name": "msgInspector",
      "outputs": [
        {
          "internalType": "address",
          "name": "",
          "type": "address"
        }
      ],
      "stateMutability": "view",
      "type": "function"
    },
    {
      "inputs": [
        {
          "internalType": "uint32",
          "name": "",
          "type": "uint32"
        },
        {
          "internalType": "bytes32",
          "name": "",
          "type": "bytes32"
        }
      ],
      "name": "nextNonce",
      "outputs": [
        {
          "internalType": "uint64",
          "name": "nonce",
          "type": "uint64"
        }
      ],
      "stateMutability": "view",
      "type": "function"
    },
    {
      "inputs": [],
      "name": "oApp",
      "outputs": [
        {
          "internalType": "address",
          "name": "",
          "type": "address"
        }
      ],
      "stateMutability": "view",
      "type": "function"
    },
    {
      "inputs": [],
      "name": "oAppVersion",
      "outputs": [
        {
          "internalType": "uint64",
          "name": "senderVersion",
          "type": "uint64"
        },
        {
          "internalType": "uint64",
          "name": "receiverVersion",
          "type": "uint64"
        }
      ],
      "stateMutability": "pure",
      "type": "function"
    },
    {
      "inputs": [],
      "name": "oftVersion",
      "outputs": [
        {
          "internalType": "bytes4",
          "name": "interfaceId",
          "type": "bytes4"
        },
        {
          "internalType": "uint64",
          "name": "version",
          "type": "uint64"
        }
      ],
      "stateMutability": "pure",
      "type": "function"
    },
    {
      "inputs": [],
      "name": "owner",
      "outputs": [
        {
          "internalType": "address",
          "name": "",
          "type": "address"
        }
      ],
      "stateMutability": "view",
      "type": "function"
    },
    {
      "inputs": [
        {
          "internalType": "uint32",
          "name": "eid",
          "type": "uint32"
        }
      ],
      "name": "peers",
      "outputs": [
        {
          "internalType": "bytes32",
          "name": "peer",
          "type": "bytes32"
        }
      ],
      "stateMutability": "view",
      "type": "function"
    },
    {
      "inputs": [],
      "name": "preCrime",
      "outputs": [
        {
          "internalType": "address",
          "name": "",
          "type": "address"
        }
      ],
      "stateMutability": "view",
      "type": "function"
    },
    {
      "inputs": [
        {
          "components": [
            {
              "internalType": "uint32",
              "name": "dstEid",
              "type": "uint32"
            },
            {
              "internalType": "bytes32",
              "name": "to",
              "type": "bytes32"
            },
            {
              "internalType": "uint256",
              "name": "amountLD",
              "type": "uint256"
            },
            {
              "internalType": "uint256",
              "name": "minAmountLD",
              "type": "uint256"
            },
            {
              "internalType": "bytes",
              "name": "extraOptions",
              "type": "bytes"
            },
            {
              "internalType": "bytes",
              "name": "composeMsg",
              "type": "bytes"
            },
            {
              "internalType": "bytes",
              "name": "oftCmd",
              "type": "bytes"
            }
          ],
          "internalType": "struct SendParam",
          "name": "_sendParam",
          "type": "tuple"
        }
      ],
      "name": "quoteOFT",
      "outputs": [
        {
          "components": [
            {
              "internalType": "uint256",
              "name": "minAmountLD",
              "type": "uint256"
            },
            {
              "internalType": "uint256",
              "name": "maxAmountLD",
              "type": "uint256"
            }
          ],
          "internalType": "struct OFTLimit",
          "name": "oftLimit",
          "type": "tuple"
        },
        {
          "components": [
            {
              "internalType": "int256",
              "name": "feeAmountLD",
              "type": "int256"
            },
            {
              "internalType": "string",
              "name": "description",
              "type": "string"
            }
          ],
          "internalType": "struct OFTFeeDetail[]",
          "name": "oftFeeDetails",
          "type": "tuple[]"
        },
        {
          "components": [
            {
              "internalType": "uint256",
              "name": "amountSentLD",
              "type": "uint256"
            },
            {
              "internalType": "uint256",
              "name": "amountReceivedLD",
              "type": "uint256"
            }
          ],
          "internalType": "struct OFTReceipt",
          "name": "oftReceipt",
          "type": "tuple"
        }
      ],
      "stateMutability": "view",
      "type": "function"
    },
    {
      "inputs": [
        {
          "components": [
            {
              "internalType": "uint32",
              "name": "dstEid",
              "type": "uint32"
            },
            {
              "internalType": "bytes32",
              "name": "to",
              "type": "bytes32"
            },
            {
              "internalType": "uint256",
              "name": "amountLD",
              "type": "uint256"
            },
            {
              "internalType": "uint256",
              "name": "minAmountLD",
              "type": "uint256"
            },
            {
              "internalType": "bytes",
              "name": "extraOptions",
              "type": "bytes"
            },
            {
              "internalType": "bytes",
              "name": "composeMsg",
              "type": "bytes"
            },
            {
              "internalType": "bytes",
              "name": "oftCmd",
              "type": "bytes"
            }
          ],
          "internalType": "struct SendParam",
          "name": "_sendParam",
          "type": "tuple"
        },
        {
          "internalType": "bool",
          "name": "_payInLzToken",
          "type": "bool"
        }
      ],
      "name": "quoteSend",
      "outputs": [
        {
          "components": [
            {
              "internalType": "uint256",
              "name": "nativeFee",
              "type": "uint256"
            },
            {
              "internalType": "uint256",
              "name": "lzTokenFee",
              "type": "uint256"
            }
          ],
          "internalType": "struct MessagingFee",
          "name": "msgFee",
          "type": "tuple"
        }
      ],
      "stateMutability": "view",
      "type": "function"
    },
    {
      "inputs": [],
      "name": "renounceOwnership",
      "outputs": [],
      "stateMutability": "nonpayable",
      "type": "function"
    },
    {
      "inputs": [
        {
          "components": [
            {
              "internalType": "uint32",
              "name": "dstEid",
              "type": "uint32"
            },
            {
              "internalType": "bytes32",
              "name": "to",
              "type": "bytes32"
            },
            {
              "internalType": "uint256",
              "name": "amountLD",
              "type": "uint256"
            },
            {
              "internalType": "uint256",
              "name": "minAmountLD",
              "type": "uint256"
            },
            {
              "internalType": "bytes",
              "name": "extraOptions",
              "type": "bytes"
            },
            {
              "internalType": "bytes",
              "name": "composeMsg",
              "type": "bytes"
            },
            {
              "internalType": "bytes",
              "name": "oftCmd",
              "type": "bytes"
            }
          ],
          "internalType": "struct SendParam",
          "name": "_sendParam",
          "type": "tuple"
        },
        {
          "components": [
            {
              "internalType": "uint256",
              "name": "nativeFee",
              "type": "uint256"
            },
            {
              "internalType": "uint256",
              "name": "lzTokenFee",
              "type": "uint256"
            }
          ],
          "internalType": "struct MessagingFee",
          "name": "_fee",
          "type": "tuple"
        },
        {
          "internalType": "address",
          "name": "_refundAddress",
          "type": "address"
        }
      ],
      "name": "send",
      "outputs": [
        {
          "components": [
            {
              "internalType": "bytes32",
              "name": "guid",
              "type": "bytes32"
            },
            {
              "internalType": "uint64",
              "name": "nonce",
              "type": "uint64"
            },
            {
              "components": [
                {
                  "internalType": "uint256",
                  "name": "nativeFee",
                  "type": "uint256"
                },
                {
                  "internalType": "uint256",
                  "name": "lzTokenFee",
                  "type": "uint256"
                }
              ],
              "internalType": "struct MessagingFee",
              "name": "fee",
              "type": "tuple"
            }
          ],
          "internalType": "struct MessagingReceipt",
          "name": "msgReceipt",
          "type": "tuple"
        },
        {
          "components": [
            {
              "internalType": "uint256",
              "name": "amountSentLD",
              "type": "uint256"
            },
            {
              "internalType": "uint256",
              "name": "amountReceivedLD",
              "type": "uint256"
            }
          ],
          "internalType": "struct OFTReceipt",
          "name": "oftReceipt",
          "type": "tuple"
        }
      ],
      "stateMutability": "payable",
      "type": "function"
    },
    {
      "inputs": [
        {
          "internalType": "address",
          "name": "_delegate",
          "type": "address"
        }
      ],
      "name": "setDelegate",
      "outputs": [],
      "stateMutability": "nonpayable",
      "type": "function"
    },
    {
      "inputs": [
        {
          "components": [
            {
              "internalType": "uint32",
              "name": "eid",
              "type": "uint32"
            },
            {
              "internalType": "uint16",
              "name": "msgType",
              "type": "uint16"
            },
            {
              "internalType": "bytes",
              "name": "options",
              "type": "bytes"
            }
          ],
          "internalType": "struct EnforcedOptionParam[]",
          "name": "_enforcedOptions",
          "type": "tuple[]"
        }
      ],
      "name": "setEnforcedOptions",
      "outputs": [],
      "stateMutability": "nonpayable",
      "type": "function"
    },
    {
      "inputs": [
        {
          "internalType": "address",
          "name": "_msgInspector",
          "type": "address"
        }
      ],
      "name": "setMsgInspector",
      "outputs": [],
      "stateMutability": "nonpayable",
      "type": "function"
    },
    {
      "inputs": [
        {
          "internalType": "uint32",
          "name": "_eid",
          "type": "uint32"
        },
        {
          "internalType": "bytes32",
          "name": "_peer",
          "type": "bytes32"
        }
      ],
      "name": "setPeer",
      "outputs": [],
      "stateMutability": "nonpayable",
      "type": "function"
    },
    {
      "inputs": [
        {
          "internalType": "address",
          "name": "_preCrime",
          "type": "address"
        }
      ],
      "name": "setPreCrime",
      "outputs": [],
      "stateMutability": "nonpayable",
      "type": "function"
    },
    {
      "inputs": [],
      "name": "sharedDecimals",
      "outputs": [
        {
          "internalType": "uint8",
          "name": "",
          "type": "uint8"
        }
      ],
      "stateMutability": "view",
      "type": "function"
    },
    {
      "inputs": [],
      "name": "token",
      "outputs": [
        {
          "internalType": "address",
          "name": "",
          "type": "address"
        }
      ],
      "stateMutability": "view",
      "type": "function"
    },
    {
      "inputs": [
        {
          "internalType": "address",
          "name": "newOwner",
          "type": "address"
        }
      ],
      "name": "transferOwnership",
      "outputs": [],
      "stateMutability": "nonpayable",
      "type": "function"
    }
  ],
  "bytecode": "0x60e06040523480156200001157600080fd5b5060405162002fea38038062002fea833981016040819052620000349162000254565b828282826001600160a01b031663313ce5676040518163ffffffff1660e01b8152600401602060405180830381865afa15801562000076573d6000803e3d6000fd5b505050506040513d601f19601f820116820180604052508101906200009c91906200029e565b8282818181818a6001600160a01b038116620000d257604051631e4fbdf760e01b81526000600482015260240160405180910390fd5b620000dd81620001e2565b506001600160a01b0380831660805281166200010c57604051632d618d8160e21b815260040160405180910390fd5b60805160405163ca5eb5e160e01b81526001600160a01b0383811660048301529091169063ca5eb5e190602401600060405180830381600087803b1580156200015457600080fd5b505af115801562000169573d6000803e3d6000fd5b5050505050505050620001816200023260201b60201c565b60ff168360ff161015620001a8576040516301e9714b60e41b815260040160405180910390fd5b620001b5600684620002e0565b620001c290600a620003ff565b60a0525050506001600160a01b0390921660c05250620004109350505050565b600080546001600160a01b038381166001600160a01b0319831681178455604051919092169283917f8be0079c531659141344cd1fd0a4f28419497f9722a3daafe3b4186f6b6457e09190a35050565b600690565b80516001600160a01b03811681146200024f57600080fd5b919050565b6000806000606084860312156200026a57600080fd5b620002758462000237565b9250620002856020850162000237565b9150620002956040850162000237565b90509250925092565b600060208284031215620002b157600080fd5b815160ff81168114620002c357600080fd5b9392505050565b634e487b7160e01b600052601160045260246000fd5b60ff8281168282160390811115620002fc57620002fc620002ca565b92915050565b600181815b8085111562000343578160001904821115620003275762000327620002ca565b808516156200033557918102915b93841c939080029062000307565b509250929050565b6000826200035c57506001620002fc565b816200036b57506000620002fc565b81600181146200038457600281146200038f57620003af565b6001915050620002fc565b60ff841115620003a357620003a3620002ca565b50506001821b620002fc565b5060208310610133831016604e8410600b8410161715620003d4575081810a620002fc565b620003e0838362000302565b8060001904821115620003f757620003f7620002ca565b029392505050565b6000620002c360ff8416836200034b565b60805160a05160c051612b5662000494600039600081816106690152818161174701526118e70152600081816104e20152818161168e0152818161170a01526117fb0152600081816103e40152818161084001528181610e4f015281816110b4015281816113410152818161194b01528181611af20152611bab0152612b566000f3fe6080604052600436106101ee5760003560e01c806382413eac1161010d578063bc70b354116100a0578063d045a0dc1161006f578063d045a0dc14610607578063d42438851461061a578063f2fde38b1461063a578063fc0c546a1461065a578063ff7bd03d1461068d57600080fd5b8063bc70b35414610593578063bd815db0146105b3578063c7c7f5b3146105c6578063ca5eb5e1146105e757600080fd5b80639f68b964116100dc5780639f68b96414610512578063b731ea0a14610526578063b98bd07014610546578063bb0b6a531461056657600080fd5b806382413eac14610476578063857749b0146104965780638da5cb5b146104b2578063963efcaa146104d057600080fd5b80633b6f743b116101855780635e280f11116101545780635e280f11146103d25780636fc1b31e14610406578063715018a6146104265780637d25a05e1461043b57600080fd5b80633b6f743b1461031e57806352ae28791461034b5780635535d4611461035e5780635a0dfe4d1461038b57600080fd5b8063156a0d0f116101c1578063156a0d0f146102a057806317442b70146102c75780631f5e1334146102e95780633400288b146102fe57600080fd5b80630d35b415146101f3578063111ecdad1461022b57806313137d6514610263578063134d4f2514610278575b600080fd5b3480156101ff57600080fd5b5061021361020e366004611ca0565b6106ad565b60405161022293929190611d24565b60405180910390f35b34801561023757600080fd5b5060045461024b906001600160a01b031681565b6040516001600160a01b039091168152602001610222565b610276610271366004611e2c565b61083e565b005b34801561028457600080fd5b5061028d600281565b60405161ffff9091168152602001610222565b3480156102ac57600080fd5b506040805162b9270b60e21b81526001602082015201610222565b3480156102d357600080fd5b5060408051600181526002602082015201610222565b3480156102f557600080fd5b5061028d600181565b34801561030a57600080fd5b50610276610319366004611ee4565b6108fe565b34801561032a57600080fd5b5061033e610339366004611f1c565b610914565b6040516102229190611f6d565b34801561035757600080fd5b503061024b565b34801561036a57600080fd5b5061037e610379366004611f96565b61097d565b6040516102229190611fc9565b34801561039757600080fd5b506103c26103a6366004611ee4565b63ffffffff919091166000908152600160205260409020541490565b6040519015158152602001610222565b3480156103de57600080fd5b5061024b7f000000000000000000000000000000000000000000000000000000000000000081565b34801561041257600080fd5b50610276610421366004611fdc565b610a22565b34801561043257600080fd5b50610276610a7f565b34801561044757600080fd5b5061045e610456366004611ee4565b600092915050565b6040516001600160401b039091168152602001610222565b34801561048257600080fd5b506103c2610491366004611ff9565b610a93565b3480156104a257600080fd5b5060405160068152602001610222565b3480156104be57600080fd5b506000546001600160a01b031661024b565b3480156104dc57600080fd5b506105047f000000000000000000000000000000000000000000000000000000000000000081565b604051908152602001610222565b34801561051e57600080fd5b5060016103c2565b34801561053257600080fd5b5060025461024b906001600160a01b031681565b34801561055257600080fd5b506102766105613660046120a3565b610aa8565b34801561057257600080fd5b506105046105813660046120e4565b60016020526000908152604090205481565b34801561059f57600080fd5b5061037e6105ae3660046120ff565b610ac2565b6102766105c13660046120a3565b610c6a565b6105d96105d436600461215f565b610df4565b6040516102229291906121cc565b3480156105f357600080fd5b50610276610602366004611fdc565b610e28565b610276610615366004611e2c565b610eae565b34801561062657600080fd5b50610276610635366004611fdc565b610edd565b34801561064657600080fd5b50610276610655366004611fdc565b610f33565b34801561066657600080fd5b507f000000000000000000000000000000000000000000000000000000000000000061024b565b34801561069957600080fd5b506103c26106a836600461221e565b610f71565b604080518082019091526000808252602082015260606106e0604051806040016040528060008152602001600081525090565b600080306001600160a01b031663fc0c546a6040518163ffffffff1660e01b8152600401602060405180830381865afa158015610721573d6000803e3d6000fd5b505050506040513d601f19601f82011682018060405250810190610745919061223a565b6001600160a01b03166318160ddd6040518163ffffffff1660e01b8152600401602060405180830381865afa158015610782573d6000803e3d6000fd5b505050506040513d601f19601f820116820180604052508101906107a69190612257565b604080518082018252848152602080820184905282516000808252918101909352909750919250906107fb565b6040805180820190915260008152606060208201528152602001906001900390816107d35790505b509350600080610820604089013560608a013561081b60208c018c6120e4565b610fa7565b60408051808201909152918252602082015296989597505050505050565b7f00000000000000000000000000000000000000000000000000000000000000006001600160a01b0316331461088e576040516391ac5e4f60e01b81523360048201526024015b60405180910390fd5b602087018035906108a8906108a3908a6120e4565b610fe3565b146108e6576108ba60208801886120e4565b60405163309afaf360e21b815263ffffffff909116600482015260208801356024820152604401610885565b6108f58787878787878761101f565b50505050505050565b610906611186565b61091082826111b3565b5050565b604080518082019091526000808252602082015260006109446040850135606086013561081b60208801886120e4565b9150506000806109548684611208565b909250905061097161096960208801886120e4565b83838861132b565b93505050505b92915050565b6003602090815260009283526040808420909152908252902080546109a190612286565b80601f01602080910402602001604051908101604052809291908181526020018280546109cd90612286565b8015610a1a5780601f106109ef57610100808354040283529160200191610a1a565b820191906000526020600020905b8154815290600101906020018083116109fd57829003601f168201915b505050505081565b610a2a611186565b600480546001600160a01b0319166001600160a01b0383169081179091556040519081527ff0be4f1e87349231d80c36b33f9e8639658eeaf474014dee15a3e6a4d4414197906020015b60405180910390a150565b610a87611186565b610a91600061140c565b565b6001600160a01b03811630145b949350505050565b610ab0611186565b610910610abd828461235b565b61145c565b63ffffffff8416600090815260036020908152604080832061ffff87168452909152812080546060929190610af690612286565b80601f0160208091040260200160405190810160405280929190818152602001828054610b2290612286565b8015610b6f5780601f10610b4457610100808354040283529160200191610b6f565b820191906000526020600020905b815481529060010190602001808311610b5257829003601f168201915b505050505090508051600003610bbf5783838080601f016020809104026020016040519081016040528093929190818152602001838380828437600092019190915250929450610aa09350505050565b6000839003610bcf579050610aa0565b60028310610c4d57610c1684848080601f01602080910402602001604051908101604052809392919081815260200183838082843760009201919091525061156392505050565b80610c248460028188612470565b604051602001610c369392919061249a565b604051602081830303815290604052915050610aa0565b8383604051639a6d49cd60e01b81526004016108859291906124eb565b60005b81811015610d735736838383818110610c8857610c886124ff565b9050602002810190610c9a9190612515565b9050610ccd610cac60208301836120e4565b602083013563ffffffff919091166000908152600160205260409020541490565b610cd75750610d6b565b3063d045a0dc60c08301358360a0810135610cf6610100830183612536565b610d07610100890160e08a01611fdc565b610d156101208a018a612536565b6040518963ffffffff1660e01b8152600401610d379796959493929190612591565b6000604051808303818588803b158015610d5057600080fd5b505af1158015610d64573d6000803e3d6000fd5b5050505050505b600101610c6d565b50336001600160a01b0316638e9e70996040518163ffffffff1660e01b8152600401600060405180830381865afa158015610db2573d6000803e3d6000fd5b505050506040513d6000823e601f3d908101601f19168201604052610dda9190810190612617565b604051638351eea760e01b81526004016108859190611fc9565b610dfc611c41565b6040805180820190915260008082526020820152610e1b85858561158f565b915091505b935093915050565b610e30611186565b60405163ca5eb5e160e01b81526001600160a01b0382811660048301527f0000000000000000000000000000000000000000000000000000000000000000169063ca5eb5e190602401600060405180830381600087803b158015610e9357600080fd5b505af1158015610ea7573d6000803e3d6000fd5b5050505050565b333014610ece5760405163029a949d60e31b815260040160405180910390fd5b6108f5878787878787876108e6565b610ee5611186565b600280546001600160a01b0319166001600160a01b0383169081179091556040519081527fd48d879cef83a1c0bdda516f27b13ddb1b3f8bbac1c9e1511bb2a659c242776090602001610a74565b610f3b611186565b6001600160a01b038116610f6557604051631e4fbdf760e01b815260006004820152602401610885565b610f6e8161140c565b50565b6000602082018035906001908390610f8990866120e4565b63ffffffff1681526020810191909152604001600020541492915050565b600080610fb38561168a565b915081905083811015610e20576040516371c4efed60e01b81526004810182905260248101859052604401610885565b63ffffffff8116600090815260016020526040812054806109775760405163f6ff4fb760e01b815263ffffffff84166004820152602401610885565b600061103161102e87876116c1565b90565b9050600061105d8261104b6110468a8a6116e0565b611703565b61105860208d018d6120e4565b611738565b9050602886111561112457600061109a61107d60608c0160408d01612684565b61108a60208d018d6120e4565b846110958c8c611776565b6117c1565b604051633e5ac80960e11b81529091506001600160a01b037f00000000000000000000000000000000000000000000000000000000000000001690637cb59012906110f09086908d9060009087906004016126a1565b600060405180830381600087803b15801561110a57600080fd5b505af115801561111e573d6000803e3d6000fd5b50505050505b6001600160a01b038216887fefed6d3500546b29533b128a29e3a94d70788727f0507505ac12eaf2e578fd9c61115d60208d018d6120e4565b6040805163ffffffff9092168252602082018690520160405180910390a3505050505050505050565b6000546001600160a01b03163314610a915760405163118cdaa760e01b8152336004820152602401610885565b63ffffffff8216600081815260016020908152604091829020849055815192835282018390527f238399d427b947898edb290f5ff0f9109849b1c3ba196a42e35f00c50a54b98b910160405180910390a15050565b6060806000611265856020013561121e866117f3565b61122b60a0890189612536565b8080601f01602080910402602001604051908101604052809392919081815260200183838082843760009201919091525061184d92505050565b909350905060008161127857600161127b565b60025b905061129b61128d60208801886120e4565b826105ae60808a018a612536565b6004549093506001600160a01b031680156113215760405163043a78eb60e01b81526001600160a01b0382169063043a78eb906112de90889088906004016126dc565b602060405180830381865afa1580156112fb573d6000803e3d6000fd5b505050506040513d601f19601f8201168201806040525081019061131f9190612701565b505b5050509250929050565b60408051808201909152600080825260208201527f00000000000000000000000000000000000000000000000000000000000000006001600160a01b031663ddc28c586040518060a001604052808863ffffffff16815260200161138e89610fe3565b8152602001878152602001868152602001851515815250306040518363ffffffff1660e01b81526004016113c392919061271e565b6040805180830381865afa1580156113df573d6000803e3d6000fd5b505050506040513d601f19601f8201168201806040525081019061140391906127c7565b95945050505050565b600080546001600160a01b038381166001600160a01b0319831681178455604051919092169283917f8be0079c531659141344cd1fd0a4f28419497f9722a3daafe3b4186f6b6457e09190a35050565b60005b81518110156115335761148e82828151811061147d5761147d6124ff565b602002602001015160400151611563565b8181815181106114a0576114a06124ff565b602002602001015160400151600360008484815181106114c2576114c26124ff565b60200260200101516000015163ffffffff1663ffffffff16815260200190815260200160002060008484815181106114fc576114fc6124ff565b60200260200101516020015161ffff1661ffff168152602001908152602001600020908161152a9190612833565b5060010161145f565b507fbe4864a8e820971c0247f5992e2da559595f7bf076a21cb5928d443d2a13b67481604051610a7491906128f2565b600281015161ffff81166003146109105781604051639a6d49cd60e01b81526004016108859190611fc9565b611597611c41565b60408051808201909152600080825260208201526000806115ce33604089013560608a01356115c960208c018c6120e4565b6118c7565b915091506000806115df8984611208565b909250905061160b6115f460208b018b6120e4565b8383611605368d90038d018d61297d565b8b611918565b60408051808201909152858152602080820186905282519298509096503391907f85496b760a4b7f8d66384b9df21b381f5d1b1e79f229a47aaf4c232edc2fe59a90611659908d018d6120e4565b6040805163ffffffff909216825260208201899052810187905260600160405180910390a350505050935093915050565b60007f00000000000000000000000000000000000000000000000000000000000000006116b781846129af565b61097791906129d1565b60006116d06020828486612470565b6116d9916129f6565b9392505050565b60006116f0602860208486612470565b6116f991612a14565b60c01c9392505050565b60006109777f00000000000000000000000000000000000000000000000000000000000000006001600160401b0384166129d1565b600061176e6001600160a01b037f0000000000000000000000000000000000000000000000000000000000000000168585611a23565b509092915050565b60606117858260288186612470565b8080601f016020809104026020016040519081016040528093929190818152602001838380828437600092019190915250929695505050505050565b6060848484846040516020016117da9493929190612a44565b6040516020818303038152906040529050949350505050565b6000806118207f0000000000000000000000000000000000000000000000000000000000000000846129af565b90506001600160401b038111156109775760405163e2ce941360e01b815260048101829052602401610885565b805160609015158061189657848460405160200161188292919091825260c01b6001600160c01b031916602082015260280190565b6040516020818303038152906040526118bd565b848433856040516020016118ad9493929190612a93565b6040516020818303038152906040525b9150935093915050565b6000806118d5858585610fa7565b909250905061190f6001600160a01b037f000000000000000000000000000000000000000000000000000000000000000016873085611a87565b94509492505050565b611920611c41565b600061192f8460000151611ac6565b602085015190915015611949576119498460200151611aee565b7f00000000000000000000000000000000000000000000000000000000000000006001600160a01b0316632637a450826040518060a001604052808b63ffffffff1681526020016119998c610fe3565b81526020018a815260200189815260200160008960200151111515815250866040518463ffffffff1660e01b81526004016119d592919061271e565b60806040518083038185885af11580156119f3573d6000803e3d6000fd5b50505050506040513d601f19601f82011682018060405250810190611a189190612ad6565b979650505050505050565b6040516001600160a01b03838116602483015260448201839052611a8291859182169063a9059cbb906064015b604051602081830303815290604052915060e01b6020820180516001600160e01b038381831617835250505050611bd0565b505050565b6040516001600160a01b038481166024830152838116604483015260648201839052611ac09186918216906323b872dd90608401611a50565b50505050565b6000813414611aea576040516304fb820960e51b8152346004820152602401610885565b5090565b60007f00000000000000000000000000000000000000000000000000000000000000006001600160a01b031663e4fe1d946040518163ffffffff1660e01b8152600401602060405180830381865afa158015611b4e573d6000803e3d6000fd5b505050506040513d601f19601f82011682018060405250810190611b72919061223a565b90506001600160a01b038116611b9b576040516329b99a9560e11b815260040160405180910390fd5b6109106001600160a01b038216337f000000000000000000000000000000000000000000000000000000000000000085611a87565b600080602060008451602086016000885af180611bf3576040513d6000823e3d81fd5b50506000513d91508115611c0b578060011415611c18565b6001600160a01b0384163b155b15611ac057604051635274afe760e01b81526001600160a01b0385166004820152602401610885565b60405180606001604052806000801916815260200160006001600160401b03168152602001611c83604051806040016040528060008152602001600081525090565b905290565b600060e08284031215611c9a57600080fd5b50919050565b600060208284031215611cb257600080fd5b81356001600160401b03811115611cc857600080fd5b610aa084828501611c88565b60005b83811015611cef578181015183820152602001611cd7565b50506000910152565b60008151808452611d10816020860160208601611cd4565b601f01601f19169290920160200192915050565b8351815260208085015190820152600060a08201604060a0604085015281865180845260c08601915060c08160051b8701019350602080890160005b83811015611d9f5788870360bf19018552815180518852830151838801879052611d8c87890182611cf8565b9750509382019390820190600101611d60565b50508751606088015250505060208501516080850152509050610aa0565b600060608284031215611c9a57600080fd5b60008083601f840112611de157600080fd5b5081356001600160401b03811115611df857600080fd5b602083019150836020828501011115611e1057600080fd5b9250929050565b6001600160a01b0381168114610f6e57600080fd5b600080600080600080600060e0888a031215611e4757600080fd5b611e518989611dbd565b96506060880135955060808801356001600160401b0380821115611e7457600080fd5b611e808b838c01611dcf565b909750955060a08a01359150611e9582611e17565b90935060c08901359080821115611eab57600080fd5b50611eb88a828b01611dcf565b989b979a50959850939692959293505050565b803563ffffffff81168114611edf57600080fd5b919050565b60008060408385031215611ef757600080fd5b611f0083611ecb565b946020939093013593505050565b8015158114610f6e57600080fd5b60008060408385031215611f2f57600080fd5b82356001600160401b03811115611f4557600080fd5b611f5185828601611c88565b9250506020830135611f6281611f0e565b809150509250929050565b815181526020808301519082015260408101610977565b803561ffff81168114611edf57600080fd5b60008060408385031215611fa957600080fd5b611fb283611ecb565b9150611fc060208401611f84565b90509250929050565b6020815260006116d96020830184611cf8565b600060208284031215611fee57600080fd5b81356116d981611e17565b60008060008060a0858703121561200f57600080fd5b6120198686611dbd565b935060608501356001600160401b0381111561203457600080fd5b61204087828801611dcf565b909450925050608085013561205481611e17565b939692955090935050565b60008083601f84011261207157600080fd5b5081356001600160401b0381111561208857600080fd5b6020830191508360208260051b8501011115611e1057600080fd5b600080602083850312156120b657600080fd5b82356001600160401b038111156120cc57600080fd5b6120d88582860161205f565b90969095509350505050565b6000602082840312156120f657600080fd5b6116d982611ecb565b6000806000806060858703121561211557600080fd5b61211e85611ecb565b935061212c60208601611f84565b925060408501356001600160401b0381111561214757600080fd5b61215387828801611dcf565b95989497509550505050565b6000806000838503608081121561217557600080fd5b84356001600160401b0381111561218b57600080fd5b61219787828801611c88565b9450506040601f19820112156121ac57600080fd5b5060208401915060608401356121c181611e17565b809150509250925092565b600060c082019050835182526001600160401b0360208501511660208301526040840151612207604084018280518252602090810151910152565b5082516080830152602083015160a08301526116d9565b60006060828403121561223057600080fd5b6116d98383611dbd565b60006020828403121561224c57600080fd5b81516116d981611e17565b60006020828403121561226957600080fd5b5051919050565b634e487b7160e01b600052604160045260246000fd5b600181811c9082168061229a57607f821691505b602082108103611c9a57634e487b7160e01b600052602260045260246000fd5b604051606081016001600160401b03811182821017156122dc576122dc612270565b60405290565b604080519081016001600160401b03811182821017156122dc576122dc612270565b604051601f8201601f191681016001600160401b038111828210171561232c5761232c612270565b604052919050565b60006001600160401b0382111561234d5761234d612270565b50601f01601f191660200190565b60006001600160401b038084111561237557612375612270565b8360051b6020612386818301612304565b86815291850191818101903684111561239e57600080fd5b865b84811015612464578035868111156123b85760008081fd5b880160603682900312156123cc5760008081fd5b6123d46122ba565b6123dd82611ecb565b81526123ea868301611f84565b86820152604080830135898111156124025760008081fd5b929092019136601f8401126124175760008081fd5b823561242a61242582612334565b612304565b818152368983870101111561243f5760008081fd5b818986018a8301376000918101890191909152908201528452509183019183016123a0565b50979650505050505050565b6000808585111561248057600080fd5b8386111561248d57600080fd5b5050820193919092039150565b600084516124ac818460208901611cd4565b8201838582376000930192835250909392505050565b81835281816020850137506000828201602090810191909152601f909101601f19169091010190565b602081526000610aa06020830184866124c2565b634e487b7160e01b600052603260045260246000fd5b6000823561013e1983360301811261252c57600080fd5b9190910192915050565b6000808335601e1984360301811261254d57600080fd5b8301803591506001600160401b0382111561256757600080fd5b602001915036819003821315611e1057600080fd5b6001600160401b0381168114610f6e57600080fd5b63ffffffff61259f89611ecb565b16815260208801356020820152600060408901356125bc8161257c565b6001600160401b03811660408401525087606083015260e060808301526125e760e0830187896124c2565b6001600160a01b03861660a084015282810360c08401526126098185876124c2565b9a9950505050505050505050565b60006020828403121561262957600080fd5b81516001600160401b0381111561263f57600080fd5b8201601f8101841361265057600080fd5b805161265e61242582612334565b81815285602083850101111561267357600080fd5b611403826020830160208601611cd4565b60006020828403121561269657600080fd5b81356116d98161257c565b60018060a01b038516815283602082015261ffff831660408201526080606082015260006126d26080830184611cf8565b9695505050505050565b6040815260006126ef6040830185611cf8565b82810360208401526114038185611cf8565b60006020828403121561271357600080fd5b81516116d981611f0e565b6040815263ffffffff8351166040820152602083015160608201526000604084015160a0608084015261275460e0840182611cf8565b90506060850151603f198483030160a08501526127718282611cf8565b60809690960151151560c08501525050506001600160a01b039190911660209091015290565b6000604082840312156127a957600080fd5b6127b16122e2565b9050815181526020820151602082015292915050565b6000604082840312156127d957600080fd5b6116d98383612797565b601f821115611a82576000816000526020600020601f850160051c8101602086101561280c5750805b601f850160051c820191505b8181101561282b57828155600101612818565b505050505050565b81516001600160401b0381111561284c5761284c612270565b6128608161285a8454612286565b846127e3565b602080601f831160018114612895576000841561287d5750858301515b600019600386901b1c1916600185901b17855561282b565b600085815260208120601f198616915b828110156128c4578886015182559484019460019091019084016128a5565b50858210156128e25787850151600019600388901b60f8161c191681555b5050505050600190811b01905550565b600060208083018184528085518083526040925060408601915060408160051b87010184880160005b8381101561296f57888303603f190185528151805163ffffffff1684528781015161ffff1688850152860151606087850181905261295b81860183611cf8565b96890196945050509086019060010161291b565b509098975050505050505050565b60006040828403121561298f57600080fd5b6129976122e2565b82358152602083013560208201528091505092915050565b6000826129cc57634e487b7160e01b600052601260045260246000fd5b500490565b808202811582820484141761097757634e487b7160e01b600052601160045260246000fd5b8035602083101561097757600019602084900360031b1b1692915050565b6001600160c01b03198135818116916008851015612a3c5780818660080360031b1b83161692505b505092915050565b6001600160401b0360c01b8560c01b16815263ffffffff60e01b8460e01b16600882015282600c82015260008251612a8381602c850160208701611cd4565b91909101602c0195945050505050565b8481526001600160401b0360c01b8460c01b16602082015282602882015260008251612ac6816048850160208701611cd4565b9190910160480195945050505050565b600060808284031215612ae857600080fd5b612af06122ba565b825181526020830151612b028161257c565b6020820152612b148460408501612797565b6040820152939250505056fea2646970667358221220d3aa372795d4982187c839358e694b3b79ee82c89139508de1f8db3be0ee579064736f6c63430008160033",
  "linkReferences": {},
  "deployedLinkReferences": {}
}